{
	".deps/remix-tests/contract.sol": {
		"Donation": {
			"abi": [
				{
					"inputs": [],
					"stateMutability": "nonpayable",
					"type": "constructor"
				},
				{
					"anonymous": false,
					"inputs": [
						{
							"indexed": true,
							"internalType": "address",
							"name": "sender",
							"type": "address"
						},
						{
							"indexed": false,
							"internalType": "uint256",
							"name": "value",
							"type": "uint256"
						}
					],
					"name": "Donate",
					"type": "event"
				},
				{
					"anonymous": false,
					"inputs": [
						{
							"indexed": true,
							"internalType": "address",
							"name": "owner",
							"type": "address"
						},
						{
							"indexed": false,
							"internalType": "uint256",
							"name": "value",
							"type": "uint256"
						}
					],
					"name": "Withdraw",
					"type": "event"
				},
				{
					"inputs": [],
					"name": "donate",
					"outputs": [],
					"stateMutability": "payable",
					"type": "function"
				},
				{
					"inputs": [],
					"name": "getHistory",
					"outputs": [
						{
							"internalType": "uint256",
							"name": "",
							"type": "uint256"
						}
					],
					"stateMutability": "view",
					"type": "function"
				},
				{
					"inputs": [],
					"name": "getRank",
					"outputs": [
						{
							"internalType": "string",
							"name": "",
							"type": "string"
						}
					],
					"stateMutability": "view",
					"type": "function"
				},
				{
					"inputs": [],
					"name": "owner",
					"outputs": [
						{
							"internalType": "address",
							"name": "",
							"type": "address"
						}
					],
					"stateMutability": "view",
					"type": "function"
				},
				{
					"inputs": [],
					"name": "withdraw",
					"outputs": [],
					"stateMutability": "nonpayable",
					"type": "function"
				}
			],
			"devdoc": {
				"kind": "dev",
				"methods": {},
				"version": 1
			},
			"evm": {
				"assembly": "    /* \".deps/remix-tests/contract.sol\":61:1573  contract Donation{... */\n  mstore(0x40, 0x80)\n    /* \".deps/remix-tests/contract.sol\":401:506  constructor(){... */\n  callvalue\n  dup1\n  iszero\n  tag_1\n  jumpi\n  0x00\n  dup1\n  revert\ntag_1:\n  pop\n    /* \".deps/remix-tests/contract.sol\":488:498  msg.sender */\n  caller\n    /* \".deps/remix-tests/contract.sol\":482:487  owner */\n  0x00\n  dup1\n    /* \".deps/remix-tests/contract.sol\":482:498  owner=msg.sender */\n  0x0100\n  exp\n  dup2\n  sload\n  dup2\n  0xffffffffffffffffffffffffffffffffffffffff\n  mul\n  not\n  and\n  swap1\n  dup4\n  0xffffffffffffffffffffffffffffffffffffffff\n  and\n  mul\n  or\n  swap1\n  sstore\n  pop\n    /* \".deps/remix-tests/contract.sol\":61:1573  contract Donation{... */\n  dataSize(sub_0)\n  dup1\n  dataOffset(sub_0)\n  0x00\n  codecopy\n  0x00\n  return\nstop\n\nsub_0: assembly {\n        /* \".deps/remix-tests/contract.sol\":61:1573  contract Donation{... */\n      mstore(0x40, 0x80)\n      jumpi(tag_1, lt(calldatasize, 0x04))\n      shr(0xe0, calldataload(0x00))\n      dup1\n      0x3ccfd60b\n      eq\n      tag_2\n      jumpi\n      dup1\n      0x8da5cb5b\n      eq\n      tag_3\n      jumpi\n      dup1\n      0xaa15efc8\n      eq\n      tag_4\n      jumpi\n      dup1\n      0xd303e7b2\n      eq\n      tag_5\n      jumpi\n      dup1\n      0xed88c68e\n      eq\n      tag_6\n      jumpi\n    tag_1:\n      0x00\n      dup1\n      revert\n        /* \".deps/remix-tests/contract.sol\":1350:1570  function withdraw() onlyowner public{... */\n    tag_2:\n      callvalue\n      dup1\n      iszero\n      tag_7\n      jumpi\n      0x00\n      dup1\n      revert\n    tag_7:\n      pop\n      tag_8\n      tag_9\n      jump\t// in\n    tag_8:\n      stop\n        /* \".deps/remix-tests/contract.sol\":85:105  address public owner */\n    tag_3:\n      callvalue\n      dup1\n      iszero\n      tag_10\n      jumpi\n      0x00\n      dup1\n      revert\n    tag_10:\n      pop\n      tag_11\n      tag_12\n      jump\t// in\n    tag_11:\n      mload(0x40)\n      tag_13\n      swap2\n      swap1\n      tag_14\n      jump\t// in\n    tag_13:\n      mload(0x40)\n      dup1\n      swap2\n      sub\n      swap1\n      return\n        /* \".deps/remix-tests/contract.sol\":757:857  function getHistory() public view returns(uint256){... */\n    tag_4:\n      callvalue\n      dup1\n      iszero\n      tag_15\n      jumpi\n      0x00\n      dup1\n      revert\n    tag_15:\n      pop\n      tag_16\n      tag_17\n      jump\t// in\n    tag_16:\n      mload(0x40)\n      tag_18\n      swap2\n      swap1\n      tag_19\n      jump\t// in\n    tag_18:\n      mload(0x40)\n      dup1\n      swap2\n      sub\n      swap1\n      return\n        /* \".deps/remix-tests/contract.sol\":888:1322  function getRank() public view returns(string memory){... */\n    tag_5:\n      callvalue\n      dup1\n      iszero\n      tag_20\n      jumpi\n      0x00\n      dup1\n      revert\n    tag_20:\n      pop\n      tag_21\n      tag_22\n      jump\t// in\n    tag_21:\n      mload(0x40)\n      tag_23\n      swap2\n      swap1\n      tag_24\n      jump\t// in\n    tag_23:\n      mload(0x40)\n      dup1\n      swap2\n      sub\n      swap1\n      return\n        /* \".deps/remix-tests/contract.sol\":540:723  function donate() public payable{... */\n    tag_6:\n      tag_25\n      tag_26\n      jump\t// in\n    tag_25:\n      stop\n        /* \".deps/remix-tests/contract.sol\":1350:1570  function withdraw() onlyowner public{... */\n    tag_9:\n        /* \".deps/remix-tests/contract.sol\":326:336  msg.sender */\n      caller\n        /* \".deps/remix-tests/contract.sol\":319:336  owner==msg.sender */\n      0xffffffffffffffffffffffffffffffffffffffff\n      and\n        /* \".deps/remix-tests/contract.sol\":319:324  owner */\n      0x00\n      dup1\n      sload\n      swap1\n      0x0100\n      exp\n      swap1\n      div\n      0xffffffffffffffffffffffffffffffffffffffff\n      and\n        /* \".deps/remix-tests/contract.sol\":319:336  owner==msg.sender */\n      0xffffffffffffffffffffffffffffffffffffffff\n      and\n      eq\n        /* \".deps/remix-tests/contract.sol\":311:373  require(owner==msg.sender,\"Only owner can call this function\") */\n      tag_28\n      jumpi\n      mload(0x40)\n      0x08c379a000000000000000000000000000000000000000000000000000000000\n      dup2\n      mstore\n      0x04\n      add\n      tag_29\n      swap1\n      tag_30\n      jump\t// in\n    tag_29:\n      mload(0x40)\n      dup1\n      swap2\n      sub\n      swap1\n      revert\n    tag_28:\n        /* \".deps/remix-tests/contract.sol\":1397:1421  address payable Receiver */\n      0x00\n        /* \".deps/remix-tests/contract.sol\":1432:1437  owner */\n      dup1\n      0x00\n      swap1\n      sload\n      swap1\n      0x0100\n      exp\n      swap1\n      div\n      0xffffffffffffffffffffffffffffffffffffffff\n      and\n        /* \".deps/remix-tests/contract.sol\":1397:1438  address payable Receiver = payable(owner) */\n      swap1\n      pop\n        /* \".deps/remix-tests/contract.sol\":1449:1462  uint256 value */\n      0x00\n        /* \".deps/remix-tests/contract.sol\":1465:1486  address(this).balance */\n      selfbalance\n        /* \".deps/remix-tests/contract.sol\":1449:1486  uint256 value = address(this).balance */\n      swap1\n      pop\n        /* \".deps/remix-tests/contract.sol\":1497:1505  Receiver */\n      dup2\n        /* \".deps/remix-tests/contract.sol\":1497:1514  Receiver.transfer */\n      0xffffffffffffffffffffffffffffffffffffffff\n      and\n        /* \".deps/remix-tests/contract.sol\":1497:1521  Receiver.transfer(value) */\n      0x08fc\n        /* \".deps/remix-tests/contract.sol\":1515:1520  value */\n      dup3\n        /* \".deps/remix-tests/contract.sol\":1497:1521  Receiver.transfer(value) */\n      swap1\n      dup2\n      iszero\n      mul\n      swap1\n      mload(0x40)\n      0x00\n      mload(0x40)\n      dup1\n      dup4\n      sub\n      dup2\n      dup6\n      dup9\n      dup9\n      call\n      swap4\n      pop\n      pop\n      pop\n      pop\n      iszero\n      dup1\n      iszero\n      tag_33\n      jumpi\n      returndatasize\n      0x00\n      dup1\n      returndatacopy\n      revert(0x00, returndatasize)\n    tag_33:\n      pop\n        /* \".deps/remix-tests/contract.sol\":1546:1554  Receiver */\n      dup2\n        /* \".deps/remix-tests/contract.sol\":1537:1562  Withdraw(Receiver, value) */\n      0xffffffffffffffffffffffffffffffffffffffff\n      and\n      0x884edad9ce6fa2440d8a54cc123490eb96d2768479d49ff9c7366125a9424364\n        /* \".deps/remix-tests/contract.sol\":1556:1561  value */\n      dup3\n        /* \".deps/remix-tests/contract.sol\":1537:1562  Withdraw(Receiver, value) */\n      mload(0x40)\n      tag_34\n      swap2\n      swap1\n      tag_19\n      jump\t// in\n    tag_34:\n      mload(0x40)\n      dup1\n      swap2\n      sub\n      swap1\n      log2\n        /* \".deps/remix-tests/contract.sol\":1386:1570  {... */\n      pop\n      pop\n        /* \".deps/remix-tests/contract.sol\":1350:1570  function withdraw() onlyowner public{... */\n      jump\t// out\n        /* \".deps/remix-tests/contract.sol\":85:105  address public owner */\n    tag_12:\n      0x00\n      dup1\n      sload\n      swap1\n      0x0100\n      exp\n      swap1\n      div\n      0xffffffffffffffffffffffffffffffffffffffff\n      and\n      dup2\n      jump\t// out\n        /* \".deps/remix-tests/contract.sol\":757:857  function getHistory() public view returns(uint256){... */\n    tag_17:\n        /* \".deps/remix-tests/contract.sol\":799:806  uint256 */\n      0x00\n        /* \".deps/remix-tests/contract.sol\":825:837  donationList */\n      0x01\n        /* \".deps/remix-tests/contract.sol\":825:849  donationList[msg.sender] */\n      0x00\n        /* \".deps/remix-tests/contract.sol\":838:848  msg.sender */\n      caller\n        /* \".deps/remix-tests/contract.sol\":825:849  donationList[msg.sender] */\n      0xffffffffffffffffffffffffffffffffffffffff\n      and\n      0xffffffffffffffffffffffffffffffffffffffff\n      and\n      dup2\n      mstore\n      0x20\n      add\n      swap1\n      dup2\n      mstore\n      0x20\n      add\n      0x00\n      keccak256\n      sload\n        /* \".deps/remix-tests/contract.sol\":818:849  return donationList[msg.sender] */\n      swap1\n      pop\n        /* \".deps/remix-tests/contract.sol\":757:857  function getHistory() public view returns(uint256){... */\n      swap1\n      jump\t// out\n        /* \".deps/remix-tests/contract.sol\":888:1322  function getRank() public view returns(string memory){... */\n    tag_22:\n        /* \".deps/remix-tests/contract.sol\":927:940  string memory */\n      0x60\n        /* \".deps/remix-tests/contract.sol\":981:989  10 ether */\n      0x8ac7230489e80000\n        /* \".deps/remix-tests/contract.sol\":956:968  donationList */\n      0x01\n        /* \".deps/remix-tests/contract.sol\":956:980  donationList[msg.sender] */\n      0x00\n        /* \".deps/remix-tests/contract.sol\":969:979  msg.sender */\n      caller\n        /* \".deps/remix-tests/contract.sol\":956:980  donationList[msg.sender] */\n      0xffffffffffffffffffffffffffffffffffffffff\n      and\n      0xffffffffffffffffffffffffffffffffffffffff\n      and\n      dup2\n      mstore\n      0x20\n      add\n      swap1\n      dup2\n      mstore\n      0x20\n      add\n      0x00\n      keccak256\n      sload\n        /* \".deps/remix-tests/contract.sol\":956:989  donationList[msg.sender]>10 ether */\n      gt\n        /* \".deps/remix-tests/contract.sol\":952:1315  if (donationList[msg.sender]>10 ether){... */\n      iszero\n      tag_37\n      jumpi\n        /* \".deps/remix-tests/contract.sol\":1005:1016  return \"UR\" */\n      mload(0x40)\n      dup1\n      0x40\n      add\n      0x40\n      mstore\n      dup1\n      0x02\n      dup2\n      mstore\n      0x20\n      add\n      0x5552000000000000000000000000000000000000000000000000000000000000\n      dup2\n      mstore\n      pop\n      swap1\n      pop\n      jump(tag_36)\n        /* \".deps/remix-tests/contract.sol\":952:1315  if (donationList[msg.sender]>10 ether){... */\n    tag_37:\n        /* \".deps/remix-tests/contract.sol\":1062:1069  5 ether */\n      0x4563918244f40000\n        /* \".deps/remix-tests/contract.sol\":1037:1049  donationList */\n      0x01\n        /* \".deps/remix-tests/contract.sol\":1037:1061  donationList[msg.sender] */\n      0x00\n        /* \".deps/remix-tests/contract.sol\":1050:1060  msg.sender */\n      caller\n        /* \".deps/remix-tests/contract.sol\":1037:1061  donationList[msg.sender] */\n      0xffffffffffffffffffffffffffffffffffffffff\n      and\n      0xffffffffffffffffffffffffffffffffffffffff\n      and\n      dup2\n      mstore\n      0x20\n      add\n      swap1\n      dup2\n      mstore\n      0x20\n      add\n      0x00\n      keccak256\n      sload\n        /* \".deps/remix-tests/contract.sol\":1037:1069  donationList[msg.sender]>5 ether */\n      gt\n        /* \".deps/remix-tests/contract.sol\":1033:1315  if (donationList[msg.sender]>5 ether){... */\n      iszero\n      tag_39\n      jumpi\n        /* \".deps/remix-tests/contract.sol\":1085:1096  return \"SR\" */\n      mload(0x40)\n      dup1\n      0x40\n      add\n      0x40\n      mstore\n      dup1\n      0x02\n      dup2\n      mstore\n      0x20\n      add\n      0x5352000000000000000000000000000000000000000000000000000000000000\n      dup2\n      mstore\n      pop\n      swap1\n      pop\n      jump(tag_36)\n        /* \".deps/remix-tests/contract.sol\":1033:1315  if (donationList[msg.sender]>5 ether){... */\n    tag_39:\n        /* \".deps/remix-tests/contract.sol\":1142:1149  1 ether */\n      0x0de0b6b3a7640000\n        /* \".deps/remix-tests/contract.sol\":1117:1129  donationList */\n      0x01\n        /* \".deps/remix-tests/contract.sol\":1117:1141  donationList[msg.sender] */\n      0x00\n        /* \".deps/remix-tests/contract.sol\":1130:1140  msg.sender */\n      caller\n        /* \".deps/remix-tests/contract.sol\":1117:1141  donationList[msg.sender] */\n      0xffffffffffffffffffffffffffffffffffffffff\n      and\n      0xffffffffffffffffffffffffffffffffffffffff\n      and\n      dup2\n      mstore\n      0x20\n      add\n      swap1\n      dup2\n      mstore\n      0x20\n      add\n      0x00\n      keccak256\n      sload\n        /* \".deps/remix-tests/contract.sol\":1117:1149  donationList[msg.sender]>1 ether */\n      gt\n        /* \".deps/remix-tests/contract.sol\":1113:1315  if (donationList[msg.sender]>1 ether){... */\n      iszero\n      tag_41\n      jumpi\n        /* \".deps/remix-tests/contract.sol\":1165:1175  return \"R\" */\n      mload(0x40)\n      dup1\n      0x40\n      add\n      0x40\n      mstore\n      dup1\n      0x01\n      dup2\n      mstore\n      0x20\n      add\n      0x5200000000000000000000000000000000000000000000000000000000000000\n      dup2\n      mstore\n      pop\n      swap1\n      pop\n      jump(tag_36)\n        /* \".deps/remix-tests/contract.sol\":1113:1315  if (donationList[msg.sender]>1 ether){... */\n    tag_41:\n        /* \".deps/remix-tests/contract.sol\":1221:1228  0 ether */\n      0x00\n        /* \".deps/remix-tests/contract.sol\":1196:1208  donationList */\n      0x01\n        /* \".deps/remix-tests/contract.sol\":1196:1220  donationList[msg.sender] */\n      0x00\n        /* \".deps/remix-tests/contract.sol\":1209:1219  msg.sender */\n      caller\n        /* \".deps/remix-tests/contract.sol\":1196:1220  donationList[msg.sender] */\n      0xffffffffffffffffffffffffffffffffffffffff\n      and\n      0xffffffffffffffffffffffffffffffffffffffff\n      and\n      dup2\n      mstore\n      0x20\n      add\n      swap1\n      dup2\n      mstore\n      0x20\n      add\n      0x00\n      keccak256\n      sload\n        /* \".deps/remix-tests/contract.sol\":1196:1228  donationList[msg.sender]>0 ether */\n      gt\n        /* \".deps/remix-tests/contract.sol\":1192:1315  if (donationList[msg.sender]>0 ether){... */\n      iszero\n      tag_43\n      jumpi\n        /* \".deps/remix-tests/contract.sol\":1244:1254  return \"N\" */\n      mload(0x40)\n      dup1\n      0x40\n      add\n      0x40\n      mstore\n      dup1\n      0x01\n      dup2\n      mstore\n      0x20\n      add\n      0x4e00000000000000000000000000000000000000000000000000000000000000\n      dup2\n      mstore\n      pop\n      swap1\n      pop\n      jump(tag_36)\n        /* \".deps/remix-tests/contract.sol\":1192:1315  if (donationList[msg.sender]>0 ether){... */\n    tag_43:\n        /* \".deps/remix-tests/contract.sol\":1290:1303  return \"None\" */\n      mload(0x40)\n      dup1\n      0x40\n      add\n      0x40\n      mstore\n      dup1\n      0x04\n      dup2\n      mstore\n      0x20\n      add\n      0x4e6f6e6500000000000000000000000000000000000000000000000000000000\n      dup2\n      mstore\n      pop\n      swap1\n      pop\n        /* \".deps/remix-tests/contract.sol\":888:1322  function getRank() public view returns(string memory){... */\n    tag_36:\n      swap1\n      jump\t// out\n        /* \".deps/remix-tests/contract.sol\":540:723  function donate() public payable{... */\n    tag_26:\n        /* \".deps/remix-tests/contract.sol\":662:671  msg.value */\n      callvalue\n        /* \".deps/remix-tests/contract.sol\":637:649  donationList */\n      0x01\n        /* \".deps/remix-tests/contract.sol\":637:661  donationList[msg.sender] */\n      0x00\n        /* \".deps/remix-tests/contract.sol\":650:660  msg.sender */\n      caller\n        /* \".deps/remix-tests/contract.sol\":637:661  donationList[msg.sender] */\n      0xffffffffffffffffffffffffffffffffffffffff\n      and\n      0xffffffffffffffffffffffffffffffffffffffff\n      and\n      dup2\n      mstore\n      0x20\n      add\n      swap1\n      dup2\n      mstore\n      0x20\n      add\n      0x00\n      keccak256\n        /* \".deps/remix-tests/contract.sol\":637:671  donationList[msg.sender]=msg.value */\n      dup2\n      swap1\n      sstore\n      pop\n        /* \".deps/remix-tests/contract.sol\":694:704  msg.sender */\n      caller\n        /* \".deps/remix-tests/contract.sol\":687:715  Donate(msg.sender,msg.value) */\n      0xffffffffffffffffffffffffffffffffffffffff\n      and\n      0x0553260a2e46b0577270d8992db02d30856ca880144c72d6e9503760946aef13\n        /* \".deps/remix-tests/contract.sol\":705:714  msg.value */\n      callvalue\n        /* \".deps/remix-tests/contract.sol\":687:715  Donate(msg.sender,msg.value) */\n      mload(0x40)\n      tag_46\n      swap2\n      swap1\n      tag_19\n      jump\t// in\n    tag_46:\n      mload(0x40)\n      dup1\n      swap2\n      sub\n      swap1\n      log2\n        /* \".deps/remix-tests/contract.sol\":540:723  function donate() public payable{... */\n      jump\t// out\n        /* \"#utility.yul\":7:133   */\n    tag_47:\n        /* \"#utility.yul\":44:51   */\n      0x00\n        /* \"#utility.yul\":84:126   */\n      0xffffffffffffffffffffffffffffffffffffffff\n        /* \"#utility.yul\":77:82   */\n      dup3\n        /* \"#utility.yul\":73:127   */\n      and\n        /* \"#utility.yul\":62:127   */\n      swap1\n      pop\n        /* \"#utility.yul\":7:133   */\n      swap2\n      swap1\n      pop\n      jump\t// out\n        /* \"#utility.yul\":139:235   */\n    tag_48:\n        /* \"#utility.yul\":176:183   */\n      0x00\n        /* \"#utility.yul\":205:229   */\n      tag_62\n        /* \"#utility.yul\":223:228   */\n      dup3\n        /* \"#utility.yul\":205:229   */\n      tag_47\n      jump\t// in\n    tag_62:\n        /* \"#utility.yul\":194:229   */\n      swap1\n      pop\n        /* \"#utility.yul\":139:235   */\n      swap2\n      swap1\n      pop\n      jump\t// out\n        /* \"#utility.yul\":241:359   */\n    tag_49:\n        /* \"#utility.yul\":328:352   */\n      tag_64\n        /* \"#utility.yul\":346:351   */\n      dup2\n        /* \"#utility.yul\":328:352   */\n      tag_48\n      jump\t// in\n    tag_64:\n        /* \"#utility.yul\":323:326   */\n      dup3\n        /* \"#utility.yul\":316:353   */\n      mstore\n        /* \"#utility.yul\":241:359   */\n      pop\n      pop\n      jump\t// out\n        /* \"#utility.yul\":365:587   */\n    tag_14:\n        /* \"#utility.yul\":458:462   */\n      0x00\n        /* \"#utility.yul\":496:498   */\n      0x20\n        /* \"#utility.yul\":485:494   */\n      dup3\n        /* \"#utility.yul\":481:499   */\n      add\n        /* \"#utility.yul\":473:499   */\n      swap1\n      pop\n        /* \"#utility.yul\":509:580   */\n      tag_66\n        /* \"#utility.yul\":577:578   */\n      0x00\n        /* \"#utility.yul\":566:575   */\n      dup4\n        /* \"#utility.yul\":562:579   */\n      add\n        /* \"#utility.yul\":553:559   */\n      dup5\n        /* \"#utility.yul\":509:580   */\n      tag_49\n      jump\t// in\n    tag_66:\n        /* \"#utility.yul\":365:587   */\n      swap3\n      swap2\n      pop\n      pop\n      jump\t// out\n        /* \"#utility.yul\":593:670   */\n    tag_50:\n        /* \"#utility.yul\":630:637   */\n      0x00\n        /* \"#utility.yul\":659:664   */\n      dup2\n        /* \"#utility.yul\":648:664   */\n      swap1\n      pop\n        /* \"#utility.yul\":593:670   */\n      swap2\n      swap1\n      pop\n      jump\t// out\n        /* \"#utility.yul\":676:794   */\n    tag_51:\n        /* \"#utility.yul\":763:787   */\n      tag_69\n        /* \"#utility.yul\":781:786   */\n      dup2\n        /* \"#utility.yul\":763:787   */\n      tag_50\n      jump\t// in\n    tag_69:\n        /* \"#utility.yul\":758:761   */\n      dup3\n        /* \"#utility.yul\":751:788   */\n      mstore\n        /* \"#utility.yul\":676:794   */\n      pop\n      pop\n      jump\t// out\n        /* \"#utility.yul\":800:1022   */\n    tag_19:\n        /* \"#utility.yul\":893:897   */\n      0x00\n        /* \"#utility.yul\":931:933   */\n      0x20\n        /* \"#utility.yul\":920:929   */\n      dup3\n        /* \"#utility.yul\":916:934   */\n      add\n        /* \"#utility.yul\":908:934   */\n      swap1\n      pop\n        /* \"#utility.yul\":944:1015   */\n      tag_71\n        /* \"#utility.yul\":1012:1013   */\n      0x00\n        /* \"#utility.yul\":1001:1010   */\n      dup4\n        /* \"#utility.yul\":997:1014   */\n      add\n        /* \"#utility.yul\":988:994   */\n      dup5\n        /* \"#utility.yul\":944:1015   */\n      tag_51\n      jump\t// in\n    tag_71:\n        /* \"#utility.yul\":800:1022   */\n      swap3\n      swap2\n      pop\n      pop\n      jump\t// out\n        /* \"#utility.yul\":1028:1127   */\n    tag_52:\n        /* \"#utility.yul\":1080:1086   */\n      0x00\n        /* \"#utility.yul\":1114:1119   */\n      dup2\n        /* \"#utility.yul\":1108:1120   */\n      mload\n        /* \"#utility.yul\":1098:1120   */\n      swap1\n      pop\n        /* \"#utility.yul\":1028:1127   */\n      swap2\n      swap1\n      pop\n      jump\t// out\n        /* \"#utility.yul\":1133:1302   */\n    tag_53:\n        /* \"#utility.yul\":1217:1228   */\n      0x00\n        /* \"#utility.yul\":1251:1257   */\n      dup3\n        /* \"#utility.yul\":1246:1249   */\n      dup3\n        /* \"#utility.yul\":1239:1258   */\n      mstore\n        /* \"#utility.yul\":1291:1295   */\n      0x20\n        /* \"#utility.yul\":1286:1289   */\n      dup3\n        /* \"#utility.yul\":1282:1296   */\n      add\n        /* \"#utility.yul\":1267:1296   */\n      swap1\n      pop\n        /* \"#utility.yul\":1133:1302   */\n      swap3\n      swap2\n      pop\n      pop\n      jump\t// out\n        /* \"#utility.yul\":1308:1554   */\n    tag_54:\n        /* \"#utility.yul\":1389:1390   */\n      0x00\n        /* \"#utility.yul\":1399:1512   */\n    tag_75:\n        /* \"#utility.yul\":1413:1419   */\n      dup4\n        /* \"#utility.yul\":1410:1411   */\n      dup2\n        /* \"#utility.yul\":1407:1420   */\n      lt\n        /* \"#utility.yul\":1399:1512   */\n      iszero\n      tag_77\n      jumpi\n        /* \"#utility.yul\":1498:1499   */\n      dup1\n        /* \"#utility.yul\":1493:1496   */\n      dup3\n        /* \"#utility.yul\":1489:1500   */\n      add\n        /* \"#utility.yul\":1483:1501   */\n      mload\n        /* \"#utility.yul\":1479:1480   */\n      dup2\n        /* \"#utility.yul\":1474:1477   */\n      dup5\n        /* \"#utility.yul\":1470:1481   */\n      add\n        /* \"#utility.yul\":1463:1502   */\n      mstore\n        /* \"#utility.yul\":1435:1437   */\n      0x20\n        /* \"#utility.yul\":1432:1433   */\n      dup2\n        /* \"#utility.yul\":1428:1438   */\n      add\n        /* \"#utility.yul\":1423:1438   */\n      swap1\n      pop\n        /* \"#utility.yul\":1399:1512   */\n      jump(tag_75)\n    tag_77:\n        /* \"#utility.yul\":1546:1547   */\n      0x00\n        /* \"#utility.yul\":1537:1543   */\n      dup5\n        /* \"#utility.yul\":1532:1535   */\n      dup5\n        /* \"#utility.yul\":1528:1544   */\n      add\n        /* \"#utility.yul\":1521:1548   */\n      mstore\n        /* \"#utility.yul\":1370:1554   */\n      pop\n        /* \"#utility.yul\":1308:1554   */\n      pop\n      pop\n      pop\n      jump\t// out\n        /* \"#utility.yul\":1560:1662   */\n    tag_55:\n        /* \"#utility.yul\":1601:1607   */\n      0x00\n        /* \"#utility.yul\":1652:1654   */\n      0x1f\n        /* \"#utility.yul\":1648:1655   */\n      not\n        /* \"#utility.yul\":1643:1645   */\n      0x1f\n        /* \"#utility.yul\":1636:1641   */\n      dup4\n        /* \"#utility.yul\":1632:1646   */\n      add\n        /* \"#utility.yul\":1628:1656   */\n      and\n        /* \"#utility.yul\":1618:1656   */\n      swap1\n      pop\n        /* \"#utility.yul\":1560:1662   */\n      swap2\n      swap1\n      pop\n      jump\t// out\n        /* \"#utility.yul\":1668:2045   */\n    tag_56:\n        /* \"#utility.yul\":1756:1759   */\n      0x00\n        /* \"#utility.yul\":1784:1823   */\n      tag_80\n        /* \"#utility.yul\":1817:1822   */\n      dup3\n        /* \"#utility.yul\":1784:1823   */\n      tag_52\n      jump\t// in\n    tag_80:\n        /* \"#utility.yul\":1839:1910   */\n      tag_81\n        /* \"#utility.yul\":1903:1909   */\n      dup2\n        /* \"#utility.yul\":1898:1901   */\n      dup6\n        /* \"#utility.yul\":1839:1910   */\n      tag_53\n      jump\t// in\n    tag_81:\n        /* \"#utility.yul\":1832:1910   */\n      swap4\n      pop\n        /* \"#utility.yul\":1919:1984   */\n      tag_82\n        /* \"#utility.yul\":1977:1983   */\n      dup2\n        /* \"#utility.yul\":1972:1975   */\n      dup6\n        /* \"#utility.yul\":1965:1969   */\n      0x20\n        /* \"#utility.yul\":1958:1963   */\n      dup7\n        /* \"#utility.yul\":1954:1970   */\n      add\n        /* \"#utility.yul\":1919:1984   */\n      tag_54\n      jump\t// in\n    tag_82:\n        /* \"#utility.yul\":2009:2038   */\n      tag_83\n        /* \"#utility.yul\":2031:2037   */\n      dup2\n        /* \"#utility.yul\":2009:2038   */\n      tag_55\n      jump\t// in\n    tag_83:\n        /* \"#utility.yul\":2004:2007   */\n      dup5\n        /* \"#utility.yul\":2000:2039   */\n      add\n        /* \"#utility.yul\":1993:2039   */\n      swap2\n      pop\n        /* \"#utility.yul\":1760:2045   */\n      pop\n        /* \"#utility.yul\":1668:2045   */\n      swap3\n      swap2\n      pop\n      pop\n      jump\t// out\n        /* \"#utility.yul\":2051:2364   */\n    tag_24:\n        /* \"#utility.yul\":2164:2168   */\n      0x00\n        /* \"#utility.yul\":2202:2204   */\n      0x20\n        /* \"#utility.yul\":2191:2200   */\n      dup3\n        /* \"#utility.yul\":2187:2205   */\n      add\n        /* \"#utility.yul\":2179:2205   */\n      swap1\n      pop\n        /* \"#utility.yul\":2251:2260   */\n      dup2\n        /* \"#utility.yul\":2245:2249   */\n      dup2\n        /* \"#utility.yul\":2241:2261   */\n      sub\n        /* \"#utility.yul\":2237:2238   */\n      0x00\n        /* \"#utility.yul\":2226:2235   */\n      dup4\n        /* \"#utility.yul\":2222:2239   */\n      add\n        /* \"#utility.yul\":2215:2262   */\n      mstore\n        /* \"#utility.yul\":2279:2357   */\n      tag_85\n        /* \"#utility.yul\":2352:2356   */\n      dup2\n        /* \"#utility.yul\":2343:2349   */\n      dup5\n        /* \"#utility.yul\":2279:2357   */\n      tag_56\n      jump\t// in\n    tag_85:\n        /* \"#utility.yul\":2271:2357   */\n      swap1\n      pop\n        /* \"#utility.yul\":2051:2364   */\n      swap3\n      swap2\n      pop\n      pop\n      jump\t// out\n        /* \"#utility.yul\":2370:2590   */\n    tag_57:\n        /* \"#utility.yul\":2510:2544   */\n      0x4f6e6c79206f776e65722063616e2063616c6c20746869732066756e6374696f\n        /* \"#utility.yul\":2506:2507   */\n      0x00\n        /* \"#utility.yul\":2498:2504   */\n      dup3\n        /* \"#utility.yul\":2494:2508   */\n      add\n        /* \"#utility.yul\":2487:2545   */\n      mstore\n        /* \"#utility.yul\":2579:2582   */\n      0x6e00000000000000000000000000000000000000000000000000000000000000\n        /* \"#utility.yul\":2574:2576   */\n      0x20\n        /* \"#utility.yul\":2566:2572   */\n      dup3\n        /* \"#utility.yul\":2562:2577   */\n      add\n        /* \"#utility.yul\":2555:2583   */\n      mstore\n        /* \"#utility.yul\":2370:2590   */\n      pop\n      jump\t// out\n        /* \"#utility.yul\":2596:2962   */\n    tag_58:\n        /* \"#utility.yul\":2738:2741   */\n      0x00\n        /* \"#utility.yul\":2759:2826   */\n      tag_88\n        /* \"#utility.yul\":2823:2825   */\n      0x21\n        /* \"#utility.yul\":2818:2821   */\n      dup4\n        /* \"#utility.yul\":2759:2826   */\n      tag_53\n      jump\t// in\n    tag_88:\n        /* \"#utility.yul\":2752:2826   */\n      swap2\n      pop\n        /* \"#utility.yul\":2835:2928   */\n      tag_89\n        /* \"#utility.yul\":2924:2927   */\n      dup3\n        /* \"#utility.yul\":2835:2928   */\n      tag_57\n      jump\t// in\n    tag_89:\n        /* \"#utility.yul\":2953:2955   */\n      0x40\n        /* \"#utility.yul\":2948:2951   */\n      dup3\n        /* \"#utility.yul\":2944:2956   */\n      add\n        /* \"#utility.yul\":2937:2956   */\n      swap1\n      pop\n        /* \"#utility.yul\":2596:2962   */\n      swap2\n      swap1\n      pop\n      jump\t// out\n        /* \"#utility.yul\":2968:3387   */\n    tag_30:\n        /* \"#utility.yul\":3134:3138   */\n      0x00\n        /* \"#utility.yul\":3172:3174   */\n      0x20\n        /* \"#utility.yul\":3161:3170   */\n      dup3\n        /* \"#utility.yul\":3157:3175   */\n      add\n        /* \"#utility.yul\":3149:3175   */\n      swap1\n      pop\n        /* \"#utility.yul\":3221:3230   */\n      dup2\n        /* \"#utility.yul\":3215:3219   */\n      dup2\n        /* \"#utility.yul\":3211:3231   */\n      sub\n        /* \"#utility.yul\":3207:3208   */\n      0x00\n        /* \"#utility.yul\":3196:3205   */\n      dup4\n        /* \"#utility.yul\":3192:3209   */\n      add\n        /* \"#utility.yul\":3185:3232   */\n      mstore\n        /* \"#utility.yul\":3249:3380   */\n      tag_91\n        /* \"#utility.yul\":3375:3379   */\n      dup2\n        /* \"#utility.yul\":3249:3380   */\n      tag_58\n      jump\t// in\n    tag_91:\n        /* \"#utility.yul\":3241:3380   */\n      swap1\n      pop\n        /* \"#utility.yul\":2968:3387   */\n      swap2\n      swap1\n      pop\n      jump\t// out\n\n    auxdata: 0xa2646970667358221220a23ced1596e74fa438917ea4d7d0f9c1ebd8697ce1b46c82969c6b1a6ac6b23e64736f6c63430008150033\n}\n",
				"bytecode": {
					"linkReferences": {},
					"object": "608060405234801561000f575f80fd5b50335f806101000a81548173ffffffffffffffffffffffffffffffffffffffff021916908373ffffffffffffffffffffffffffffffffffffffff1602179055506107848061005c5f395ff3fe608060405260043610610049575f3560e01c80633ccfd60b1461004d5780638da5cb5b14610063578063aa15efc81461008d578063d303e7b2146100b7578063ed88c68e146100e1575b5f80fd5b348015610058575f80fd5b506100616100eb565b005b34801561006e575f80fd5b50610077610236565b60405161008491906105cc565b60405180910390f35b348015610098575f80fd5b506100a1610259565b6040516100ae91906105fd565b60405180910390f35b3480156100c2575f80fd5b506100cb61029d565b6040516100d891906106a0565b60405180910390f35b6100e96104fb565b005b3373ffffffffffffffffffffffffffffffffffffffff165f8054906101000a900473ffffffffffffffffffffffffffffffffffffffff1673ffffffffffffffffffffffffffffffffffffffff1614610178576040517f08c379a000000000000000000000000000000000000000000000000000000000815260040161016f90610730565b60405180910390fd5b5f805f9054906101000a900473ffffffffffffffffffffffffffffffffffffffff1690505f4790508173ffffffffffffffffffffffffffffffffffffffff166108fc8290811502906040515f60405180830381858888f193505050501580156101e3573d5f803e3d5ffd5b508173ffffffffffffffffffffffffffffffffffffffff167f884edad9ce6fa2440d8a54cc123490eb96d2768479d49ff9c7366125a94243648260405161022a91906105fd565b60405180910390a25050565b5f8054906101000a900473ffffffffffffffffffffffffffffffffffffffff1681565b5f60015f3373ffffffffffffffffffffffffffffffffffffffff1673ffffffffffffffffffffffffffffffffffffffff1681526020019081526020015f2054905090565b6060678ac7230489e8000060015f3373ffffffffffffffffffffffffffffffffffffffff1673ffffffffffffffffffffffffffffffffffffffff1681526020019081526020015f20541115610329576040518060400160405280600281526020017f555200000000000000000000000000000000000000000000000000000000000081525090506104f8565b674563918244f4000060015f3373ffffffffffffffffffffffffffffffffffffffff1673ffffffffffffffffffffffffffffffffffffffff1681526020019081526020015f205411156103b3576040518060400160405280600281526020017f535200000000000000000000000000000000000000000000000000000000000081525090506104f8565b670de0b6b3a764000060015f3373ffffffffffffffffffffffffffffffffffffffff1673ffffffffffffffffffffffffffffffffffffffff1681526020019081526020015f2054111561043d576040518060400160405280600181526020017f520000000000000000000000000000000000000000000000000000000000000081525090506104f8565b5f60015f3373ffffffffffffffffffffffffffffffffffffffff1673ffffffffffffffffffffffffffffffffffffffff1681526020019081526020015f205411156104bf576040518060400160405280600181526020017f4e0000000000000000000000000000000000000000000000000000000000000081525090506104f8565b6040518060400160405280600481526020017f4e6f6e650000000000000000000000000000000000000000000000000000000081525090505b90565b3460015f3373ffffffffffffffffffffffffffffffffffffffff1673ffffffffffffffffffffffffffffffffffffffff1681526020019081526020015f20819055503373ffffffffffffffffffffffffffffffffffffffff167f0553260a2e46b0577270d8992db02d30856ca880144c72d6e9503760946aef133460405161058391906105fd565b60405180910390a2565b5f73ffffffffffffffffffffffffffffffffffffffff82169050919050565b5f6105b68261058d565b9050919050565b6105c6816105ac565b82525050565b5f6020820190506105df5f8301846105bd565b92915050565b5f819050919050565b6105f7816105e5565b82525050565b5f6020820190506106105f8301846105ee565b92915050565b5f81519050919050565b5f82825260208201905092915050565b5f5b8381101561064d578082015181840152602081019050610632565b5f8484015250505050565b5f601f19601f8301169050919050565b5f61067282610616565b61067c8185610620565b935061068c818560208601610630565b61069581610658565b840191505092915050565b5f6020820190508181035f8301526106b88184610668565b905092915050565b7f4f6e6c79206f776e65722063616e2063616c6c20746869732066756e6374696f5f8201527f6e00000000000000000000000000000000000000000000000000000000000000602082015250565b5f61071a602183610620565b9150610725826106c0565b604082019050919050565b5f6020820190508181035f8301526107478161070e565b905091905056fea2646970667358221220a23ced1596e74fa438917ea4d7d0f9c1ebd8697ce1b46c82969c6b1a6ac6b23e64736f6c63430008150033",
					"opcodes": "PUSH1 0x80 PUSH1 0x40 MSTORE CALLVALUE DUP1 ISZERO PUSH2 0xF JUMPI PUSH0 DUP1 REVERT JUMPDEST POP CALLER PUSH0 DUP1 PUSH2 0x100 EXP DUP2 SLOAD DUP2 PUSH20 0xFFFFFFFFFFFFFFFFFFFFFFFFFFFFFFFFFFFFFFFF MUL NOT AND SWAP1 DUP4 PUSH20 0xFFFFFFFFFFFFFFFFFFFFFFFFFFFFFFFFFFFFFFFF AND MUL OR SWAP1 SSTORE POP PUSH2 0x784 DUP1 PUSH2 0x5C PUSH0 CODECOPY PUSH0 RETURN INVALID PUSH1 0x80 PUSH1 0x40 MSTORE PUSH1 0x4 CALLDATASIZE LT PUSH2 0x49 JUMPI PUSH0 CALLDATALOAD PUSH1 0xE0 SHR DUP1 PUSH4 0x3CCFD60B EQ PUSH2 0x4D JUMPI DUP1 PUSH4 0x8DA5CB5B EQ PUSH2 0x63 JUMPI DUP1 PUSH4 0xAA15EFC8 EQ PUSH2 0x8D JUMPI DUP1 PUSH4 0xD303E7B2 EQ PUSH2 0xB7 JUMPI DUP1 PUSH4 0xED88C68E EQ PUSH2 0xE1 JUMPI JUMPDEST PUSH0 DUP1 REVERT JUMPDEST CALLVALUE DUP1 ISZERO PUSH2 0x58 JUMPI PUSH0 DUP1 REVERT JUMPDEST POP PUSH2 0x61 PUSH2 0xEB JUMP JUMPDEST STOP JUMPDEST CALLVALUE DUP1 ISZERO PUSH2 0x6E JUMPI PUSH0 DUP1 REVERT JUMPDEST POP PUSH2 0x77 PUSH2 0x236 JUMP JUMPDEST PUSH1 0x40 MLOAD PUSH2 0x84 SWAP2 SWAP1 PUSH2 0x5CC JUMP JUMPDEST PUSH1 0x40 MLOAD DUP1 SWAP2 SUB SWAP1 RETURN JUMPDEST CALLVALUE DUP1 ISZERO PUSH2 0x98 JUMPI PUSH0 DUP1 REVERT JUMPDEST POP PUSH2 0xA1 PUSH2 0x259 JUMP JUMPDEST PUSH1 0x40 MLOAD PUSH2 0xAE SWAP2 SWAP1 PUSH2 0x5FD JUMP JUMPDEST PUSH1 0x40 MLOAD DUP1 SWAP2 SUB SWAP1 RETURN JUMPDEST CALLVALUE DUP1 ISZERO PUSH2 0xC2 JUMPI PUSH0 DUP1 REVERT JUMPDEST POP PUSH2 0xCB PUSH2 0x29D JUMP JUMPDEST PUSH1 0x40 MLOAD PUSH2 0xD8 SWAP2 SWAP1 PUSH2 0x6A0 JUMP JUMPDEST PUSH1 0x40 MLOAD DUP1 SWAP2 SUB SWAP1 RETURN JUMPDEST PUSH2 0xE9 PUSH2 0x4FB JUMP JUMPDEST STOP JUMPDEST CALLER PUSH20 0xFFFFFFFFFFFFFFFFFFFFFFFFFFFFFFFFFFFFFFFF AND PUSH0 DUP1 SLOAD SWAP1 PUSH2 0x100 EXP SWAP1 DIV PUSH20 0xFFFFFFFFFFFFFFFFFFFFFFFFFFFFFFFFFFFFFFFF AND PUSH20 0xFFFFFFFFFFFFFFFFFFFFFFFFFFFFFFFFFFFFFFFF AND EQ PUSH2 0x178 JUMPI PUSH1 0x40 MLOAD PUSH32 0x8C379A000000000000000000000000000000000000000000000000000000000 DUP2 MSTORE PUSH1 0x4 ADD PUSH2 0x16F SWAP1 PUSH2 0x730 JUMP JUMPDEST PUSH1 0x40 MLOAD DUP1 SWAP2 SUB SWAP1 REVERT JUMPDEST PUSH0 DUP1 PUSH0 SWAP1 SLOAD SWAP1 PUSH2 0x100 EXP SWAP1 DIV PUSH20 0xFFFFFFFFFFFFFFFFFFFFFFFFFFFFFFFFFFFFFFFF AND SWAP1 POP PUSH0 SELFBALANCE SWAP1 POP DUP2 PUSH20 0xFFFFFFFFFFFFFFFFFFFFFFFFFFFFFFFFFFFFFFFF AND PUSH2 0x8FC DUP3 SWAP1 DUP2 ISZERO MUL SWAP1 PUSH1 0x40 MLOAD PUSH0 PUSH1 0x40 MLOAD DUP1 DUP4 SUB DUP2 DUP6 DUP9 DUP9 CALL SWAP4 POP POP POP POP ISZERO DUP1 ISZERO PUSH2 0x1E3 JUMPI RETURNDATASIZE PUSH0 DUP1 RETURNDATACOPY RETURNDATASIZE PUSH0 REVERT JUMPDEST POP DUP2 PUSH20 0xFFFFFFFFFFFFFFFFFFFFFFFFFFFFFFFFFFFFFFFF AND PUSH32 0x884EDAD9CE6FA2440D8A54CC123490EB96D2768479D49FF9C7366125A9424364 DUP3 PUSH1 0x40 MLOAD PUSH2 0x22A SWAP2 SWAP1 PUSH2 0x5FD JUMP JUMPDEST PUSH1 0x40 MLOAD DUP1 SWAP2 SUB SWAP1 LOG2 POP POP JUMP JUMPDEST PUSH0 DUP1 SLOAD SWAP1 PUSH2 0x100 EXP SWAP1 DIV PUSH20 0xFFFFFFFFFFFFFFFFFFFFFFFFFFFFFFFFFFFFFFFF AND DUP2 JUMP JUMPDEST PUSH0 PUSH1 0x1 PUSH0 CALLER PUSH20 0xFFFFFFFFFFFFFFFFFFFFFFFFFFFFFFFFFFFFFFFF AND PUSH20 0xFFFFFFFFFFFFFFFFFFFFFFFFFFFFFFFFFFFFFFFF AND DUP2 MSTORE PUSH1 0x20 ADD SWAP1 DUP2 MSTORE PUSH1 0x20 ADD PUSH0 KECCAK256 SLOAD SWAP1 POP SWAP1 JUMP JUMPDEST PUSH1 0x60 PUSH8 0x8AC7230489E80000 PUSH1 0x1 PUSH0 CALLER PUSH20 0xFFFFFFFFFFFFFFFFFFFFFFFFFFFFFFFFFFFFFFFF AND PUSH20 0xFFFFFFFFFFFFFFFFFFFFFFFFFFFFFFFFFFFFFFFF AND DUP2 MSTORE PUSH1 0x20 ADD SWAP1 DUP2 MSTORE PUSH1 0x20 ADD PUSH0 KECCAK256 SLOAD GT ISZERO PUSH2 0x329 JUMPI PUSH1 0x40 MLOAD DUP1 PUSH1 0x40 ADD PUSH1 0x40 MSTORE DUP1 PUSH1 0x2 DUP2 MSTORE PUSH1 0x20 ADD PUSH32 0x5552000000000000000000000000000000000000000000000000000000000000 DUP2 MSTORE POP SWAP1 POP PUSH2 0x4F8 JUMP JUMPDEST PUSH8 0x4563918244F40000 PUSH1 0x1 PUSH0 CALLER PUSH20 0xFFFFFFFFFFFFFFFFFFFFFFFFFFFFFFFFFFFFFFFF AND PUSH20 0xFFFFFFFFFFFFFFFFFFFFFFFFFFFFFFFFFFFFFFFF AND DUP2 MSTORE PUSH1 0x20 ADD SWAP1 DUP2 MSTORE PUSH1 0x20 ADD PUSH0 KECCAK256 SLOAD GT ISZERO PUSH2 0x3B3 JUMPI PUSH1 0x40 MLOAD DUP1 PUSH1 0x40 ADD PUSH1 0x40 MSTORE DUP1 PUSH1 0x2 DUP2 MSTORE PUSH1 0x20 ADD PUSH32 0x5352000000000000000000000000000000000000000000000000000000000000 DUP2 MSTORE POP SWAP1 POP PUSH2 0x4F8 JUMP JUMPDEST PUSH8 0xDE0B6B3A7640000 PUSH1 0x1 PUSH0 CALLER PUSH20 0xFFFFFFFFFFFFFFFFFFFFFFFFFFFFFFFFFFFFFFFF AND PUSH20 0xFFFFFFFFFFFFFFFFFFFFFFFFFFFFFFFFFFFFFFFF AND DUP2 MSTORE PUSH1 0x20 ADD SWAP1 DUP2 MSTORE PUSH1 0x20 ADD PUSH0 KECCAK256 SLOAD GT ISZERO PUSH2 0x43D JUMPI PUSH1 0x40 MLOAD DUP1 PUSH1 0x40 ADD PUSH1 0x40 MSTORE DUP1 PUSH1 0x1 DUP2 MSTORE PUSH1 0x20 ADD PUSH32 0x5200000000000000000000000000000000000000000000000000000000000000 DUP2 MSTORE POP SWAP1 POP PUSH2 0x4F8 JUMP JUMPDEST PUSH0 PUSH1 0x1 PUSH0 CALLER PUSH20 0xFFFFFFFFFFFFFFFFFFFFFFFFFFFFFFFFFFFFFFFF AND PUSH20 0xFFFFFFFFFFFFFFFFFFFFFFFFFFFFFFFFFFFFFFFF AND DUP2 MSTORE PUSH1 0x20 ADD SWAP1 DUP2 MSTORE PUSH1 0x20 ADD PUSH0 KECCAK256 SLOAD GT ISZERO PUSH2 0x4BF JUMPI PUSH1 0x40 MLOAD DUP1 PUSH1 0x40 ADD PUSH1 0x40 MSTORE DUP1 PUSH1 0x1 DUP2 MSTORE PUSH1 0x20 ADD PUSH32 0x4E00000000000000000000000000000000000000000000000000000000000000 DUP2 MSTORE POP SWAP1 POP PUSH2 0x4F8 JUMP JUMPDEST PUSH1 0x40 MLOAD DUP1 PUSH1 0x40 ADD PUSH1 0x40 MSTORE DUP1 PUSH1 0x4 DUP2 MSTORE PUSH1 0x20 ADD PUSH32 0x4E6F6E6500000000000000000000000000000000000000000000000000000000 DUP2 MSTORE POP SWAP1 POP JUMPDEST SWAP1 JUMP JUMPDEST CALLVALUE PUSH1 0x1 PUSH0 CALLER PUSH20 0xFFFFFFFFFFFFFFFFFFFFFFFFFFFFFFFFFFFFFFFF AND PUSH20 0xFFFFFFFFFFFFFFFFFFFFFFFFFFFFFFFFFFFFFFFF AND DUP2 MSTORE PUSH1 0x20 ADD SWAP1 DUP2 MSTORE PUSH1 0x20 ADD PUSH0 KECCAK256 DUP2 SWAP1 SSTORE POP CALLER PUSH20 0xFFFFFFFFFFFFFFFFFFFFFFFFFFFFFFFFFFFFFFFF AND PUSH32 0x553260A2E46B0577270D8992DB02D30856CA880144C72D6E9503760946AEF13 CALLVALUE PUSH1 0x40 MLOAD PUSH2 0x583 SWAP2 SWAP1 PUSH2 0x5FD JUMP JUMPDEST PUSH1 0x40 MLOAD DUP1 SWAP2 SUB SWAP1 LOG2 JUMP JUMPDEST PUSH0 PUSH20 0xFFFFFFFFFFFFFFFFFFFFFFFFFFFFFFFFFFFFFFFF DUP3 AND SWAP1 POP SWAP2 SWAP1 POP JUMP JUMPDEST PUSH0 PUSH2 0x5B6 DUP3 PUSH2 0x58D JUMP JUMPDEST SWAP1 POP SWAP2 SWAP1 POP JUMP JUMPDEST PUSH2 0x5C6 DUP2 PUSH2 0x5AC JUMP JUMPDEST DUP3 MSTORE POP POP JUMP JUMPDEST PUSH0 PUSH1 0x20 DUP3 ADD SWAP1 POP PUSH2 0x5DF PUSH0 DUP4 ADD DUP5 PUSH2 0x5BD JUMP JUMPDEST SWAP3 SWAP2 POP POP JUMP JUMPDEST PUSH0 DUP2 SWAP1 POP SWAP2 SWAP1 POP JUMP JUMPDEST PUSH2 0x5F7 DUP2 PUSH2 0x5E5 JUMP JUMPDEST DUP3 MSTORE POP POP JUMP JUMPDEST PUSH0 PUSH1 0x20 DUP3 ADD SWAP1 POP PUSH2 0x610 PUSH0 DUP4 ADD DUP5 PUSH2 0x5EE JUMP JUMPDEST SWAP3 SWAP2 POP POP JUMP JUMPDEST PUSH0 DUP2 MLOAD SWAP1 POP SWAP2 SWAP1 POP JUMP JUMPDEST PUSH0 DUP3 DUP3 MSTORE PUSH1 0x20 DUP3 ADD SWAP1 POP SWAP3 SWAP2 POP POP JUMP JUMPDEST PUSH0 JUMPDEST DUP4 DUP2 LT ISZERO PUSH2 0x64D JUMPI DUP1 DUP3 ADD MLOAD DUP2 DUP5 ADD MSTORE PUSH1 0x20 DUP2 ADD SWAP1 POP PUSH2 0x632 JUMP JUMPDEST PUSH0 DUP5 DUP5 ADD MSTORE POP POP POP POP JUMP JUMPDEST PUSH0 PUSH1 0x1F NOT PUSH1 0x1F DUP4 ADD AND SWAP1 POP SWAP2 SWAP1 POP JUMP JUMPDEST PUSH0 PUSH2 0x672 DUP3 PUSH2 0x616 JUMP JUMPDEST PUSH2 0x67C DUP2 DUP6 PUSH2 0x620 JUMP JUMPDEST SWAP4 POP PUSH2 0x68C DUP2 DUP6 PUSH1 0x20 DUP7 ADD PUSH2 0x630 JUMP JUMPDEST PUSH2 0x695 DUP2 PUSH2 0x658 JUMP JUMPDEST DUP5 ADD SWAP2 POP POP SWAP3 SWAP2 POP POP JUMP JUMPDEST PUSH0 PUSH1 0x20 DUP3 ADD SWAP1 POP DUP2 DUP2 SUB PUSH0 DUP4 ADD MSTORE PUSH2 0x6B8 DUP2 DUP5 PUSH2 0x668 JUMP JUMPDEST SWAP1 POP SWAP3 SWAP2 POP POP JUMP JUMPDEST PUSH32 0x4F6E6C79206F776E65722063616E2063616C6C20746869732066756E6374696F PUSH0 DUP3 ADD MSTORE PUSH32 0x6E00000000000000000000000000000000000000000000000000000000000000 PUSH1 0x20 DUP3 ADD MSTORE POP JUMP JUMPDEST PUSH0 PUSH2 0x71A PUSH1 0x21 DUP4 PUSH2 0x620 JUMP JUMPDEST SWAP2 POP PUSH2 0x725 DUP3 PUSH2 0x6C0 JUMP JUMPDEST PUSH1 0x40 DUP3 ADD SWAP1 POP SWAP2 SWAP1 POP JUMP JUMPDEST PUSH0 PUSH1 0x20 DUP3 ADD SWAP1 POP DUP2 DUP2 SUB PUSH0 DUP4 ADD MSTORE PUSH2 0x747 DUP2 PUSH2 0x70E JUMP JUMPDEST SWAP1 POP SWAP2 SWAP1 POP JUMP INVALID LOG2 PUSH5 0x6970667358 0x22 SLT KECCAK256 LOG2 EXTCODECOPY 0xED ISZERO SWAP7 0xE7 0x4F LOG4 CODESIZE SWAP2 PUSH31 0xA4D7D0F9C1EBD8697CE1B46C82969C6B1A6AC6B23E64736F6C634300081500 CALLER "
				},
				"gasEstimates": {
					"creation": {
						"codeDepositCost": "384800",
						"executionCost": "24687",
						"totalCost": "409487"
					},
					"external": {
						"donate()": "23955",
						"getHistory()": "2541",
						"getRank()": "infinite",
						"owner()": "2505",
						"withdraw()": "infinite"
					}
				},
				"methodIdentifiers": {
					"donate()": "ed88c68e",
					"getHistory()": "aa15efc8",
					"getRank()": "d303e7b2",
					"owner()": "8da5cb5b",
					"withdraw()": "3ccfd60b"
				}
			},
			"storageLayout": {
				"storage": [
					{
						"astId": 3,
						"contract": ".deps/remix-tests/contract.sol:Donation",
						"label": "owner",
						"offset": 0,
						"slot": "0",
						"type": "t_address"
					},
					{
						"astId": 7,
						"contract": ".deps/remix-tests/contract.sol:Donation",
						"label": "donationList",
						"offset": 0,
						"slot": "1",
						"type": "t_mapping(t_address,t_uint256)"
					}
				],
				"types": {
					"t_address": {
						"encoding": "inplace",
						"label": "address",
						"numberOfBytes": "20"
					},
					"t_mapping(t_address,t_uint256)": {
						"encoding": "mapping",
						"key": "t_address",
						"label": "mapping(address => uint256)",
						"numberOfBytes": "32",
						"value": "t_uint256"
					},
					"t_uint256": {
						"encoding": "inplace",
						"label": "uint256",
						"numberOfBytes": "32"
					}
				}
			},
			"userdoc": {
				"kind": "user",
				"methods": {},
				"version": 1
			}
		}
	}
}