{
	".deps/remix-tests/Inheritance.sol": {
		"Yeye": {
			"abi": [
				{
					"anonymous": false,
					"inputs": [
						{
							"indexed": false,
							"internalType": "string",
							"name": "msg",
							"type": "string"
						}
					],
					"name": "Log",
					"type": "event"
				},
				{
					"inputs": [],
					"name": "hip",
					"outputs": [],
					"stateMutability": "nonpayable",
					"type": "function"
				},
				{
					"inputs": [],
					"name": "pop",
					"outputs": [],
					"stateMutability": "nonpayable",
					"type": "function"
				},
				{
					"inputs": [],
					"name": "yeye",
					"outputs": [],
					"stateMutability": "nonpayable",
					"type": "function"
				}
			],
			"devdoc": {
				"kind": "dev",
				"methods": {},
				"version": 1
			},
			"evm": {
				"assembly": "    /* \".deps/remix-tests/Inheritance.sol\":77:341  contract Yeye {... */\n  mstore(0x40, 0x80)\n  callvalue\n  dup1\n  iszero\n  tag_1\n  jumpi\n  0x00\n  dup1\n  revert\ntag_1:\n  pop\n  dataSize(sub_0)\n  dup1\n  dataOffset(sub_0)\n  0x00\n  codecopy\n  0x00\n  return\nstop\n\nsub_0: assembly {\n        /* \".deps/remix-tests/Inheritance.sol\":77:341  contract Yeye {... */\n      mstore(0x40, 0x80)\n      callvalue\n      dup1\n      iszero\n      tag_1\n      jumpi\n      0x00\n      dup1\n      revert\n    tag_1:\n      pop\n      jumpi(tag_2, lt(calldatasize, 0x04))\n      shr(0xe0, calldataload(0x00))\n      dup1\n      0x0ca21e9c\n      eq\n      tag_3\n      jumpi\n      dup1\n      0x370ea142\n      eq\n      tag_4\n      jumpi\n      dup1\n      0xa4ece52c\n      eq\n      tag_5\n      jumpi\n    tag_2:\n      0x00\n      dup1\n      revert\n        /* \".deps/remix-tests/Inheritance.sol\":272:338  function yeye() public virtual {... */\n    tag_3:\n      tag_6\n      tag_7\n      jump\t// in\n    tag_6:\n      stop\n        /* \".deps/remix-tests/Inheritance.sol\":128:192  function hip() public virtual{... */\n    tag_4:\n      tag_8\n      tag_9\n      jump\t// in\n    tag_8:\n      stop\n        /* \".deps/remix-tests/Inheritance.sol\":200:264  function pop() public virtual{... */\n    tag_5:\n      tag_10\n      tag_11\n      jump\t// in\n    tag_10:\n      stop\n        /* \".deps/remix-tests/Inheritance.sol\":272:338  function yeye() public virtual {... */\n    tag_7:\n        /* \".deps/remix-tests/Inheritance.sol\":319:330  Log(\"Yeye\") */\n      0xcf34ef537ac33ee1ac626ca1587a0a7e8e51561e5514f8cb36afa1c5102b3bab\n      mload(0x40)\n      tag_13\n      swap1\n      tag_14\n      jump\t// in\n    tag_13:\n      mload(0x40)\n      dup1\n      swap2\n      sub\n      swap1\n      log1\n        /* \".deps/remix-tests/Inheritance.sol\":272:338  function yeye() public virtual {... */\n      jump\t// out\n        /* \".deps/remix-tests/Inheritance.sol\":128:192  function hip() public virtual{... */\n    tag_9:\n        /* \".deps/remix-tests/Inheritance.sol\":173:184  Log(\"Yeye\") */\n      0xcf34ef537ac33ee1ac626ca1587a0a7e8e51561e5514f8cb36afa1c5102b3bab\n      mload(0x40)\n      tag_16\n      swap1\n      tag_14\n      jump\t// in\n    tag_16:\n      mload(0x40)\n      dup1\n      swap2\n      sub\n      swap1\n      log1\n        /* \".deps/remix-tests/Inheritance.sol\":128:192  function hip() public virtual{... */\n      jump\t// out\n        /* \".deps/remix-tests/Inheritance.sol\":200:264  function pop() public virtual{... */\n    tag_11:\n        /* \".deps/remix-tests/Inheritance.sol\":245:256  Log(\"Yeye\") */\n      0xcf34ef537ac33ee1ac626ca1587a0a7e8e51561e5514f8cb36afa1c5102b3bab\n      mload(0x40)\n      tag_18\n      swap1\n      tag_14\n      jump\t// in\n    tag_18:\n      mload(0x40)\n      dup1\n      swap2\n      sub\n      swap1\n      log1\n        /* \".deps/remix-tests/Inheritance.sol\":200:264  function pop() public virtual{... */\n      jump\t// out\n        /* \"#utility.yul\":7:176   */\n    tag_19:\n        /* \"#utility.yul\":91:102   */\n      0x00\n        /* \"#utility.yul\":125:131   */\n      dup3\n        /* \"#utility.yul\":120:123   */\n      dup3\n        /* \"#utility.yul\":113:132   */\n      mstore\n        /* \"#utility.yul\":165:169   */\n      0x20\n        /* \"#utility.yul\":160:163   */\n      dup3\n        /* \"#utility.yul\":156:170   */\n      add\n        /* \"#utility.yul\":141:170   */\n      swap1\n      pop\n        /* \"#utility.yul\":7:176   */\n      swap3\n      swap2\n      pop\n      pop\n      jump\t// out\n        /* \"#utility.yul\":182:336   */\n    tag_20:\n        /* \"#utility.yul\":322:328   */\n      0x5965796500000000000000000000000000000000000000000000000000000000\n        /* \"#utility.yul\":318:319   */\n      0x00\n        /* \"#utility.yul\":310:316   */\n      dup3\n        /* \"#utility.yul\":306:320   */\n      add\n        /* \"#utility.yul\":299:329   */\n      mstore\n        /* \"#utility.yul\":182:336   */\n      pop\n      jump\t// out\n        /* \"#utility.yul\":342:707   */\n    tag_21:\n        /* \"#utility.yul\":484:487   */\n      0x00\n        /* \"#utility.yul\":505:571   */\n      tag_26\n        /* \"#utility.yul\":569:570   */\n      0x04\n        /* \"#utility.yul\":564:567   */\n      dup4\n        /* \"#utility.yul\":505:571   */\n      tag_19\n      jump\t// in\n    tag_26:\n        /* \"#utility.yul\":498:571   */\n      swap2\n      pop\n        /* \"#utility.yul\":580:673   */\n      tag_27\n        /* \"#utility.yul\":669:672   */\n      dup3\n        /* \"#utility.yul\":580:673   */\n      tag_20\n      jump\t// in\n    tag_27:\n        /* \"#utility.yul\":698:700   */\n      0x20\n        /* \"#utility.yul\":693:696   */\n      dup3\n        /* \"#utility.yul\":689:701   */\n      add\n        /* \"#utility.yul\":682:701   */\n      swap1\n      pop\n        /* \"#utility.yul\":342:707   */\n      swap2\n      swap1\n      pop\n      jump\t// out\n        /* \"#utility.yul\":713:1132   */\n    tag_14:\n        /* \"#utility.yul\":879:883   */\n      0x00\n        /* \"#utility.yul\":917:919   */\n      0x20\n        /* \"#utility.yul\":906:915   */\n      dup3\n        /* \"#utility.yul\":902:920   */\n      add\n        /* \"#utility.yul\":894:920   */\n      swap1\n      pop\n        /* \"#utility.yul\":966:975   */\n      dup2\n        /* \"#utility.yul\":960:964   */\n      dup2\n        /* \"#utility.yul\":956:976   */\n      sub\n        /* \"#utility.yul\":952:953   */\n      0x00\n        /* \"#utility.yul\":941:950   */\n      dup4\n        /* \"#utility.yul\":937:954   */\n      add\n        /* \"#utility.yul\":930:977   */\n      mstore\n        /* \"#utility.yul\":994:1125   */\n      tag_29\n        /* \"#utility.yul\":1120:1124   */\n      dup2\n        /* \"#utility.yul\":994:1125   */\n      tag_21\n      jump\t// in\n    tag_29:\n        /* \"#utility.yul\":986:1125   */\n      swap1\n      pop\n        /* \"#utility.yul\":713:1132   */\n      swap2\n      swap1\n      pop\n      jump\t// out\n\n    auxdata: 0xa26469706673582212206b74fe4e76160644c12bbb7250356be2b53001a3816b4262a33868201989f88a64736f6c63430008150033\n}\n",
				"bytecode": {
					"linkReferences": {},
					"object": "608060405234801561000f575f80fd5b506101b48061001d5f395ff3fe608060405234801561000f575f80fd5b506004361061003f575f3560e01c80630ca21e9c14610043578063370ea1421461004d578063a4ece52c14610057575b5f80fd5b61004b610061565b005b610055610098565b005b61005f6100cf565b005b7fcf34ef537ac33ee1ac626ca1587a0a7e8e51561e5514f8cb36afa1c5102b3bab60405161008e90610160565b60405180910390a1565b7fcf34ef537ac33ee1ac626ca1587a0a7e8e51561e5514f8cb36afa1c5102b3bab6040516100c590610160565b60405180910390a1565b7fcf34ef537ac33ee1ac626ca1587a0a7e8e51561e5514f8cb36afa1c5102b3bab6040516100fc90610160565b60405180910390a1565b5f82825260208201905092915050565b7f59657965000000000000000000000000000000000000000000000000000000005f82015250565b5f61014a600483610106565b915061015582610116565b602082019050919050565b5f6020820190508181035f8301526101778161013e565b905091905056fea26469706673582212206b74fe4e76160644c12bbb7250356be2b53001a3816b4262a33868201989f88a64736f6c63430008150033",
					"opcodes": "PUSH1 0x80 PUSH1 0x40 MSTORE CALLVALUE DUP1 ISZERO PUSH2 0xF JUMPI PUSH0 DUP1 REVERT JUMPDEST POP PUSH2 0x1B4 DUP1 PUSH2 0x1D PUSH0 CODECOPY PUSH0 RETURN INVALID PUSH1 0x80 PUSH1 0x40 MSTORE CALLVALUE DUP1 ISZERO PUSH2 0xF JUMPI PUSH0 DUP1 REVERT JUMPDEST POP PUSH1 0x4 CALLDATASIZE LT PUSH2 0x3F JUMPI PUSH0 CALLDATALOAD PUSH1 0xE0 SHR DUP1 PUSH4 0xCA21E9C EQ PUSH2 0x43 JUMPI DUP1 PUSH4 0x370EA142 EQ PUSH2 0x4D JUMPI DUP1 PUSH4 0xA4ECE52C EQ PUSH2 0x57 JUMPI JUMPDEST PUSH0 DUP1 REVERT JUMPDEST PUSH2 0x4B PUSH2 0x61 JUMP JUMPDEST STOP JUMPDEST PUSH2 0x55 PUSH2 0x98 JUMP JUMPDEST STOP JUMPDEST PUSH2 0x5F PUSH2 0xCF JUMP JUMPDEST STOP JUMPDEST PUSH32 0xCF34EF537AC33EE1AC626CA1587A0A7E8E51561E5514F8CB36AFA1C5102B3BAB PUSH1 0x40 MLOAD PUSH2 0x8E SWAP1 PUSH2 0x160 JUMP JUMPDEST PUSH1 0x40 MLOAD DUP1 SWAP2 SUB SWAP1 LOG1 JUMP JUMPDEST PUSH32 0xCF34EF537AC33EE1AC626CA1587A0A7E8E51561E5514F8CB36AFA1C5102B3BAB PUSH1 0x40 MLOAD PUSH2 0xC5 SWAP1 PUSH2 0x160 JUMP JUMPDEST PUSH1 0x40 MLOAD DUP1 SWAP2 SUB SWAP1 LOG1 JUMP JUMPDEST PUSH32 0xCF34EF537AC33EE1AC626CA1587A0A7E8E51561E5514F8CB36AFA1C5102B3BAB PUSH1 0x40 MLOAD PUSH2 0xFC SWAP1 PUSH2 0x160 JUMP JUMPDEST PUSH1 0x40 MLOAD DUP1 SWAP2 SUB SWAP1 LOG1 JUMP JUMPDEST PUSH0 DUP3 DUP3 MSTORE PUSH1 0x20 DUP3 ADD SWAP1 POP SWAP3 SWAP2 POP POP JUMP JUMPDEST PUSH32 0x5965796500000000000000000000000000000000000000000000000000000000 PUSH0 DUP3 ADD MSTORE POP JUMP JUMPDEST PUSH0 PUSH2 0x14A PUSH1 0x4 DUP4 PUSH2 0x106 JUMP JUMPDEST SWAP2 POP PUSH2 0x155 DUP3 PUSH2 0x116 JUMP JUMPDEST PUSH1 0x20 DUP3 ADD SWAP1 POP SWAP2 SWAP1 POP JUMP JUMPDEST PUSH0 PUSH1 0x20 DUP3 ADD SWAP1 POP DUP2 DUP2 SUB PUSH0 DUP4 ADD MSTORE PUSH2 0x177 DUP2 PUSH2 0x13E JUMP JUMPDEST SWAP1 POP SWAP2 SWAP1 POP JUMP INVALID LOG2 PUSH5 0x6970667358 0x22 SLT KECCAK256 PUSH12 0x74FE4E76160644C12BBB7250 CALLDATALOAD PUSH12 0xE2B53001A3816B4262A33868 KECCAK256 NOT DUP10 0xF8 DUP11 PUSH5 0x736F6C6343 STOP ADDMOD ISZERO STOP CALLER "
				},
				"gasEstimates": {
					"creation": {
						"codeDepositCost": "87200",
						"executionCost": "133",
						"totalCost": "87333"
					},
					"external": {
						"hip()": "1940",
						"pop()": "1962",
						"yeye()": "1918"
					}
				},
				"methodIdentifiers": {
					"hip()": "370ea142",
					"pop()": "a4ece52c",
					"yeye()": "0ca21e9c"
				}
			},
			"storageLayout": {
				"storage": [],
				"types": null
			},
			"userdoc": {
				"kind": "user",
				"methods": {},
				"version": 1
			}
		}
	}
}