{
	".deps/remix-tests/Timelock.sol": {
		"Timelock": {
			"abi": [
				{
					"inputs": [
						{
							"internalType": "uint256",
							"name": "delay_",
							"type": "uint256"
						}
					],
					"stateMutability": "nonpayable",
					"type": "constructor"
				},
				{
					"anonymous": false,
					"inputs": [
						{
							"indexed": true,
							"internalType": "bytes32",
							"name": "txHash",
							"type": "bytes32"
						},
						{
							"indexed": true,
							"internalType": "address",
							"name": "target",
							"type": "address"
						},
						{
							"indexed": false,
							"internalType": "uint256",
							"name": "value",
							"type": "uint256"
						},
						{
							"indexed": false,
							"internalType": "string",
							"name": "signature",
							"type": "string"
						},
						{
							"indexed": false,
							"internalType": "bytes",
							"name": "data",
							"type": "bytes"
						},
						{
							"indexed": false,
							"internalType": "uint256",
							"name": "executeTime",
							"type": "uint256"
						}
					],
					"name": "CancelTransaction",
					"type": "event"
				},
				{
					"anonymous": false,
					"inputs": [
						{
							"indexed": true,
							"internalType": "bytes32",
							"name": "txHash",
							"type": "bytes32"
						},
						{
							"indexed": true,
							"internalType": "address",
							"name": "target",
							"type": "address"
						},
						{
							"indexed": false,
							"internalType": "uint256",
							"name": "value",
							"type": "uint256"
						},
						{
							"indexed": false,
							"internalType": "string",
							"name": "signature",
							"type": "string"
						},
						{
							"indexed": false,
							"internalType": "bytes",
							"name": "data",
							"type": "bytes"
						},
						{
							"indexed": false,
							"internalType": "uint256",
							"name": "executeTime",
							"type": "uint256"
						}
					],
					"name": "ExecuteTransaction",
					"type": "event"
				},
				{
					"anonymous": false,
					"inputs": [
						{
							"indexed": true,
							"internalType": "address",
							"name": "newAdmin",
							"type": "address"
						}
					],
					"name": "NewAdmin",
					"type": "event"
				},
				{
					"anonymous": false,
					"inputs": [
						{
							"indexed": true,
							"internalType": "bytes32",
							"name": "txHash",
							"type": "bytes32"
						},
						{
							"indexed": true,
							"internalType": "address",
							"name": "target",
							"type": "address"
						},
						{
							"indexed": false,
							"internalType": "uint256",
							"name": "value",
							"type": "uint256"
						},
						{
							"indexed": false,
							"internalType": "string",
							"name": "signature",
							"type": "string"
						},
						{
							"indexed": false,
							"internalType": "bytes",
							"name": "data",
							"type": "bytes"
						},
						{
							"indexed": false,
							"internalType": "uint256",
							"name": "executeTime",
							"type": "uint256"
						}
					],
					"name": "QueueTransaction",
					"type": "event"
				},
				{
					"inputs": [],
					"name": "GRACE_PERIOD",
					"outputs": [
						{
							"internalType": "uint256",
							"name": "",
							"type": "uint256"
						}
					],
					"stateMutability": "view",
					"type": "function"
				},
				{
					"inputs": [],
					"name": "admin",
					"outputs": [
						{
							"internalType": "address",
							"name": "",
							"type": "address"
						}
					],
					"stateMutability": "view",
					"type": "function"
				},
				{
					"inputs": [
						{
							"internalType": "address",
							"name": "target",
							"type": "address"
						},
						{
							"internalType": "uint256",
							"name": "value",
							"type": "uint256"
						},
						{
							"internalType": "string",
							"name": "signature",
							"type": "string"
						},
						{
							"internalType": "bytes",
							"name": "data",
							"type": "bytes"
						},
						{
							"internalType": "uint256",
							"name": "executeTime",
							"type": "uint256"
						}
					],
					"name": "cancelTransaction",
					"outputs": [],
					"stateMutability": "nonpayable",
					"type": "function"
				},
				{
					"inputs": [
						{
							"internalType": "address",
							"name": "newAdmin",
							"type": "address"
						}
					],
					"name": "changeAdmin",
					"outputs": [],
					"stateMutability": "nonpayable",
					"type": "function"
				},
				{
					"inputs": [],
					"name": "delay",
					"outputs": [
						{
							"internalType": "uint256",
							"name": "",
							"type": "uint256"
						}
					],
					"stateMutability": "view",
					"type": "function"
				},
				{
					"inputs": [
						{
							"internalType": "address",
							"name": "target",
							"type": "address"
						},
						{
							"internalType": "uint256",
							"name": "value",
							"type": "uint256"
						},
						{
							"internalType": "string",
							"name": "signature",
							"type": "string"
						},
						{
							"internalType": "bytes",
							"name": "data",
							"type": "bytes"
						},
						{
							"internalType": "uint256",
							"name": "executeTime",
							"type": "uint256"
						}
					],
					"name": "executeTransaction",
					"outputs": [
						{
							"internalType": "bytes",
							"name": "",
							"type": "bytes"
						}
					],
					"stateMutability": "payable",
					"type": "function"
				},
				{
					"inputs": [],
					"name": "getBlockTimestamp",
					"outputs": [
						{
							"internalType": "uint256",
							"name": "",
							"type": "uint256"
						}
					],
					"stateMutability": "view",
					"type": "function"
				},
				{
					"inputs": [
						{
							"internalType": "address",
							"name": "target",
							"type": "address"
						},
						{
							"internalType": "uint256",
							"name": "value",
							"type": "uint256"
						},
						{
							"internalType": "string",
							"name": "signature",
							"type": "string"
						},
						{
							"internalType": "bytes",
							"name": "data",
							"type": "bytes"
						},
						{
							"internalType": "uint256",
							"name": "executeTime",
							"type": "uint256"
						}
					],
					"name": "getTxHash",
					"outputs": [
						{
							"internalType": "bytes32",
							"name": "",
							"type": "bytes32"
						}
					],
					"stateMutability": "pure",
					"type": "function"
				},
				{
					"inputs": [
						{
							"internalType": "address",
							"name": "target",
							"type": "address"
						},
						{
							"internalType": "uint256",
							"name": "value",
							"type": "uint256"
						},
						{
							"internalType": "string",
							"name": "signature",
							"type": "string"
						},
						{
							"internalType": "bytes",
							"name": "data",
							"type": "bytes"
						},
						{
							"internalType": "uint256",
							"name": "executeTime",
							"type": "uint256"
						}
					],
					"name": "queueTransaction",
					"outputs": [
						{
							"internalType": "bytes32",
							"name": "",
							"type": "bytes32"
						}
					],
					"stateMutability": "nonpayable",
					"type": "function"
				},
				{
					"inputs": [
						{
							"internalType": "bytes32",
							"name": "",
							"type": "bytes32"
						}
					],
					"name": "queuedTransactions",
					"outputs": [
						{
							"internalType": "bool",
							"name": "",
							"type": "bool"
						}
					],
					"stateMutability": "view",
					"type": "function"
				}
			],
			"devdoc": {
				"kind": "dev",
				"methods": {
					"cancelTransaction(address,uint256,string,bytes,uint256)": {
						"details": "取消特定交易。"
					},
					"changeAdmin(address)": {
						"details": "改變管理員地址，調用者必須是Timelock合約。"
					},
					"constructor": {
						"details": "構造函數，初始化交易鎖定時間 （秒）和管理員地址"
					},
					"executeTransaction(address,uint256,string,bytes,uint256)": {
						"details": "執行特定交易。 要求： 1. 交易在時間鎖隊列中 2. 達到交易的執行時間 3. 交易沒過期"
					},
					"getBlockTimestamp()": {
						"details": "獲取當前區塊鏈時間戳"
					},
					"getTxHash(address,uint256,string,bytes,uint256)": {
						"details": "將一堆東西拼成交易的標識符"
					},
					"queueTransaction(address,uint256,string,bytes,uint256)": {
						"details": "創建交易並添加到時間鎖隊列中。",
						"params": {
							"data": ": call data，裡面是一些參數",
							"executeTime": ": 交易執行的區塊鏈時間戳 要求：executeTime 大於 當前區塊鏈時間戳+delay",
							"signature": ": 要調用的函數簽名（function signature）",
							"target": ": 目標合約地址",
							"value": ": 發送eth數額"
						}
					}
				},
				"version": 1
			},
			"evm": {
				"assembly": "    /* \".deps/remix-tests/Timelock.sol\":60:5533  contract Timelock{... */\n  mstore(0x40, 0x80)\n    /* \".deps/remix-tests/Timelock.sol\":1416:1503  constructor(uint delay_) {... */\n  callvalue\n  dup1\n  iszero\n  tag_1\n  jumpi\n  0x00\n  dup1\n  revert\ntag_1:\n  pop\n  mload(0x40)\n  sub(codesize, bytecodeSize)\n  dup1\n  bytecodeSize\n  dup4\n  codecopy\n  dup2\n  dup2\n  add\n  0x40\n  mstore\n  dup2\n  add\n  swap1\n  tag_2\n  swap2\n  swap1\n  tag_3\n  jump\t// in\ntag_2:\n    /* \".deps/remix-tests/Timelock.sol\":1460:1466  delay_ */\n  dup1\n    /* \".deps/remix-tests/Timelock.sol\":1452:1457  delay */\n  0x01\n    /* \".deps/remix-tests/Timelock.sol\":1452:1466  delay = delay_ */\n  dup2\n  swap1\n  sstore\n  pop\n    /* \".deps/remix-tests/Timelock.sol\":1485:1495  msg.sender */\n  caller\n    /* \".deps/remix-tests/Timelock.sol\":1477:1482  admin */\n  0x00\n  dup1\n    /* \".deps/remix-tests/Timelock.sol\":1477:1495  admin = msg.sender */\n  0x0100\n  exp\n  dup2\n  sload\n  dup2\n  0xffffffffffffffffffffffffffffffffffffffff\n  mul\n  not\n  and\n  swap1\n  dup4\n  0xffffffffffffffffffffffffffffffffffffffff\n  and\n  mul\n  or\n  swap1\n  sstore\n  pop\n    /* \".deps/remix-tests/Timelock.sol\":1416:1503  constructor(uint delay_) {... */\n  pop\n    /* \".deps/remix-tests/Timelock.sol\":60:5533  contract Timelock{... */\n  jump(tag_6)\n    /* \"#utility.yul\":88:205   */\ntag_8:\n    /* \"#utility.yul\":197:198   */\n  0x00\n    /* \"#utility.yul\":194:195   */\n  dup1\n    /* \"#utility.yul\":187:199   */\n  revert\n    /* \"#utility.yul\":334:411   */\ntag_10:\n    /* \"#utility.yul\":371:378   */\n  0x00\n    /* \"#utility.yul\":400:405   */\n  dup2\n    /* \"#utility.yul\":389:405   */\n  swap1\n  pop\n    /* \"#utility.yul\":334:411   */\n  swap2\n  swap1\n  pop\n  jump\t// out\n    /* \"#utility.yul\":417:539   */\ntag_11:\n    /* \"#utility.yul\":490:514   */\n  tag_19\n    /* \"#utility.yul\":508:513   */\n  dup2\n    /* \"#utility.yul\":490:514   */\n  tag_10\n  jump\t// in\ntag_19:\n    /* \"#utility.yul\":483:488   */\n  dup2\n    /* \"#utility.yul\":480:515   */\n  eq\n    /* \"#utility.yul\":470:533   */\n  tag_20\n  jumpi\n    /* \"#utility.yul\":529:530   */\n  0x00\n    /* \"#utility.yul\":526:527   */\n  dup1\n    /* \"#utility.yul\":519:531   */\n  revert\n    /* \"#utility.yul\":470:533   */\ntag_20:\n    /* \"#utility.yul\":417:539   */\n  pop\n  jump\t// out\n    /* \"#utility.yul\":545:688   */\ntag_12:\n    /* \"#utility.yul\":602:607   */\n  0x00\n    /* \"#utility.yul\":633:639   */\n  dup2\n    /* \"#utility.yul\":627:640   */\n  mload\n    /* \"#utility.yul\":618:640   */\n  swap1\n  pop\n    /* \"#utility.yul\":649:682   */\n  tag_22\n    /* \"#utility.yul\":676:681   */\n  dup2\n    /* \"#utility.yul\":649:682   */\n  tag_11\n  jump\t// in\ntag_22:\n    /* \"#utility.yul\":545:688   */\n  swap3\n  swap2\n  pop\n  pop\n  jump\t// out\n    /* \"#utility.yul\":694:1045   */\ntag_3:\n    /* \"#utility.yul\":764:770   */\n  0x00\n    /* \"#utility.yul\":813:815   */\n  0x20\n    /* \"#utility.yul\":801:810   */\n  dup3\n    /* \"#utility.yul\":792:799   */\n  dup5\n    /* \"#utility.yul\":788:811   */\n  sub\n    /* \"#utility.yul\":784:816   */\n  slt\n    /* \"#utility.yul\":781:900   */\n  iszero\n  tag_24\n  jumpi\n    /* \"#utility.yul\":819:898   */\n  tag_25\n  tag_8\n  jump\t// in\ntag_25:\n    /* \"#utility.yul\":781:900   */\ntag_24:\n    /* \"#utility.yul\":939:940   */\n  0x00\n    /* \"#utility.yul\":964:1028   */\n  tag_26\n    /* \"#utility.yul\":1020:1027   */\n  dup5\n    /* \"#utility.yul\":1011:1017   */\n  dup3\n    /* \"#utility.yul\":1000:1009   */\n  dup6\n    /* \"#utility.yul\":996:1018   */\n  add\n    /* \"#utility.yul\":964:1028   */\n  tag_12\n  jump\t// in\ntag_26:\n    /* \"#utility.yul\":954:1028   */\n  swap2\n  pop\n    /* \"#utility.yul\":910:1038   */\n  pop\n    /* \"#utility.yul\":694:1045   */\n  swap3\n  swap2\n  pop\n  pop\n  jump\t// out\n    /* \".deps/remix-tests/Timelock.sol\":60:5533  contract Timelock{... */\ntag_6:\n  dataSize(sub_0)\n  dup1\n  dataOffset(sub_0)\n  0x00\n  codecopy\n  0x00\n  return\nstop\n\nsub_0: assembly {\n        /* \".deps/remix-tests/Timelock.sol\":60:5533  contract Timelock{... */\n      mstore(0x40, 0x80)\n      jumpi(tag_1, lt(calldatasize, 0x04))\n      shr(0xe0, calldataload(0x00))\n      dup1\n      0x796b89b9\n      gt\n      tag_12\n      jumpi\n      dup1\n      0x796b89b9\n      eq\n      tag_7\n      jumpi\n      dup1\n      0x8f283970\n      eq\n      tag_8\n      jumpi\n      dup1\n      0xc1a287e2\n      eq\n      tag_9\n      jumpi\n      dup1\n      0xf2b06537\n      eq\n      tag_10\n      jumpi\n      dup1\n      0xf851a440\n      eq\n      tag_11\n      jumpi\n      jump(tag_1)\n    tag_12:\n      dup1\n      0x04a71576\n      eq\n      tag_2\n      jumpi\n      dup1\n      0x0825f38f\n      eq\n      tag_3\n      jumpi\n      dup1\n      0x3a66f901\n      eq\n      tag_4\n      jumpi\n      dup1\n      0x591fcdfe\n      eq\n      tag_5\n      jumpi\n      dup1\n      0x6a42b8f8\n      eq\n      tag_6\n      jumpi\n    tag_1:\n      0x00\n      dup1\n      revert\n        /* \".deps/remix-tests/Timelock.sol\":5247:5530  function getTxHash(... */\n    tag_2:\n      callvalue\n      dup1\n      iszero\n      tag_13\n      jumpi\n      0x00\n      dup1\n      revert\n    tag_13:\n      pop\n      tag_14\n      0x04\n      dup1\n      calldatasize\n      sub\n      dup2\n      add\n      swap1\n      tag_15\n      swap2\n      swap1\n      tag_16\n      jump\t// in\n    tag_15:\n      tag_17\n      jump\t// in\n    tag_14:\n      mload(0x40)\n      tag_18\n      swap2\n      swap1\n      tag_19\n      jump\t// in\n    tag_18:\n      mload(0x40)\n      dup1\n      swap2\n      sub\n      swap1\n      return\n        /* \".deps/remix-tests/Timelock.sol\":3634:5001  function executeTransaction(address target, uint256 value, string memory signature, bytes memory data, uint256 executeTime) public payable onlyOwner returns (bytes memory) {... */\n    tag_3:\n      tag_20\n      0x04\n      dup1\n      calldatasize\n      sub\n      dup2\n      add\n      swap1\n      tag_21\n      swap2\n      swap1\n      tag_16\n      jump\t// in\n    tag_21:\n      tag_22\n      jump\t// in\n    tag_20:\n      mload(0x40)\n      tag_23\n      swap2\n      swap1\n      tag_24\n      jump\t// in\n    tag_23:\n      mload(0x40)\n      dup1\n      swap2\n      sub\n      swap1\n      return\n        /* \".deps/remix-tests/Timelock.sol\":2163:2864  function queueTransaction(address target, uint256 value, string memory signature, bytes memory data, uint256 executeTime) public onlyOwner returns (bytes32) {... */\n    tag_4:\n      callvalue\n      dup1\n      iszero\n      tag_25\n      jumpi\n      0x00\n      dup1\n      revert\n    tag_25:\n      pop\n      tag_26\n      0x04\n      dup1\n      calldatasize\n      sub\n      dup2\n      add\n      swap1\n      tag_27\n      swap2\n      swap1\n      tag_16\n      jump\t// in\n    tag_27:\n      tag_28\n      jump\t// in\n    tag_26:\n      mload(0x40)\n      tag_29\n      swap2\n      swap1\n      tag_19\n      jump\t// in\n    tag_29:\n      mload(0x40)\n      dup1\n      swap2\n      sub\n      swap1\n      return\n        /* \".deps/remix-tests/Timelock.sol\":2933:3443  function cancelTransaction(address target, uint256 value, string memory signature, bytes memory data, uint256 executeTime) public onlyOwner{... */\n    tag_5:\n      callvalue\n      dup1\n      iszero\n      tag_30\n      jumpi\n      0x00\n      dup1\n      revert\n    tag_30:\n      pop\n      tag_31\n      0x04\n      dup1\n      calldatasize\n      sub\n      dup2\n      add\n      swap1\n      tag_32\n      swap2\n      swap1\n      tag_16\n      jump\t// in\n    tag_32:\n      tag_33\n      jump\t// in\n    tag_31:\n      stop\n        /* \".deps/remix-tests/Timelock.sol\":825:842  uint public delay */\n    tag_6:\n      callvalue\n      dup1\n      iszero\n      tag_34\n      jumpi\n      0x00\n      dup1\n      revert\n    tag_34:\n      pop\n      tag_35\n      tag_36\n      jump\t// in\n    tag_35:\n      mload(0x40)\n      tag_37\n      swap2\n      swap1\n      tag_38\n      jump\t// in\n    tag_37:\n      mload(0x40)\n      dup1\n      swap2\n      sub\n      swap1\n      return\n        /* \".deps/remix-tests/Timelock.sol\":5071:5168  function getBlockTimestamp() public view returns (uint) {... */\n    tag_7:\n      callvalue\n      dup1\n      iszero\n      tag_39\n      jumpi\n      0x00\n      dup1\n      revert\n    tag_39:\n      pop\n      tag_40\n      tag_41\n      jump\t// in\n    tag_40:\n      mload(0x40)\n      tag_42\n      swap2\n      swap1\n      tag_38\n      jump\t// in\n    tag_42:\n      mload(0x40)\n      dup1\n      swap2\n      sub\n      swap1\n      return\n        /* \".deps/remix-tests/Timelock.sol\":1602:1732  function changeAdmin(address newAdmin) public onlyTimelock {... */\n    tag_8:\n      callvalue\n      dup1\n      iszero\n      tag_43\n      jumpi\n      0x00\n      dup1\n      revert\n    tag_43:\n      pop\n      tag_44\n      0x04\n      dup1\n      calldatasize\n      sub\n      dup2\n      add\n      swap1\n      tag_45\n      swap2\n      swap1\n      tag_46\n      jump\t// in\n    tag_45:\n      tag_47\n      jump\t// in\n    tag_44:\n      stop\n        /* \".deps/remix-tests/Timelock.sol\":733:775  uint public constant GRACE_PERIOD = 7 days */\n    tag_9:\n      callvalue\n      dup1\n      iszero\n      tag_48\n      jumpi\n      0x00\n      dup1\n      revert\n    tag_48:\n      pop\n      tag_49\n      tag_50\n      jump\t// in\n    tag_49:\n      mload(0x40)\n      tag_51\n      swap2\n      swap1\n      tag_38\n      jump\t// in\n    tag_51:\n      mload(0x40)\n      dup1\n      swap2\n      sub\n      swap1\n      return\n        /* \".deps/remix-tests/Timelock.sol\":881:932  mapping (bytes32 => bool) public queuedTransactions */\n    tag_10:\n      callvalue\n      dup1\n      iszero\n      tag_52\n      jumpi\n      0x00\n      dup1\n      revert\n    tag_52:\n      pop\n      tag_53\n      0x04\n      dup1\n      calldatasize\n      sub\n      dup2\n      add\n      swap1\n      tag_54\n      swap2\n      swap1\n      tag_55\n      jump\t// in\n    tag_54:\n      tag_56\n      jump\t// in\n    tag_53:\n      mload(0x40)\n      tag_57\n      swap2\n      swap1\n      tag_58\n      jump\t// in\n    tag_57:\n      mload(0x40)\n      dup1\n      swap2\n      sub\n      swap1\n      return\n        /* \".deps/remix-tests/Timelock.sol\":687:707  address public admin */\n    tag_11:\n      callvalue\n      dup1\n      iszero\n      tag_59\n      jumpi\n      0x00\n      dup1\n      revert\n    tag_59:\n      pop\n      tag_60\n      tag_61\n      jump\t// in\n    tag_60:\n      mload(0x40)\n      tag_62\n      swap2\n      swap1\n      tag_63\n      jump\t// in\n    tag_62:\n      mload(0x40)\n      dup1\n      swap2\n      sub\n      swap1\n      return\n        /* \".deps/remix-tests/Timelock.sol\":5247:5530  function getTxHash(... */\n    tag_17:\n        /* \".deps/remix-tests/Timelock.sol\":5429:5436  bytes32 */\n      0x00\n        /* \".deps/remix-tests/Timelock.sol\":5477:5483  target */\n      dup6\n        /* \".deps/remix-tests/Timelock.sol\":5485:5490  value */\n      dup6\n        /* \".deps/remix-tests/Timelock.sol\":5492:5501  signature */\n      dup6\n        /* \".deps/remix-tests/Timelock.sol\":5503:5507  data */\n      dup6\n        /* \".deps/remix-tests/Timelock.sol\":5509:5520  executeTime */\n      dup6\n        /* \".deps/remix-tests/Timelock.sol\":5466:5521  abi.encode(target, value, signature, data, executeTime) */\n      add(0x20, mload(0x40))\n      tag_65\n      swap6\n      swap5\n      swap4\n      swap3\n      swap2\n      swap1\n      tag_66\n      jump\t// in\n    tag_65:\n      mload(0x40)\n      0x20\n      dup2\n      dup4\n      sub\n      sub\n      dup2\n      mstore\n      swap1\n      0x40\n      mstore\n        /* \".deps/remix-tests/Timelock.sol\":5456:5522  keccak256(abi.encode(target, value, signature, data, executeTime)) */\n      dup1\n      mload\n      swap1\n      0x20\n      add\n      keccak256\n        /* \".deps/remix-tests/Timelock.sol\":5449:5522  return keccak256(abi.encode(target, value, signature, data, executeTime)) */\n      swap1\n      pop\n        /* \".deps/remix-tests/Timelock.sol\":5247:5530  function getTxHash(... */\n      swap6\n      swap5\n      pop\n      pop\n      pop\n      pop\n      pop\n      jump\t// out\n        /* \".deps/remix-tests/Timelock.sol\":3634:5001  function executeTransaction(address target, uint256 value, string memory signature, bytes memory data, uint256 executeTime) public payable onlyOwner returns (bytes memory) {... */\n    tag_22:\n        /* \".deps/remix-tests/Timelock.sol\":3792:3804  bytes memory */\n      0x60\n        /* \".deps/remix-tests/Timelock.sol\":1088:1093  admin */\n      0x00\n      dup1\n      sload\n      swap1\n      0x0100\n      exp\n      swap1\n      div\n      0xffffffffffffffffffffffffffffffffffffffff\n      and\n        /* \".deps/remix-tests/Timelock.sol\":1074:1093  msg.sender == admin */\n      0xffffffffffffffffffffffffffffffffffffffff\n      and\n        /* \".deps/remix-tests/Timelock.sol\":1074:1084  msg.sender */\n      caller\n        /* \".deps/remix-tests/Timelock.sol\":1074:1093  msg.sender == admin */\n      0xffffffffffffffffffffffffffffffffffffffff\n      and\n      eq\n        /* \".deps/remix-tests/Timelock.sol\":1066:1124  require(msg.sender == admin, \"Timelock: Caller not admin\") */\n      tag_68\n      jumpi\n      mload(0x40)\n      0x08c379a000000000000000000000000000000000000000000000000000000000\n      dup2\n      mstore\n      0x04\n      add\n      tag_69\n      swap1\n      tag_70\n      jump\t// in\n    tag_69:\n      mload(0x40)\n      dup1\n      swap2\n      sub\n      swap1\n      revert\n    tag_68:\n        /* \".deps/remix-tests/Timelock.sol\":3817:3831  bytes32 txHash */\n      0x00\n        /* \".deps/remix-tests/Timelock.sol\":3834:3888  getTxHash(target, value, signature, data, executeTime) */\n      tag_72\n        /* \".deps/remix-tests/Timelock.sol\":3844:3850  target */\n      dup8\n        /* \".deps/remix-tests/Timelock.sol\":3852:3857  value */\n      dup8\n        /* \".deps/remix-tests/Timelock.sol\":3859:3868  signature */\n      dup8\n        /* \".deps/remix-tests/Timelock.sol\":3870:3874  data */\n      dup8\n        /* \".deps/remix-tests/Timelock.sol\":3876:3887  executeTime */\n      dup8\n        /* \".deps/remix-tests/Timelock.sol\":3834:3843  getTxHash */\n      tag_17\n        /* \".deps/remix-tests/Timelock.sol\":3834:3888  getTxHash(target, value, signature, data, executeTime) */\n      jump\t// in\n    tag_72:\n        /* \".deps/remix-tests/Timelock.sol\":3817:3888  bytes32 txHash = getTxHash(target, value, signature, data, executeTime) */\n      swap1\n      pop\n        /* \".deps/remix-tests/Timelock.sol\":3962:3980  queuedTransactions */\n      0x02\n        /* \".deps/remix-tests/Timelock.sol\":3962:3988  queuedTransactions[txHash] */\n      0x00\n        /* \".deps/remix-tests/Timelock.sol\":3981:3987  txHash */\n      dup3\n        /* \".deps/remix-tests/Timelock.sol\":3962:3988  queuedTransactions[txHash] */\n      dup2\n      mstore\n      0x20\n      add\n      swap1\n      dup2\n      mstore\n      0x20\n      add\n      0x00\n      keccak256\n      0x00\n      swap1\n      sload\n      swap1\n      0x0100\n      exp\n      swap1\n      div\n      0xff\n      and\n        /* \".deps/remix-tests/Timelock.sol\":3954:4054  require(queuedTransactions[txHash], \"Timelock::executeTransaction: Transaction hasn't been queued.\") */\n      tag_73\n      jumpi\n      mload(0x40)\n      0x08c379a000000000000000000000000000000000000000000000000000000000\n      dup2\n      mstore\n      0x04\n      add\n      tag_74\n      swap1\n      tag_75\n      jump\t// in\n    tag_74:\n      mload(0x40)\n      dup1\n      swap2\n      sub\n      swap1\n      revert\n    tag_73:\n        /* \".deps/remix-tests/Timelock.sol\":4145:4156  executeTime */\n      dup3\n        /* \".deps/remix-tests/Timelock.sol\":4122:4141  getBlockTimestamp() */\n      tag_76\n        /* \".deps/remix-tests/Timelock.sol\":4122:4139  getBlockTimestamp */\n      tag_41\n        /* \".deps/remix-tests/Timelock.sol\":4122:4141  getBlockTimestamp() */\n      jump\t// in\n    tag_76:\n        /* \".deps/remix-tests/Timelock.sol\":4122:4156  getBlockTimestamp() >= executeTime */\n      lt\n      iszero\n        /* \".deps/remix-tests/Timelock.sol\":4114:4230  require(getBlockTimestamp() >= executeTime, \"Timelock::executeTransaction: Transaction hasn't surpassed time lock.\") */\n      tag_77\n      jumpi\n      mload(0x40)\n      0x08c379a000000000000000000000000000000000000000000000000000000000\n      dup2\n      mstore\n      0x04\n      add\n      tag_78\n      swap1\n      tag_79\n      jump\t// in\n    tag_78:\n      mload(0x40)\n      dup1\n      swap2\n      sub\n      swap1\n      revert\n    tag_77:\n        /* \".deps/remix-tests/Timelock.sol\":769:775  7 days */\n      0x093a80\n        /* \".deps/remix-tests/Timelock.sol\":4308:4319  executeTime */\n      dup4\n        /* \".deps/remix-tests/Timelock.sol\":4308:4334  executeTime + GRACE_PERIOD */\n      tag_80\n      swap2\n      swap1\n      tag_81\n      jump\t// in\n    tag_80:\n        /* \".deps/remix-tests/Timelock.sol\":4285:4304  getBlockTimestamp() */\n      tag_82\n        /* \".deps/remix-tests/Timelock.sol\":4285:4302  getBlockTimestamp */\n      tag_41\n        /* \".deps/remix-tests/Timelock.sol\":4285:4304  getBlockTimestamp() */\n      jump\t// in\n    tag_82:\n        /* \".deps/remix-tests/Timelock.sol\":4285:4334  getBlockTimestamp() <= executeTime + GRACE_PERIOD */\n      gt\n      iszero\n        /* \".deps/remix-tests/Timelock.sol\":4277:4390  require(getBlockTimestamp() <= executeTime + GRACE_PERIOD, \"Timelock::executeTransaction: Transaction is stale.\") */\n      tag_83\n      jumpi\n      mload(0x40)\n      0x08c379a000000000000000000000000000000000000000000000000000000000\n      dup2\n      mstore\n      0x04\n      add\n      tag_84\n      swap1\n      tag_85\n      jump\t// in\n    tag_84:\n      mload(0x40)\n      dup1\n      swap2\n      sub\n      swap1\n      revert\n    tag_83:\n        /* \".deps/remix-tests/Timelock.sol\":4464:4469  false */\n      0x00\n        /* \".deps/remix-tests/Timelock.sol\":4435:4453  queuedTransactions */\n      0x02\n        /* \".deps/remix-tests/Timelock.sol\":4435:4461  queuedTransactions[txHash] */\n      0x00\n        /* \".deps/remix-tests/Timelock.sol\":4454:4460  txHash */\n      dup4\n        /* \".deps/remix-tests/Timelock.sol\":4435:4461  queuedTransactions[txHash] */\n      dup2\n      mstore\n      0x20\n      add\n      swap1\n      dup2\n      mstore\n      0x20\n      add\n      0x00\n      keccak256\n      0x00\n        /* \".deps/remix-tests/Timelock.sol\":4435:4469  queuedTransactions[txHash] = false */\n      0x0100\n      exp\n      dup2\n      sload\n      dup2\n      0xff\n      mul\n      not\n      and\n      swap1\n      dup4\n      iszero\n      iszero\n      mul\n      or\n      swap1\n      sstore\n      pop\n        /* \".deps/remix-tests/Timelock.sol\":4482:4503  bytes memory callData */\n      0x60\n        /* \".deps/remix-tests/Timelock.sol\":4545:4546  0 */\n      0x00\n        /* \".deps/remix-tests/Timelock.sol\":4524:4533  signature */\n      dup7\n        /* \".deps/remix-tests/Timelock.sol\":4518:4541  bytes(signature).length */\n      mload\n        /* \".deps/remix-tests/Timelock.sol\":4518:4546  bytes(signature).length == 0 */\n      sub\n        /* \".deps/remix-tests/Timelock.sol\":4514:4693  if (bytes(signature).length == 0) {... */\n      tag_86\n      jumpi\n        /* \".deps/remix-tests/Timelock.sol\":4574:4578  data */\n      dup5\n        /* \".deps/remix-tests/Timelock.sol\":4563:4578  callData = data */\n      swap1\n      pop\n        /* \".deps/remix-tests/Timelock.sol\":4514:4693  if (bytes(signature).length == 0) {... */\n      jump(tag_87)\n    tag_86:\n        /* \".deps/remix-tests/Timelock.sol\":4662:4671  signature */\n      dup6\n        /* \".deps/remix-tests/Timelock.sol\":4646:4673  keccak256(bytes(signature)) */\n      dup1\n      mload\n      swap1\n      0x20\n      add\n      keccak256\n        /* \".deps/remix-tests/Timelock.sol\":4676:4680  data */\n      dup6\n        /* \".deps/remix-tests/Timelock.sol\":4622:4681  abi.encodePacked(bytes4(keccak256(bytes(signature))), data) */\n      add(0x20, mload(0x40))\n      tag_88\n      swap3\n      swap2\n      swap1\n      tag_89\n      jump\t// in\n    tag_88:\n      mload(0x40)\n      0x20\n      dup2\n      dup4\n      sub\n      sub\n      dup2\n      mstore\n      swap1\n      0x40\n      mstore\n        /* \".deps/remix-tests/Timelock.sol\":4611:4681  callData = abi.encodePacked(bytes4(keccak256(bytes(signature))), data) */\n      swap1\n      pop\n        /* \".deps/remix-tests/Timelock.sol\":4514:4693  if (bytes(signature).length == 0) {... */\n    tag_87:\n        /* \".deps/remix-tests/Timelock.sol\":4706:4718  bool success */\n      0x00\n        /* \".deps/remix-tests/Timelock.sol\":4720:4743  bytes memory returnData */\n      dup1\n        /* \".deps/remix-tests/Timelock.sol\":4747:4753  target */\n      dup10\n        /* \".deps/remix-tests/Timelock.sol\":4747:4758  target.call */\n      0xffffffffffffffffffffffffffffffffffffffff\n      and\n        /* \".deps/remix-tests/Timelock.sol\":4766:4771  value */\n      dup10\n        /* \".deps/remix-tests/Timelock.sol\":4773:4781  callData */\n      dup5\n        /* \".deps/remix-tests/Timelock.sol\":4747:4782  target.call{value: value}(callData) */\n      mload(0x40)\n      tag_90\n      swap2\n      swap1\n      tag_91\n      jump\t// in\n    tag_90:\n      0x00\n      mload(0x40)\n      dup1\n      dup4\n      sub\n      dup2\n      dup6\n      dup8\n      gas\n      call\n      swap3\n      pop\n      pop\n      pop\n      returndatasize\n      dup1\n      0x00\n      dup2\n      eq\n      tag_94\n      jumpi\n      mload(0x40)\n      swap2\n      pop\n      and(add(returndatasize, 0x3f), not(0x1f))\n      dup3\n      add\n      0x40\n      mstore\n      returndatasize\n      dup3\n      mstore\n      returndatasize\n      0x00\n      0x20\n      dup5\n      add\n      returndatacopy\n      jump(tag_93)\n    tag_94:\n      0x60\n      swap2\n      pop\n    tag_93:\n      pop\n        /* \".deps/remix-tests/Timelock.sol\":4705:4782  (bool success, bytes memory returnData) = target.call{value: value}(callData) */\n      swap2\n      pop\n      swap2\n      pop\n        /* \".deps/remix-tests/Timelock.sol\":4801:4808  success */\n      dup2\n        /* \".deps/remix-tests/Timelock.sol\":4793:4874  require(success, \"Timelock::executeTransaction: Transaction execution reverted.\") */\n      tag_95\n      jumpi\n      mload(0x40)\n      0x08c379a000000000000000000000000000000000000000000000000000000000\n      dup2\n      mstore\n      0x04\n      add\n      tag_96\n      swap1\n      tag_97\n      jump\t// in\n    tag_96:\n      mload(0x40)\n      dup1\n      swap2\n      sub\n      swap1\n      revert\n    tag_95:\n        /* \".deps/remix-tests/Timelock.sol\":4919:4925  target */\n      dup10\n        /* \".deps/remix-tests/Timelock.sol\":4892:4963  ExecuteTransaction(txHash, target, value, signature, data, executeTime) */\n      0xffffffffffffffffffffffffffffffffffffffff\n      and\n        /* \".deps/remix-tests/Timelock.sol\":4911:4917  txHash */\n      dup5\n        /* \".deps/remix-tests/Timelock.sol\":4892:4963  ExecuteTransaction(txHash, target, value, signature, data, executeTime) */\n      0xa560e3198060a2f10670c1ec5b403077ea6ae93ca8de1c32b451dc1a943cd6e7\n        /* \".deps/remix-tests/Timelock.sol\":4927:4932  value */\n      dup12\n        /* \".deps/remix-tests/Timelock.sol\":4934:4943  signature */\n      dup12\n        /* \".deps/remix-tests/Timelock.sol\":4945:4949  data */\n      dup12\n        /* \".deps/remix-tests/Timelock.sol\":4951:4962  executeTime */\n      dup12\n        /* \".deps/remix-tests/Timelock.sol\":4892:4963  ExecuteTransaction(txHash, target, value, signature, data, executeTime) */\n      mload(0x40)\n      tag_98\n      swap5\n      swap4\n      swap3\n      swap2\n      swap1\n      tag_99\n      jump\t// in\n    tag_98:\n      mload(0x40)\n      dup1\n      swap2\n      sub\n      swap1\n      log3\n        /* \".deps/remix-tests/Timelock.sol\":4983:4993  returnData */\n      dup1\n        /* \".deps/remix-tests/Timelock.sol\":4976:4993  return returnData */\n      swap5\n      pop\n      pop\n      pop\n      pop\n      pop\n        /* \".deps/remix-tests/Timelock.sol\":3634:5001  function executeTransaction(address target, uint256 value, string memory signature, bytes memory data, uint256 executeTime) public payable onlyOwner returns (bytes memory) {... */\n      swap6\n      swap5\n      pop\n      pop\n      pop\n      pop\n      pop\n      jump\t// out\n        /* \".deps/remix-tests/Timelock.sol\":2163:2864  function queueTransaction(address target, uint256 value, string memory signature, bytes memory data, uint256 executeTime) public onlyOwner returns (bytes32) {... */\n    tag_28:\n        /* \".deps/remix-tests/Timelock.sol\":2311:2318  bytes32 */\n      0x00\n        /* \".deps/remix-tests/Timelock.sol\":1088:1093  admin */\n      dup1\n      0x00\n      swap1\n      sload\n      swap1\n      0x0100\n      exp\n      swap1\n      div\n      0xffffffffffffffffffffffffffffffffffffffff\n      and\n        /* \".deps/remix-tests/Timelock.sol\":1074:1093  msg.sender == admin */\n      0xffffffffffffffffffffffffffffffffffffffff\n      and\n        /* \".deps/remix-tests/Timelock.sol\":1074:1084  msg.sender */\n      caller\n        /* \".deps/remix-tests/Timelock.sol\":1074:1093  msg.sender == admin */\n      0xffffffffffffffffffffffffffffffffffffffff\n      and\n      eq\n        /* \".deps/remix-tests/Timelock.sol\":1066:1124  require(msg.sender == admin, \"Timelock: Caller not admin\") */\n      tag_101\n      jumpi\n      mload(0x40)\n      0x08c379a000000000000000000000000000000000000000000000000000000000\n      dup2\n      mstore\n      0x04\n      add\n      tag_102\n      swap1\n      tag_70\n      jump\t// in\n    tag_102:\n      mload(0x40)\n      dup1\n      swap2\n      sub\n      swap1\n      revert\n    tag_101:\n        /* \".deps/remix-tests/Timelock.sol\":2434:2439  delay */\n      sload(0x01)\n        /* \".deps/remix-tests/Timelock.sol\":2412:2431  getBlockTimestamp() */\n      tag_104\n        /* \".deps/remix-tests/Timelock.sol\":2412:2429  getBlockTimestamp */\n      tag_41\n        /* \".deps/remix-tests/Timelock.sol\":2412:2431  getBlockTimestamp() */\n      jump\t// in\n    tag_104:\n        /* \".deps/remix-tests/Timelock.sol\":2412:2439  getBlockTimestamp() + delay */\n      tag_105\n      swap2\n      swap1\n      tag_81\n      jump\t// in\n    tag_105:\n        /* \".deps/remix-tests/Timelock.sol\":2397:2408  executeTime */\n      dup3\n        /* \".deps/remix-tests/Timelock.sol\":2397:2439  executeTime >= getBlockTimestamp() + delay */\n      lt\n      iszero\n        /* \".deps/remix-tests/Timelock.sol\":2389:2517  require(executeTime >= getBlockTimestamp() + delay, \"Timelock::queueTransaction: Estimated execution block must satisfy delay.\") */\n      tag_106\n      jumpi\n      mload(0x40)\n      0x08c379a000000000000000000000000000000000000000000000000000000000\n      dup2\n      mstore\n      0x04\n      add\n      tag_107\n      swap1\n      tag_108\n      jump\t// in\n    tag_107:\n      mload(0x40)\n      dup1\n      swap2\n      sub\n      swap1\n      revert\n    tag_106:\n        /* \".deps/remix-tests/Timelock.sol\":2593:2607  bytes32 txHash */\n      0x00\n        /* \".deps/remix-tests/Timelock.sol\":2610:2664  getTxHash(target, value, signature, data, executeTime) */\n      tag_109\n        /* \".deps/remix-tests/Timelock.sol\":2620:2626  target */\n      dup8\n        /* \".deps/remix-tests/Timelock.sol\":2628:2633  value */\n      dup8\n        /* \".deps/remix-tests/Timelock.sol\":2635:2644  signature */\n      dup8\n        /* \".deps/remix-tests/Timelock.sol\":2646:2650  data */\n      dup8\n        /* \".deps/remix-tests/Timelock.sol\":2652:2663  executeTime */\n      dup8\n        /* \".deps/remix-tests/Timelock.sol\":2610:2619  getTxHash */\n      tag_17\n        /* \".deps/remix-tests/Timelock.sol\":2610:2664  getTxHash(target, value, signature, data, executeTime) */\n      jump\t// in\n    tag_109:\n        /* \".deps/remix-tests/Timelock.sol\":2593:2664  bytes32 txHash = getTxHash(target, value, signature, data, executeTime) */\n      swap1\n      pop\n        /* \".deps/remix-tests/Timelock.sol\":2741:2745  true */\n      0x01\n        /* \".deps/remix-tests/Timelock.sol\":2712:2730  queuedTransactions */\n      0x02\n        /* \".deps/remix-tests/Timelock.sol\":2712:2738  queuedTransactions[txHash] */\n      0x00\n        /* \".deps/remix-tests/Timelock.sol\":2731:2737  txHash */\n      dup4\n        /* \".deps/remix-tests/Timelock.sol\":2712:2738  queuedTransactions[txHash] */\n      dup2\n      mstore\n      0x20\n      add\n      swap1\n      dup2\n      mstore\n      0x20\n      add\n      0x00\n      keccak256\n      0x00\n        /* \".deps/remix-tests/Timelock.sol\":2712:2745  queuedTransactions[txHash] = true */\n      0x0100\n      exp\n      dup2\n      sload\n      dup2\n      0xff\n      mul\n      not\n      and\n      swap1\n      dup4\n      iszero\n      iszero\n      mul\n      or\n      swap1\n      sstore\n      pop\n        /* \".deps/remix-tests/Timelock.sol\":2788:2794  target */\n      dup7\n        /* \".deps/remix-tests/Timelock.sol\":2763:2832  QueueTransaction(txHash, target, value, signature, data, executeTime) */\n      0xffffffffffffffffffffffffffffffffffffffff\n      and\n        /* \".deps/remix-tests/Timelock.sol\":2780:2786  txHash */\n      dup2\n        /* \".deps/remix-tests/Timelock.sol\":2763:2832  QueueTransaction(txHash, target, value, signature, data, executeTime) */\n      0x76e2796dc3a81d57b0e8504b647febcbeeb5f4af818e164f11eef8131a6a763f\n        /* \".deps/remix-tests/Timelock.sol\":2796:2801  value */\n      dup9\n        /* \".deps/remix-tests/Timelock.sol\":2803:2812  signature */\n      dup9\n        /* \".deps/remix-tests/Timelock.sol\":2814:2818  data */\n      dup9\n        /* \".deps/remix-tests/Timelock.sol\":2820:2831  executeTime */\n      dup9\n        /* \".deps/remix-tests/Timelock.sol\":2763:2832  QueueTransaction(txHash, target, value, signature, data, executeTime) */\n      mload(0x40)\n      tag_110\n      swap5\n      swap4\n      swap3\n      swap2\n      swap1\n      tag_99\n      jump\t// in\n    tag_110:\n      mload(0x40)\n      dup1\n      swap2\n      sub\n      swap1\n      log3\n        /* \".deps/remix-tests/Timelock.sol\":2850:2856  txHash */\n      dup1\n        /* \".deps/remix-tests/Timelock.sol\":2843:2856  return txHash */\n      swap2\n      pop\n      pop\n        /* \".deps/remix-tests/Timelock.sol\":2163:2864  function queueTransaction(address target, uint256 value, string memory signature, bytes memory data, uint256 executeTime) public onlyOwner returns (bytes32) {... */\n      swap6\n      swap5\n      pop\n      pop\n      pop\n      pop\n      pop\n      jump\t// out\n        /* \".deps/remix-tests/Timelock.sol\":2933:3443  function cancelTransaction(address target, uint256 value, string memory signature, bytes memory data, uint256 executeTime) public onlyOwner{... */\n    tag_33:\n        /* \".deps/remix-tests/Timelock.sol\":1088:1093  admin */\n      0x00\n      dup1\n      sload\n      swap1\n      0x0100\n      exp\n      swap1\n      div\n      0xffffffffffffffffffffffffffffffffffffffff\n      and\n        /* \".deps/remix-tests/Timelock.sol\":1074:1093  msg.sender == admin */\n      0xffffffffffffffffffffffffffffffffffffffff\n      and\n        /* \".deps/remix-tests/Timelock.sol\":1074:1084  msg.sender */\n      caller\n        /* \".deps/remix-tests/Timelock.sol\":1074:1093  msg.sender == admin */\n      0xffffffffffffffffffffffffffffffffffffffff\n      and\n      eq\n        /* \".deps/remix-tests/Timelock.sol\":1066:1124  require(msg.sender == admin, \"Timelock: Caller not admin\") */\n      tag_112\n      jumpi\n      mload(0x40)\n      0x08c379a000000000000000000000000000000000000000000000000000000000\n      dup2\n      mstore\n      0x04\n      add\n      tag_113\n      swap1\n      tag_70\n      jump\t// in\n    tag_113:\n      mload(0x40)\n      dup1\n      swap2\n      sub\n      swap1\n      revert\n    tag_112:\n        /* \".deps/remix-tests/Timelock.sol\":3085:3099  bytes32 txHash */\n      0x00\n        /* \".deps/remix-tests/Timelock.sol\":3102:3156  getTxHash(target, value, signature, data, executeTime) */\n      tag_115\n        /* \".deps/remix-tests/Timelock.sol\":3112:3118  target */\n      dup7\n        /* \".deps/remix-tests/Timelock.sol\":3120:3125  value */\n      dup7\n        /* \".deps/remix-tests/Timelock.sol\":3127:3136  signature */\n      dup7\n        /* \".deps/remix-tests/Timelock.sol\":3138:3142  data */\n      dup7\n        /* \".deps/remix-tests/Timelock.sol\":3144:3155  executeTime */\n      dup7\n        /* \".deps/remix-tests/Timelock.sol\":3102:3111  getTxHash */\n      tag_17\n        /* \".deps/remix-tests/Timelock.sol\":3102:3156  getTxHash(target, value, signature, data, executeTime) */\n      jump\t// in\n    tag_115:\n        /* \".deps/remix-tests/Timelock.sol\":3085:3156  bytes32 txHash = getTxHash(target, value, signature, data, executeTime) */\n      swap1\n      pop\n        /* \".deps/remix-tests/Timelock.sol\":3177:3195  queuedTransactions */\n      0x02\n        /* \".deps/remix-tests/Timelock.sol\":3177:3203  queuedTransactions[txHash] */\n      0x00\n        /* \".deps/remix-tests/Timelock.sol\":3196:3202  txHash */\n      dup3\n        /* \".deps/remix-tests/Timelock.sol\":3177:3203  queuedTransactions[txHash] */\n      dup2\n      mstore\n      0x20\n      add\n      swap1\n      dup2\n      mstore\n      0x20\n      add\n      0x00\n      keccak256\n      0x00\n      swap1\n      sload\n      swap1\n      0x0100\n      exp\n      swap1\n      div\n      0xff\n      and\n        /* \".deps/remix-tests/Timelock.sol\":3169:3268  require(queuedTransactions[txHash], \"Timelock::cancelTransaction: Transaction hasn't been queued.\") */\n      tag_116\n      jumpi\n      mload(0x40)\n      0x08c379a000000000000000000000000000000000000000000000000000000000\n      dup2\n      mstore\n      0x04\n      add\n      tag_117\n      swap1\n      tag_118\n      jump\t// in\n    tag_117:\n      mload(0x40)\n      dup1\n      swap2\n      sub\n      swap1\n      revert\n    tag_116:\n        /* \".deps/remix-tests/Timelock.sol\":3342:3347  false */\n      0x00\n        /* \".deps/remix-tests/Timelock.sol\":3313:3331  queuedTransactions */\n      0x02\n        /* \".deps/remix-tests/Timelock.sol\":3313:3339  queuedTransactions[txHash] */\n      0x00\n        /* \".deps/remix-tests/Timelock.sol\":3332:3338  txHash */\n      dup4\n        /* \".deps/remix-tests/Timelock.sol\":3313:3339  queuedTransactions[txHash] */\n      dup2\n      mstore\n      0x20\n      add\n      swap1\n      dup2\n      mstore\n      0x20\n      add\n      0x00\n      keccak256\n      0x00\n        /* \".deps/remix-tests/Timelock.sol\":3313:3347  queuedTransactions[txHash] = false */\n      0x0100\n      exp\n      dup2\n      sload\n      dup2\n      0xff\n      mul\n      not\n      and\n      swap1\n      dup4\n      iszero\n      iszero\n      mul\n      or\n      swap1\n      sstore\n      pop\n        /* \".deps/remix-tests/Timelock.sol\":3391:3397  target */\n      dup6\n        /* \".deps/remix-tests/Timelock.sol\":3365:3435  CancelTransaction(txHash, target, value, signature, data, executeTime) */\n      0xffffffffffffffffffffffffffffffffffffffff\n      and\n        /* \".deps/remix-tests/Timelock.sol\":3383:3389  txHash */\n      dup2\n        /* \".deps/remix-tests/Timelock.sol\":3365:3435  CancelTransaction(txHash, target, value, signature, data, executeTime) */\n      0x2fffc091a501fd91bfbff27141450d3acb40fb8e6d8382b243ec7a812a3aaf87\n        /* \".deps/remix-tests/Timelock.sol\":3399:3404  value */\n      dup8\n        /* \".deps/remix-tests/Timelock.sol\":3406:3415  signature */\n      dup8\n        /* \".deps/remix-tests/Timelock.sol\":3417:3421  data */\n      dup8\n        /* \".deps/remix-tests/Timelock.sol\":3423:3434  executeTime */\n      dup8\n        /* \".deps/remix-tests/Timelock.sol\":3365:3435  CancelTransaction(txHash, target, value, signature, data, executeTime) */\n      mload(0x40)\n      tag_119\n      swap5\n      swap4\n      swap3\n      swap2\n      swap1\n      tag_99\n      jump\t// in\n    tag_119:\n      mload(0x40)\n      dup1\n      swap2\n      sub\n      swap1\n      log3\n        /* \".deps/remix-tests/Timelock.sol\":3072:3443  {... */\n      pop\n        /* \".deps/remix-tests/Timelock.sol\":2933:3443  function cancelTransaction(address target, uint256 value, string memory signature, bytes memory data, uint256 executeTime) public onlyOwner{... */\n      pop\n      pop\n      pop\n      pop\n      pop\n      jump\t// out\n        /* \".deps/remix-tests/Timelock.sol\":825:842  uint public delay */\n    tag_36:\n      sload(0x01)\n      dup2\n      jump\t// out\n        /* \".deps/remix-tests/Timelock.sol\":5071:5168  function getBlockTimestamp() public view returns (uint) {... */\n    tag_41:\n        /* \".deps/remix-tests/Timelock.sol\":5121:5125  uint */\n      0x00\n        /* \".deps/remix-tests/Timelock.sol\":5145:5160  block.timestamp */\n      timestamp\n        /* \".deps/remix-tests/Timelock.sol\":5138:5160  return block.timestamp */\n      swap1\n      pop\n        /* \".deps/remix-tests/Timelock.sol\":5071:5168  function getBlockTimestamp() public view returns (uint) {... */\n      swap1\n      jump\t// out\n        /* \".deps/remix-tests/Timelock.sol\":1602:1732  function changeAdmin(address newAdmin) public onlyTimelock {... */\n    tag_47:\n        /* \".deps/remix-tests/Timelock.sol\":1247:1251  this */\n      address\n        /* \".deps/remix-tests/Timelock.sol\":1225:1252  msg.sender == address(this) */\n      0xffffffffffffffffffffffffffffffffffffffff\n      and\n        /* \".deps/remix-tests/Timelock.sol\":1225:1235  msg.sender */\n      caller\n        /* \".deps/remix-tests/Timelock.sol\":1225:1252  msg.sender == address(this) */\n      0xffffffffffffffffffffffffffffffffffffffff\n      and\n      eq\n        /* \".deps/remix-tests/Timelock.sol\":1217:1286  require(msg.sender == address(this), \"Timelock: Caller not Timelock\") */\n      tag_122\n      jumpi\n      mload(0x40)\n      0x08c379a000000000000000000000000000000000000000000000000000000000\n      dup2\n      mstore\n      0x04\n      add\n      tag_123\n      swap1\n      tag_124\n      jump\t// in\n    tag_123:\n      mload(0x40)\n      dup1\n      swap2\n      sub\n      swap1\n      revert\n    tag_122:\n        /* \".deps/remix-tests/Timelock.sol\":1680:1688  newAdmin */\n      dup1\n        /* \".deps/remix-tests/Timelock.sol\":1672:1677  admin */\n      0x00\n      dup1\n        /* \".deps/remix-tests/Timelock.sol\":1672:1688  admin = newAdmin */\n      0x0100\n      exp\n      dup2\n      sload\n      dup2\n      0xffffffffffffffffffffffffffffffffffffffff\n      mul\n      not\n      and\n      swap1\n      dup4\n      0xffffffffffffffffffffffffffffffffffffffff\n      and\n      mul\n      or\n      swap1\n      sstore\n      pop\n        /* \".deps/remix-tests/Timelock.sol\":1715:1723  newAdmin */\n      dup1\n        /* \".deps/remix-tests/Timelock.sol\":1706:1724  NewAdmin(newAdmin) */\n      0xffffffffffffffffffffffffffffffffffffffff\n      and\n      0x71614071b88dee5e0b2ae578a9dd7b2ebbe9ae832ba419dc0242cd065a290b6c\n      mload(0x40)\n      mload(0x40)\n      dup1\n      swap2\n      sub\n      swap1\n      log2\n        /* \".deps/remix-tests/Timelock.sol\":1602:1732  function changeAdmin(address newAdmin) public onlyTimelock {... */\n      pop\n      jump\t// out\n        /* \".deps/remix-tests/Timelock.sol\":733:775  uint public constant GRACE_PERIOD = 7 days */\n    tag_50:\n        /* \".deps/remix-tests/Timelock.sol\":769:775  7 days */\n      0x093a80\n        /* \".deps/remix-tests/Timelock.sol\":733:775  uint public constant GRACE_PERIOD = 7 days */\n      dup2\n      jump\t// out\n        /* \".deps/remix-tests/Timelock.sol\":881:932  mapping (bytes32 => bool) public queuedTransactions */\n    tag_56:\n      mstore(0x20, 0x02)\n      dup1\n      0x00\n      mstore\n      keccak256(0x00, 0x40)\n      0x00\n      swap2\n      pop\n      sload\n      swap1\n      0x0100\n      exp\n      swap1\n      div\n      0xff\n      and\n      dup2\n      jump\t// out\n        /* \".deps/remix-tests/Timelock.sol\":687:707  address public admin */\n    tag_61:\n      0x00\n      dup1\n      sload\n      swap1\n      0x0100\n      exp\n      swap1\n      div\n      0xffffffffffffffffffffffffffffffffffffffff\n      and\n      dup2\n      jump\t// out\n        /* \"#utility.yul\":7:82   */\n    tag_126:\n        /* \"#utility.yul\":40:46   */\n      0x00\n        /* \"#utility.yul\":73:75   */\n      0x40\n        /* \"#utility.yul\":67:76   */\n      mload\n        /* \"#utility.yul\":57:76   */\n      swap1\n      pop\n        /* \"#utility.yul\":7:82   */\n      swap1\n      jump\t// out\n        /* \"#utility.yul\":88:205   */\n    tag_127:\n        /* \"#utility.yul\":197:198   */\n      0x00\n        /* \"#utility.yul\":194:195   */\n      dup1\n        /* \"#utility.yul\":187:199   */\n      revert\n        /* \"#utility.yul\":211:328   */\n    tag_128:\n        /* \"#utility.yul\":320:321   */\n      0x00\n        /* \"#utility.yul\":317:318   */\n      dup1\n        /* \"#utility.yul\":310:322   */\n      revert\n        /* \"#utility.yul\":334:460   */\n    tag_129:\n        /* \"#utility.yul\":371:378   */\n      0x00\n        /* \"#utility.yul\":411:453   */\n      0xffffffffffffffffffffffffffffffffffffffff\n        /* \"#utility.yul\":404:409   */\n      dup3\n        /* \"#utility.yul\":400:454   */\n      and\n        /* \"#utility.yul\":389:454   */\n      swap1\n      pop\n        /* \"#utility.yul\":334:460   */\n      swap2\n      swap1\n      pop\n      jump\t// out\n        /* \"#utility.yul\":466:562   */\n    tag_130:\n        /* \"#utility.yul\":503:510   */\n      0x00\n        /* \"#utility.yul\":532:556   */\n      tag_192\n        /* \"#utility.yul\":550:555   */\n      dup3\n        /* \"#utility.yul\":532:556   */\n      tag_129\n      jump\t// in\n    tag_192:\n        /* \"#utility.yul\":521:556   */\n      swap1\n      pop\n        /* \"#utility.yul\":466:562   */\n      swap2\n      swap1\n      pop\n      jump\t// out\n        /* \"#utility.yul\":568:690   */\n    tag_131:\n        /* \"#utility.yul\":641:665   */\n      tag_194\n        /* \"#utility.yul\":659:664   */\n      dup2\n        /* \"#utility.yul\":641:665   */\n      tag_130\n      jump\t// in\n    tag_194:\n        /* \"#utility.yul\":634:639   */\n      dup2\n        /* \"#utility.yul\":631:666   */\n      eq\n        /* \"#utility.yul\":621:684   */\n      tag_195\n      jumpi\n        /* \"#utility.yul\":680:681   */\n      0x00\n        /* \"#utility.yul\":677:678   */\n      dup1\n        /* \"#utility.yul\":670:682   */\n      revert\n        /* \"#utility.yul\":621:684   */\n    tag_195:\n        /* \"#utility.yul\":568:690   */\n      pop\n      jump\t// out\n        /* \"#utility.yul\":696:835   */\n    tag_132:\n        /* \"#utility.yul\":742:747   */\n      0x00\n        /* \"#utility.yul\":780:786   */\n      dup2\n        /* \"#utility.yul\":767:787   */\n      calldataload\n        /* \"#utility.yul\":758:787   */\n      swap1\n      pop\n        /* \"#utility.yul\":796:829   */\n      tag_197\n        /* \"#utility.yul\":823:828   */\n      dup2\n        /* \"#utility.yul\":796:829   */\n      tag_131\n      jump\t// in\n    tag_197:\n        /* \"#utility.yul\":696:835   */\n      swap3\n      swap2\n      pop\n      pop\n      jump\t// out\n        /* \"#utility.yul\":841:918   */\n    tag_133:\n        /* \"#utility.yul\":878:885   */\n      0x00\n        /* \"#utility.yul\":907:912   */\n      dup2\n        /* \"#utility.yul\":896:912   */\n      swap1\n      pop\n        /* \"#utility.yul\":841:918   */\n      swap2\n      swap1\n      pop\n      jump\t// out\n        /* \"#utility.yul\":924:1046   */\n    tag_134:\n        /* \"#utility.yul\":997:1021   */\n      tag_200\n        /* \"#utility.yul\":1015:1020   */\n      dup2\n        /* \"#utility.yul\":997:1021   */\n      tag_133\n      jump\t// in\n    tag_200:\n        /* \"#utility.yul\":990:995   */\n      dup2\n        /* \"#utility.yul\":987:1022   */\n      eq\n        /* \"#utility.yul\":977:1040   */\n      tag_201\n      jumpi\n        /* \"#utility.yul\":1036:1037   */\n      0x00\n        /* \"#utility.yul\":1033:1034   */\n      dup1\n        /* \"#utility.yul\":1026:1038   */\n      revert\n        /* \"#utility.yul\":977:1040   */\n    tag_201:\n        /* \"#utility.yul\":924:1046   */\n      pop\n      jump\t// out\n        /* \"#utility.yul\":1052:1191   */\n    tag_135:\n        /* \"#utility.yul\":1098:1103   */\n      0x00\n        /* \"#utility.yul\":1136:1142   */\n      dup2\n        /* \"#utility.yul\":1123:1143   */\n      calldataload\n        /* \"#utility.yul\":1114:1143   */\n      swap1\n      pop\n        /* \"#utility.yul\":1152:1185   */\n      tag_203\n        /* \"#utility.yul\":1179:1184   */\n      dup2\n        /* \"#utility.yul\":1152:1185   */\n      tag_134\n      jump\t// in\n    tag_203:\n        /* \"#utility.yul\":1052:1191   */\n      swap3\n      swap2\n      pop\n      pop\n      jump\t// out\n        /* \"#utility.yul\":1197:1314   */\n    tag_136:\n        /* \"#utility.yul\":1306:1307   */\n      0x00\n        /* \"#utility.yul\":1303:1304   */\n      dup1\n        /* \"#utility.yul\":1296:1308   */\n      revert\n        /* \"#utility.yul\":1320:1437   */\n    tag_137:\n        /* \"#utility.yul\":1429:1430   */\n      0x00\n        /* \"#utility.yul\":1426:1427   */\n      dup1\n        /* \"#utility.yul\":1419:1431   */\n      revert\n        /* \"#utility.yul\":1443:1545   */\n    tag_138:\n        /* \"#utility.yul\":1484:1490   */\n      0x00\n        /* \"#utility.yul\":1535:1537   */\n      0x1f\n        /* \"#utility.yul\":1531:1538   */\n      not\n        /* \"#utility.yul\":1526:1528   */\n      0x1f\n        /* \"#utility.yul\":1519:1524   */\n      dup4\n        /* \"#utility.yul\":1515:1529   */\n      add\n        /* \"#utility.yul\":1511:1539   */\n      and\n        /* \"#utility.yul\":1501:1539   */\n      swap1\n      pop\n        /* \"#utility.yul\":1443:1545   */\n      swap2\n      swap1\n      pop\n      jump\t// out\n        /* \"#utility.yul\":1551:1731   */\n    tag_139:\n        /* \"#utility.yul\":1599:1676   */\n      0x4e487b7100000000000000000000000000000000000000000000000000000000\n        /* \"#utility.yul\":1596:1597   */\n      0x00\n        /* \"#utility.yul\":1589:1677   */\n      mstore\n        /* \"#utility.yul\":1696:1700   */\n      0x41\n        /* \"#utility.yul\":1693:1694   */\n      0x04\n        /* \"#utility.yul\":1686:1701   */\n      mstore\n        /* \"#utility.yul\":1720:1724   */\n      0x24\n        /* \"#utility.yul\":1717:1718   */\n      0x00\n        /* \"#utility.yul\":1710:1725   */\n      revert\n        /* \"#utility.yul\":1737:2018   */\n    tag_140:\n        /* \"#utility.yul\":1820:1847   */\n      tag_209\n        /* \"#utility.yul\":1842:1846   */\n      dup3\n        /* \"#utility.yul\":1820:1847   */\n      tag_138\n      jump\t// in\n    tag_209:\n        /* \"#utility.yul\":1812:1818   */\n      dup2\n        /* \"#utility.yul\":1808:1848   */\n      add\n        /* \"#utility.yul\":1950:1956   */\n      dup2\n        /* \"#utility.yul\":1938:1948   */\n      dup2\n        /* \"#utility.yul\":1935:1957   */\n      lt\n        /* \"#utility.yul\":1914:1932   */\n      0xffffffffffffffff\n        /* \"#utility.yul\":1902:1912   */\n      dup3\n        /* \"#utility.yul\":1899:1933   */\n      gt\n        /* \"#utility.yul\":1896:1958   */\n      or\n        /* \"#utility.yul\":1893:1981   */\n      iszero\n      tag_210\n      jumpi\n        /* \"#utility.yul\":1961:1979   */\n      tag_211\n      tag_139\n      jump\t// in\n    tag_211:\n        /* \"#utility.yul\":1893:1981   */\n    tag_210:\n        /* \"#utility.yul\":2001:2011   */\n      dup1\n        /* \"#utility.yul\":1997:1999   */\n      0x40\n        /* \"#utility.yul\":1990:2012   */\n      mstore\n        /* \"#utility.yul\":1780:2018   */\n      pop\n        /* \"#utility.yul\":1737:2018   */\n      pop\n      pop\n      jump\t// out\n        /* \"#utility.yul\":2024:2153   */\n    tag_141:\n        /* \"#utility.yul\":2058:2064   */\n      0x00\n        /* \"#utility.yul\":2085:2105   */\n      tag_213\n      tag_126\n      jump\t// in\n    tag_213:\n        /* \"#utility.yul\":2075:2105   */\n      swap1\n      pop\n        /* \"#utility.yul\":2114:2147   */\n      tag_214\n        /* \"#utility.yul\":2142:2146   */\n      dup3\n        /* \"#utility.yul\":2134:2140   */\n      dup3\n        /* \"#utility.yul\":2114:2147   */\n      tag_140\n      jump\t// in\n    tag_214:\n        /* \"#utility.yul\":2024:2153   */\n      swap2\n      swap1\n      pop\n      jump\t// out\n        /* \"#utility.yul\":2159:2467   */\n    tag_142:\n        /* \"#utility.yul\":2221:2225   */\n      0x00\n        /* \"#utility.yul\":2311:2329   */\n      0xffffffffffffffff\n        /* \"#utility.yul\":2303:2309   */\n      dup3\n        /* \"#utility.yul\":2300:2330   */\n      gt\n        /* \"#utility.yul\":2297:2353   */\n      iszero\n      tag_216\n      jumpi\n        /* \"#utility.yul\":2333:2351   */\n      tag_217\n      tag_139\n      jump\t// in\n    tag_217:\n        /* \"#utility.yul\":2297:2353   */\n    tag_216:\n        /* \"#utility.yul\":2371:2400   */\n      tag_218\n        /* \"#utility.yul\":2393:2399   */\n      dup3\n        /* \"#utility.yul\":2371:2400   */\n      tag_138\n      jump\t// in\n    tag_218:\n        /* \"#utility.yul\":2363:2400   */\n      swap1\n      pop\n        /* \"#utility.yul\":2455:2459   */\n      0x20\n        /* \"#utility.yul\":2449:2453   */\n      dup2\n        /* \"#utility.yul\":2445:2460   */\n      add\n        /* \"#utility.yul\":2437:2460   */\n      swap1\n      pop\n        /* \"#utility.yul\":2159:2467   */\n      swap2\n      swap1\n      pop\n      jump\t// out\n        /* \"#utility.yul\":2473:2619   */\n    tag_143:\n        /* \"#utility.yul\":2570:2576   */\n      dup3\n        /* \"#utility.yul\":2565:2568   */\n      dup2\n        /* \"#utility.yul\":2560:2563   */\n      dup4\n        /* \"#utility.yul\":2547:2577   */\n      calldatacopy\n        /* \"#utility.yul\":2611:2612   */\n      0x00\n        /* \"#utility.yul\":2602:2608   */\n      dup4\n        /* \"#utility.yul\":2597:2600   */\n      dup4\n        /* \"#utility.yul\":2593:2609   */\n      add\n        /* \"#utility.yul\":2586:2613   */\n      mstore\n        /* \"#utility.yul\":2473:2619   */\n      pop\n      pop\n      pop\n      jump\t// out\n        /* \"#utility.yul\":2625:3050   */\n    tag_144:\n        /* \"#utility.yul\":2703:2708   */\n      0x00\n        /* \"#utility.yul\":2728:2794   */\n      tag_221\n        /* \"#utility.yul\":2744:2793   */\n      tag_222\n        /* \"#utility.yul\":2786:2792   */\n      dup5\n        /* \"#utility.yul\":2744:2793   */\n      tag_142\n      jump\t// in\n    tag_222:\n        /* \"#utility.yul\":2728:2794   */\n      tag_141\n      jump\t// in\n    tag_221:\n        /* \"#utility.yul\":2719:2794   */\n      swap1\n      pop\n        /* \"#utility.yul\":2817:2823   */\n      dup3\n        /* \"#utility.yul\":2810:2815   */\n      dup2\n        /* \"#utility.yul\":2803:2824   */\n      mstore\n        /* \"#utility.yul\":2855:2859   */\n      0x20\n        /* \"#utility.yul\":2848:2853   */\n      dup2\n        /* \"#utility.yul\":2844:2860   */\n      add\n        /* \"#utility.yul\":2893:2896   */\n      dup5\n        /* \"#utility.yul\":2884:2890   */\n      dup5\n        /* \"#utility.yul\":2879:2882   */\n      dup5\n        /* \"#utility.yul\":2875:2891   */\n      add\n        /* \"#utility.yul\":2872:2897   */\n      gt\n        /* \"#utility.yul\":2869:2981   */\n      iszero\n      tag_223\n      jumpi\n        /* \"#utility.yul\":2900:2979   */\n      tag_224\n      tag_137\n      jump\t// in\n    tag_224:\n        /* \"#utility.yul\":2869:2981   */\n    tag_223:\n        /* \"#utility.yul\":2990:3044   */\n      tag_225\n        /* \"#utility.yul\":3037:3043   */\n      dup5\n        /* \"#utility.yul\":3032:3035   */\n      dup3\n        /* \"#utility.yul\":3027:3030   */\n      dup6\n        /* \"#utility.yul\":2990:3044   */\n      tag_143\n      jump\t// in\n    tag_225:\n        /* \"#utility.yul\":2709:3050   */\n      pop\n        /* \"#utility.yul\":2625:3050   */\n      swap4\n      swap3\n      pop\n      pop\n      pop\n      jump\t// out\n        /* \"#utility.yul\":3070:3410   */\n    tag_145:\n        /* \"#utility.yul\":3126:3131   */\n      0x00\n        /* \"#utility.yul\":3175:3178   */\n      dup3\n        /* \"#utility.yul\":3168:3172   */\n      0x1f\n        /* \"#utility.yul\":3160:3166   */\n      dup4\n        /* \"#utility.yul\":3156:3173   */\n      add\n        /* \"#utility.yul\":3152:3179   */\n      slt\n        /* \"#utility.yul\":3142:3264   */\n      tag_227\n      jumpi\n        /* \"#utility.yul\":3183:3262   */\n      tag_228\n      tag_136\n      jump\t// in\n    tag_228:\n        /* \"#utility.yul\":3142:3264   */\n    tag_227:\n        /* \"#utility.yul\":3300:3306   */\n      dup2\n        /* \"#utility.yul\":3287:3307   */\n      calldataload\n        /* \"#utility.yul\":3325:3404   */\n      tag_229\n        /* \"#utility.yul\":3400:3403   */\n      dup5\n        /* \"#utility.yul\":3392:3398   */\n      dup3\n        /* \"#utility.yul\":3385:3389   */\n      0x20\n        /* \"#utility.yul\":3377:3383   */\n      dup7\n        /* \"#utility.yul\":3373:3390   */\n      add\n        /* \"#utility.yul\":3325:3404   */\n      tag_144\n      jump\t// in\n    tag_229:\n        /* \"#utility.yul\":3316:3404   */\n      swap2\n      pop\n        /* \"#utility.yul\":3132:3410   */\n      pop\n        /* \"#utility.yul\":3070:3410   */\n      swap3\n      swap2\n      pop\n      pop\n      jump\t// out\n        /* \"#utility.yul\":3416:3723   */\n    tag_146:\n        /* \"#utility.yul\":3477:3481   */\n      0x00\n        /* \"#utility.yul\":3567:3585   */\n      0xffffffffffffffff\n        /* \"#utility.yul\":3559:3565   */\n      dup3\n        /* \"#utility.yul\":3556:3586   */\n      gt\n        /* \"#utility.yul\":3553:3609   */\n      iszero\n      tag_231\n      jumpi\n        /* \"#utility.yul\":3589:3607   */\n      tag_232\n      tag_139\n      jump\t// in\n    tag_232:\n        /* \"#utility.yul\":3553:3609   */\n    tag_231:\n        /* \"#utility.yul\":3627:3656   */\n      tag_233\n        /* \"#utility.yul\":3649:3655   */\n      dup3\n        /* \"#utility.yul\":3627:3656   */\n      tag_138\n      jump\t// in\n    tag_233:\n        /* \"#utility.yul\":3619:3656   */\n      swap1\n      pop\n        /* \"#utility.yul\":3711:3715   */\n      0x20\n        /* \"#utility.yul\":3705:3709   */\n      dup2\n        /* \"#utility.yul\":3701:3716   */\n      add\n        /* \"#utility.yul\":3693:3716   */\n      swap1\n      pop\n        /* \"#utility.yul\":3416:3723   */\n      swap2\n      swap1\n      pop\n      jump\t// out\n        /* \"#utility.yul\":3729:4152   */\n    tag_147:\n        /* \"#utility.yul\":3806:3811   */\n      0x00\n        /* \"#utility.yul\":3831:3896   */\n      tag_235\n        /* \"#utility.yul\":3847:3895   */\n      tag_236\n        /* \"#utility.yul\":3888:3894   */\n      dup5\n        /* \"#utility.yul\":3847:3895   */\n      tag_146\n      jump\t// in\n    tag_236:\n        /* \"#utility.yul\":3831:3896   */\n      tag_141\n      jump\t// in\n    tag_235:\n        /* \"#utility.yul\":3822:3896   */\n      swap1\n      pop\n        /* \"#utility.yul\":3919:3925   */\n      dup3\n        /* \"#utility.yul\":3912:3917   */\n      dup2\n        /* \"#utility.yul\":3905:3926   */\n      mstore\n        /* \"#utility.yul\":3957:3961   */\n      0x20\n        /* \"#utility.yul\":3950:3955   */\n      dup2\n        /* \"#utility.yul\":3946:3962   */\n      add\n        /* \"#utility.yul\":3995:3998   */\n      dup5\n        /* \"#utility.yul\":3986:3992   */\n      dup5\n        /* \"#utility.yul\":3981:3984   */\n      dup5\n        /* \"#utility.yul\":3977:3993   */\n      add\n        /* \"#utility.yul\":3974:3999   */\n      gt\n        /* \"#utility.yul\":3971:4083   */\n      iszero\n      tag_237\n      jumpi\n        /* \"#utility.yul\":4002:4081   */\n      tag_238\n      tag_137\n      jump\t// in\n    tag_238:\n        /* \"#utility.yul\":3971:4083   */\n    tag_237:\n        /* \"#utility.yul\":4092:4146   */\n      tag_239\n        /* \"#utility.yul\":4139:4145   */\n      dup5\n        /* \"#utility.yul\":4134:4137   */\n      dup3\n        /* \"#utility.yul\":4129:4132   */\n      dup6\n        /* \"#utility.yul\":4092:4146   */\n      tag_143\n      jump\t// in\n    tag_239:\n        /* \"#utility.yul\":3812:4152   */\n      pop\n        /* \"#utility.yul\":3729:4152   */\n      swap4\n      swap3\n      pop\n      pop\n      pop\n      jump\t// out\n        /* \"#utility.yul\":4171:4509   */\n    tag_148:\n        /* \"#utility.yul\":4226:4231   */\n      0x00\n        /* \"#utility.yul\":4275:4278   */\n      dup3\n        /* \"#utility.yul\":4268:4272   */\n      0x1f\n        /* \"#utility.yul\":4260:4266   */\n      dup4\n        /* \"#utility.yul\":4256:4273   */\n      add\n        /* \"#utility.yul\":4252:4279   */\n      slt\n        /* \"#utility.yul\":4242:4364   */\n      tag_241\n      jumpi\n        /* \"#utility.yul\":4283:4362   */\n      tag_242\n      tag_136\n      jump\t// in\n    tag_242:\n        /* \"#utility.yul\":4242:4364   */\n    tag_241:\n        /* \"#utility.yul\":4400:4406   */\n      dup2\n        /* \"#utility.yul\":4387:4407   */\n      calldataload\n        /* \"#utility.yul\":4425:4503   */\n      tag_243\n        /* \"#utility.yul\":4499:4502   */\n      dup5\n        /* \"#utility.yul\":4491:4497   */\n      dup3\n        /* \"#utility.yul\":4484:4488   */\n      0x20\n        /* \"#utility.yul\":4476:4482   */\n      dup7\n        /* \"#utility.yul\":4472:4489   */\n      add\n        /* \"#utility.yul\":4425:4503   */\n      tag_147\n      jump\t// in\n    tag_243:\n        /* \"#utility.yul\":4416:4503   */\n      swap2\n      pop\n        /* \"#utility.yul\":4232:4509   */\n      pop\n        /* \"#utility.yul\":4171:4509   */\n      swap3\n      swap2\n      pop\n      pop\n      jump\t// out\n        /* \"#utility.yul\":4515:5784   */\n    tag_16:\n        /* \"#utility.yul\":4629:4635   */\n      0x00\n        /* \"#utility.yul\":4637:4643   */\n      dup1\n        /* \"#utility.yul\":4645:4651   */\n      0x00\n        /* \"#utility.yul\":4653:4659   */\n      dup1\n        /* \"#utility.yul\":4661:4667   */\n      0x00\n        /* \"#utility.yul\":4710:4713   */\n      0xa0\n        /* \"#utility.yul\":4698:4707   */\n      dup7\n        /* \"#utility.yul\":4689:4696   */\n      dup9\n        /* \"#utility.yul\":4685:4708   */\n      sub\n        /* \"#utility.yul\":4681:4714   */\n      slt\n        /* \"#utility.yul\":4678:4798   */\n      iszero\n      tag_245\n      jumpi\n        /* \"#utility.yul\":4717:4796   */\n      tag_246\n      tag_127\n      jump\t// in\n    tag_246:\n        /* \"#utility.yul\":4678:4798   */\n    tag_245:\n        /* \"#utility.yul\":4837:4838   */\n      0x00\n        /* \"#utility.yul\":4862:4915   */\n      tag_247\n        /* \"#utility.yul\":4907:4914   */\n      dup9\n        /* \"#utility.yul\":4898:4904   */\n      dup3\n        /* \"#utility.yul\":4887:4896   */\n      dup10\n        /* \"#utility.yul\":4883:4905   */\n      add\n        /* \"#utility.yul\":4862:4915   */\n      tag_132\n      jump\t// in\n    tag_247:\n        /* \"#utility.yul\":4852:4915   */\n      swap6\n      pop\n        /* \"#utility.yul\":4808:4925   */\n      pop\n        /* \"#utility.yul\":4964:4966   */\n      0x20\n        /* \"#utility.yul\":4990:5043   */\n      tag_248\n        /* \"#utility.yul\":5035:5042   */\n      dup9\n        /* \"#utility.yul\":5026:5032   */\n      dup3\n        /* \"#utility.yul\":5015:5024   */\n      dup10\n        /* \"#utility.yul\":5011:5033   */\n      add\n        /* \"#utility.yul\":4990:5043   */\n      tag_135\n      jump\t// in\n    tag_248:\n        /* \"#utility.yul\":4980:5043   */\n      swap5\n      pop\n        /* \"#utility.yul\":4935:5053   */\n      pop\n        /* \"#utility.yul\":5120:5122   */\n      0x40\n        /* \"#utility.yul\":5109:5118   */\n      dup7\n        /* \"#utility.yul\":5105:5123   */\n      add\n        /* \"#utility.yul\":5092:5124   */\n      calldataload\n        /* \"#utility.yul\":5151:5169   */\n      0xffffffffffffffff\n        /* \"#utility.yul\":5143:5149   */\n      dup2\n        /* \"#utility.yul\":5140:5170   */\n      gt\n        /* \"#utility.yul\":5137:5254   */\n      iszero\n      tag_249\n      jumpi\n        /* \"#utility.yul\":5173:5252   */\n      tag_250\n      tag_128\n      jump\t// in\n    tag_250:\n        /* \"#utility.yul\":5137:5254   */\n    tag_249:\n        /* \"#utility.yul\":5278:5341   */\n      tag_251\n        /* \"#utility.yul\":5333:5340   */\n      dup9\n        /* \"#utility.yul\":5324:5330   */\n      dup3\n        /* \"#utility.yul\":5313:5322   */\n      dup10\n        /* \"#utility.yul\":5309:5331   */\n      add\n        /* \"#utility.yul\":5278:5341   */\n      tag_145\n      jump\t// in\n    tag_251:\n        /* \"#utility.yul\":5268:5341   */\n      swap4\n      pop\n        /* \"#utility.yul\":5063:5351   */\n      pop\n        /* \"#utility.yul\":5418:5420   */\n      0x60\n        /* \"#utility.yul\":5407:5416   */\n      dup7\n        /* \"#utility.yul\":5403:5421   */\n      add\n        /* \"#utility.yul\":5390:5422   */\n      calldataload\n        /* \"#utility.yul\":5449:5467   */\n      0xffffffffffffffff\n        /* \"#utility.yul\":5441:5447   */\n      dup2\n        /* \"#utility.yul\":5438:5468   */\n      gt\n        /* \"#utility.yul\":5435:5552   */\n      iszero\n      tag_252\n      jumpi\n        /* \"#utility.yul\":5471:5550   */\n      tag_253\n      tag_128\n      jump\t// in\n    tag_253:\n        /* \"#utility.yul\":5435:5552   */\n    tag_252:\n        /* \"#utility.yul\":5576:5638   */\n      tag_254\n        /* \"#utility.yul\":5630:5637   */\n      dup9\n        /* \"#utility.yul\":5621:5627   */\n      dup3\n        /* \"#utility.yul\":5610:5619   */\n      dup10\n        /* \"#utility.yul\":5606:5628   */\n      add\n        /* \"#utility.yul\":5576:5638   */\n      tag_148\n      jump\t// in\n    tag_254:\n        /* \"#utility.yul\":5566:5638   */\n      swap3\n      pop\n        /* \"#utility.yul\":5361:5648   */\n      pop\n        /* \"#utility.yul\":5687:5690   */\n      0x80\n        /* \"#utility.yul\":5714:5767   */\n      tag_255\n        /* \"#utility.yul\":5759:5766   */\n      dup9\n        /* \"#utility.yul\":5750:5756   */\n      dup3\n        /* \"#utility.yul\":5739:5748   */\n      dup10\n        /* \"#utility.yul\":5735:5757   */\n      add\n        /* \"#utility.yul\":5714:5767   */\n      tag_135\n      jump\t// in\n    tag_255:\n        /* \"#utility.yul\":5704:5767   */\n      swap2\n      pop\n        /* \"#utility.yul\":5658:5777   */\n      pop\n        /* \"#utility.yul\":4515:5784   */\n      swap3\n      swap6\n      pop\n      swap3\n      swap6\n      swap1\n      swap4\n      pop\n      jump\t// out\n        /* \"#utility.yul\":5790:5867   */\n    tag_149:\n        /* \"#utility.yul\":5827:5834   */\n      0x00\n        /* \"#utility.yul\":5856:5861   */\n      dup2\n        /* \"#utility.yul\":5845:5861   */\n      swap1\n      pop\n        /* \"#utility.yul\":5790:5867   */\n      swap2\n      swap1\n      pop\n      jump\t// out\n        /* \"#utility.yul\":5873:5991   */\n    tag_150:\n        /* \"#utility.yul\":5960:5984   */\n      tag_258\n        /* \"#utility.yul\":5978:5983   */\n      dup2\n        /* \"#utility.yul\":5960:5984   */\n      tag_149\n      jump\t// in\n    tag_258:\n        /* \"#utility.yul\":5955:5958   */\n      dup3\n        /* \"#utility.yul\":5948:5985   */\n      mstore\n        /* \"#utility.yul\":5873:5991   */\n      pop\n      pop\n      jump\t// out\n        /* \"#utility.yul\":5997:6219   */\n    tag_19:\n        /* \"#utility.yul\":6090:6094   */\n      0x00\n        /* \"#utility.yul\":6128:6130   */\n      0x20\n        /* \"#utility.yul\":6117:6126   */\n      dup3\n        /* \"#utility.yul\":6113:6131   */\n      add\n        /* \"#utility.yul\":6105:6131   */\n      swap1\n      pop\n        /* \"#utility.yul\":6141:6212   */\n      tag_260\n        /* \"#utility.yul\":6209:6210   */\n      0x00\n        /* \"#utility.yul\":6198:6207   */\n      dup4\n        /* \"#utility.yul\":6194:6211   */\n      add\n        /* \"#utility.yul\":6185:6191   */\n      dup5\n        /* \"#utility.yul\":6141:6212   */\n      tag_150\n      jump\t// in\n    tag_260:\n        /* \"#utility.yul\":5997:6219   */\n      swap3\n      swap2\n      pop\n      pop\n      jump\t// out\n        /* \"#utility.yul\":6225:6323   */\n    tag_151:\n        /* \"#utility.yul\":6276:6282   */\n      0x00\n        /* \"#utility.yul\":6310:6315   */\n      dup2\n        /* \"#utility.yul\":6304:6316   */\n      mload\n        /* \"#utility.yul\":6294:6316   */\n      swap1\n      pop\n        /* \"#utility.yul\":6225:6323   */\n      swap2\n      swap1\n      pop\n      jump\t// out\n        /* \"#utility.yul\":6329:6497   */\n    tag_152:\n        /* \"#utility.yul\":6412:6423   */\n      0x00\n        /* \"#utility.yul\":6446:6452   */\n      dup3\n        /* \"#utility.yul\":6441:6444   */\n      dup3\n        /* \"#utility.yul\":6434:6453   */\n      mstore\n        /* \"#utility.yul\":6486:6490   */\n      0x20\n        /* \"#utility.yul\":6481:6484   */\n      dup3\n        /* \"#utility.yul\":6477:6491   */\n      add\n        /* \"#utility.yul\":6462:6491   */\n      swap1\n      pop\n        /* \"#utility.yul\":6329:6497   */\n      swap3\n      swap2\n      pop\n      pop\n      jump\t// out\n        /* \"#utility.yul\":6503:6749   */\n    tag_153:\n        /* \"#utility.yul\":6584:6585   */\n      0x00\n        /* \"#utility.yul\":6594:6707   */\n    tag_264:\n        /* \"#utility.yul\":6608:6614   */\n      dup4\n        /* \"#utility.yul\":6605:6606   */\n      dup2\n        /* \"#utility.yul\":6602:6615   */\n      lt\n        /* \"#utility.yul\":6594:6707   */\n      iszero\n      tag_266\n      jumpi\n        /* \"#utility.yul\":6693:6694   */\n      dup1\n        /* \"#utility.yul\":6688:6691   */\n      dup3\n        /* \"#utility.yul\":6684:6695   */\n      add\n        /* \"#utility.yul\":6678:6696   */\n      mload\n        /* \"#utility.yul\":6674:6675   */\n      dup2\n        /* \"#utility.yul\":6669:6672   */\n      dup5\n        /* \"#utility.yul\":6665:6676   */\n      add\n        /* \"#utility.yul\":6658:6697   */\n      mstore\n        /* \"#utility.yul\":6630:6632   */\n      0x20\n        /* \"#utility.yul\":6627:6628   */\n      dup2\n        /* \"#utility.yul\":6623:6633   */\n      add\n        /* \"#utility.yul\":6618:6633   */\n      swap1\n      pop\n        /* \"#utility.yul\":6594:6707   */\n      jump(tag_264)\n    tag_266:\n        /* \"#utility.yul\":6741:6742   */\n      0x00\n        /* \"#utility.yul\":6732:6738   */\n      dup5\n        /* \"#utility.yul\":6727:6730   */\n      dup5\n        /* \"#utility.yul\":6723:6739   */\n      add\n        /* \"#utility.yul\":6716:6743   */\n      mstore\n        /* \"#utility.yul\":6565:6749   */\n      pop\n        /* \"#utility.yul\":6503:6749   */\n      pop\n      pop\n      pop\n      jump\t// out\n        /* \"#utility.yul\":6755:7128   */\n    tag_154:\n        /* \"#utility.yul\":6841:6844   */\n      0x00\n        /* \"#utility.yul\":6869:6907   */\n      tag_268\n        /* \"#utility.yul\":6901:6906   */\n      dup3\n        /* \"#utility.yul\":6869:6907   */\n      tag_151\n      jump\t// in\n    tag_268:\n        /* \"#utility.yul\":6923:6993   */\n      tag_269\n        /* \"#utility.yul\":6986:6992   */\n      dup2\n        /* \"#utility.yul\":6981:6984   */\n      dup6\n        /* \"#utility.yul\":6923:6993   */\n      tag_152\n      jump\t// in\n    tag_269:\n        /* \"#utility.yul\":6916:6993   */\n      swap4\n      pop\n        /* \"#utility.yul\":7002:7067   */\n      tag_270\n        /* \"#utility.yul\":7060:7066   */\n      dup2\n        /* \"#utility.yul\":7055:7058   */\n      dup6\n        /* \"#utility.yul\":7048:7052   */\n      0x20\n        /* \"#utility.yul\":7041:7046   */\n      dup7\n        /* \"#utility.yul\":7037:7053   */\n      add\n        /* \"#utility.yul\":7002:7067   */\n      tag_153\n      jump\t// in\n    tag_270:\n        /* \"#utility.yul\":7092:7121   */\n      tag_271\n        /* \"#utility.yul\":7114:7120   */\n      dup2\n        /* \"#utility.yul\":7092:7121   */\n      tag_138\n      jump\t// in\n    tag_271:\n        /* \"#utility.yul\":7087:7090   */\n      dup5\n        /* \"#utility.yul\":7083:7122   */\n      add\n        /* \"#utility.yul\":7076:7122   */\n      swap2\n      pop\n        /* \"#utility.yul\":6845:7128   */\n      pop\n        /* \"#utility.yul\":6755:7128   */\n      swap3\n      swap2\n      pop\n      pop\n      jump\t// out\n        /* \"#utility.yul\":7134:7443   */\n    tag_24:\n        /* \"#utility.yul\":7245:7249   */\n      0x00\n        /* \"#utility.yul\":7283:7285   */\n      0x20\n        /* \"#utility.yul\":7272:7281   */\n      dup3\n        /* \"#utility.yul\":7268:7286   */\n      add\n        /* \"#utility.yul\":7260:7286   */\n      swap1\n      pop\n        /* \"#utility.yul\":7332:7341   */\n      dup2\n        /* \"#utility.yul\":7326:7330   */\n      dup2\n        /* \"#utility.yul\":7322:7342   */\n      sub\n        /* \"#utility.yul\":7318:7319   */\n      0x00\n        /* \"#utility.yul\":7307:7316   */\n      dup4\n        /* \"#utility.yul\":7303:7320   */\n      add\n        /* \"#utility.yul\":7296:7343   */\n      mstore\n        /* \"#utility.yul\":7360:7436   */\n      tag_273\n        /* \"#utility.yul\":7431:7435   */\n      dup2\n        /* \"#utility.yul\":7422:7428   */\n      dup5\n        /* \"#utility.yul\":7360:7436   */\n      tag_154\n      jump\t// in\n    tag_273:\n        /* \"#utility.yul\":7352:7436   */\n      swap1\n      pop\n        /* \"#utility.yul\":7134:7443   */\n      swap3\n      swap2\n      pop\n      pop\n      jump\t// out\n        /* \"#utility.yul\":7449:7567   */\n    tag_155:\n        /* \"#utility.yul\":7536:7560   */\n      tag_275\n        /* \"#utility.yul\":7554:7559   */\n      dup2\n        /* \"#utility.yul\":7536:7560   */\n      tag_133\n      jump\t// in\n    tag_275:\n        /* \"#utility.yul\":7531:7534   */\n      dup3\n        /* \"#utility.yul\":7524:7561   */\n      mstore\n        /* \"#utility.yul\":7449:7567   */\n      pop\n      pop\n      jump\t// out\n        /* \"#utility.yul\":7573:7795   */\n    tag_38:\n        /* \"#utility.yul\":7666:7670   */\n      0x00\n        /* \"#utility.yul\":7704:7706   */\n      0x20\n        /* \"#utility.yul\":7693:7702   */\n      dup3\n        /* \"#utility.yul\":7689:7707   */\n      add\n        /* \"#utility.yul\":7681:7707   */\n      swap1\n      pop\n        /* \"#utility.yul\":7717:7788   */\n      tag_277\n        /* \"#utility.yul\":7785:7786   */\n      0x00\n        /* \"#utility.yul\":7774:7783   */\n      dup4\n        /* \"#utility.yul\":7770:7787   */\n      add\n        /* \"#utility.yul\":7761:7767   */\n      dup5\n        /* \"#utility.yul\":7717:7788   */\n      tag_155\n      jump\t// in\n    tag_277:\n        /* \"#utility.yul\":7573:7795   */\n      swap3\n      swap2\n      pop\n      pop\n      jump\t// out\n        /* \"#utility.yul\":7801:8130   */\n    tag_46:\n        /* \"#utility.yul\":7860:7866   */\n      0x00\n        /* \"#utility.yul\":7909:7911   */\n      0x20\n        /* \"#utility.yul\":7897:7906   */\n      dup3\n        /* \"#utility.yul\":7888:7895   */\n      dup5\n        /* \"#utility.yul\":7884:7907   */\n      sub\n        /* \"#utility.yul\":7880:7912   */\n      slt\n        /* \"#utility.yul\":7877:7996   */\n      iszero\n      tag_279\n      jumpi\n        /* \"#utility.yul\":7915:7994   */\n      tag_280\n      tag_127\n      jump\t// in\n    tag_280:\n        /* \"#utility.yul\":7877:7996   */\n    tag_279:\n        /* \"#utility.yul\":8035:8036   */\n      0x00\n        /* \"#utility.yul\":8060:8113   */\n      tag_281\n        /* \"#utility.yul\":8105:8112   */\n      dup5\n        /* \"#utility.yul\":8096:8102   */\n      dup3\n        /* \"#utility.yul\":8085:8094   */\n      dup6\n        /* \"#utility.yul\":8081:8103   */\n      add\n        /* \"#utility.yul\":8060:8113   */\n      tag_132\n      jump\t// in\n    tag_281:\n        /* \"#utility.yul\":8050:8113   */\n      swap2\n      pop\n        /* \"#utility.yul\":8006:8123   */\n      pop\n        /* \"#utility.yul\":7801:8130   */\n      swap3\n      swap2\n      pop\n      pop\n      jump\t// out\n        /* \"#utility.yul\":8136:8258   */\n    tag_156:\n        /* \"#utility.yul\":8209:8233   */\n      tag_283\n        /* \"#utility.yul\":8227:8232   */\n      dup2\n        /* \"#utility.yul\":8209:8233   */\n      tag_149\n      jump\t// in\n    tag_283:\n        /* \"#utility.yul\":8202:8207   */\n      dup2\n        /* \"#utility.yul\":8199:8234   */\n      eq\n        /* \"#utility.yul\":8189:8252   */\n      tag_284\n      jumpi\n        /* \"#utility.yul\":8248:8249   */\n      0x00\n        /* \"#utility.yul\":8245:8246   */\n      dup1\n        /* \"#utility.yul\":8238:8250   */\n      revert\n        /* \"#utility.yul\":8189:8252   */\n    tag_284:\n        /* \"#utility.yul\":8136:8258   */\n      pop\n      jump\t// out\n        /* \"#utility.yul\":8264:8403   */\n    tag_157:\n        /* \"#utility.yul\":8310:8315   */\n      0x00\n        /* \"#utility.yul\":8348:8354   */\n      dup2\n        /* \"#utility.yul\":8335:8355   */\n      calldataload\n        /* \"#utility.yul\":8326:8355   */\n      swap1\n      pop\n        /* \"#utility.yul\":8364:8397   */\n      tag_286\n        /* \"#utility.yul\":8391:8396   */\n      dup2\n        /* \"#utility.yul\":8364:8397   */\n      tag_156\n      jump\t// in\n    tag_286:\n        /* \"#utility.yul\":8264:8403   */\n      swap3\n      swap2\n      pop\n      pop\n      jump\t// out\n        /* \"#utility.yul\":8409:8738   */\n    tag_55:\n        /* \"#utility.yul\":8468:8474   */\n      0x00\n        /* \"#utility.yul\":8517:8519   */\n      0x20\n        /* \"#utility.yul\":8505:8514   */\n      dup3\n        /* \"#utility.yul\":8496:8503   */\n      dup5\n        /* \"#utility.yul\":8492:8515   */\n      sub\n        /* \"#utility.yul\":8488:8520   */\n      slt\n        /* \"#utility.yul\":8485:8604   */\n      iszero\n      tag_288\n      jumpi\n        /* \"#utility.yul\":8523:8602   */\n      tag_289\n      tag_127\n      jump\t// in\n    tag_289:\n        /* \"#utility.yul\":8485:8604   */\n    tag_288:\n        /* \"#utility.yul\":8643:8644   */\n      0x00\n        /* \"#utility.yul\":8668:8721   */\n      tag_290\n        /* \"#utility.yul\":8713:8720   */\n      dup5\n        /* \"#utility.yul\":8704:8710   */\n      dup3\n        /* \"#utility.yul\":8693:8702   */\n      dup6\n        /* \"#utility.yul\":8689:8711   */\n      add\n        /* \"#utility.yul\":8668:8721   */\n      tag_157\n      jump\t// in\n    tag_290:\n        /* \"#utility.yul\":8658:8721   */\n      swap2\n      pop\n        /* \"#utility.yul\":8614:8731   */\n      pop\n        /* \"#utility.yul\":8409:8738   */\n      swap3\n      swap2\n      pop\n      pop\n      jump\t// out\n        /* \"#utility.yul\":8744:8834   */\n    tag_158:\n        /* \"#utility.yul\":8778:8785   */\n      0x00\n        /* \"#utility.yul\":8821:8826   */\n      dup2\n        /* \"#utility.yul\":8814:8827   */\n      iszero\n        /* \"#utility.yul\":8807:8828   */\n      iszero\n        /* \"#utility.yul\":8796:8828   */\n      swap1\n      pop\n        /* \"#utility.yul\":8744:8834   */\n      swap2\n      swap1\n      pop\n      jump\t// out\n        /* \"#utility.yul\":8840:8949   */\n    tag_159:\n        /* \"#utility.yul\":8921:8942   */\n      tag_293\n        /* \"#utility.yul\":8936:8941   */\n      dup2\n        /* \"#utility.yul\":8921:8942   */\n      tag_158\n      jump\t// in\n    tag_293:\n        /* \"#utility.yul\":8916:8919   */\n      dup3\n        /* \"#utility.yul\":8909:8943   */\n      mstore\n        /* \"#utility.yul\":8840:8949   */\n      pop\n      pop\n      jump\t// out\n        /* \"#utility.yul\":8955:9165   */\n    tag_58:\n        /* \"#utility.yul\":9042:9046   */\n      0x00\n        /* \"#utility.yul\":9080:9082   */\n      0x20\n        /* \"#utility.yul\":9069:9078   */\n      dup3\n        /* \"#utility.yul\":9065:9083   */\n      add\n        /* \"#utility.yul\":9057:9083   */\n      swap1\n      pop\n        /* \"#utility.yul\":9093:9158   */\n      tag_295\n        /* \"#utility.yul\":9155:9156   */\n      0x00\n        /* \"#utility.yul\":9144:9153   */\n      dup4\n        /* \"#utility.yul\":9140:9157   */\n      add\n        /* \"#utility.yul\":9131:9137   */\n      dup5\n        /* \"#utility.yul\":9093:9158   */\n      tag_159\n      jump\t// in\n    tag_295:\n        /* \"#utility.yul\":8955:9165   */\n      swap3\n      swap2\n      pop\n      pop\n      jump\t// out\n        /* \"#utility.yul\":9171:9289   */\n    tag_160:\n        /* \"#utility.yul\":9258:9282   */\n      tag_297\n        /* \"#utility.yul\":9276:9281   */\n      dup2\n        /* \"#utility.yul\":9258:9282   */\n      tag_130\n      jump\t// in\n    tag_297:\n        /* \"#utility.yul\":9253:9256   */\n      dup3\n        /* \"#utility.yul\":9246:9283   */\n      mstore\n        /* \"#utility.yul\":9171:9289   */\n      pop\n      pop\n      jump\t// out\n        /* \"#utility.yul\":9295:9517   */\n    tag_63:\n        /* \"#utility.yul\":9388:9392   */\n      0x00\n        /* \"#utility.yul\":9426:9428   */\n      0x20\n        /* \"#utility.yul\":9415:9424   */\n      dup3\n        /* \"#utility.yul\":9411:9429   */\n      add\n        /* \"#utility.yul\":9403:9429   */\n      swap1\n      pop\n        /* \"#utility.yul\":9439:9510   */\n      tag_299\n        /* \"#utility.yul\":9507:9508   */\n      0x00\n        /* \"#utility.yul\":9496:9505   */\n      dup4\n        /* \"#utility.yul\":9492:9509   */\n      add\n        /* \"#utility.yul\":9483:9489   */\n      dup5\n        /* \"#utility.yul\":9439:9510   */\n      tag_160\n      jump\t// in\n    tag_299:\n        /* \"#utility.yul\":9295:9517   */\n      swap3\n      swap2\n      pop\n      pop\n      jump\t// out\n        /* \"#utility.yul\":9523:9622   */\n    tag_161:\n        /* \"#utility.yul\":9575:9581   */\n      0x00\n        /* \"#utility.yul\":9609:9614   */\n      dup2\n        /* \"#utility.yul\":9603:9615   */\n      mload\n        /* \"#utility.yul\":9593:9615   */\n      swap1\n      pop\n        /* \"#utility.yul\":9523:9622   */\n      swap2\n      swap1\n      pop\n      jump\t// out\n        /* \"#utility.yul\":9628:9797   */\n    tag_162:\n        /* \"#utility.yul\":9712:9723   */\n      0x00\n        /* \"#utility.yul\":9746:9752   */\n      dup3\n        /* \"#utility.yul\":9741:9744   */\n      dup3\n        /* \"#utility.yul\":9734:9753   */\n      mstore\n        /* \"#utility.yul\":9786:9790   */\n      0x20\n        /* \"#utility.yul\":9781:9784   */\n      dup3\n        /* \"#utility.yul\":9777:9791   */\n      add\n        /* \"#utility.yul\":9762:9791   */\n      swap1\n      pop\n        /* \"#utility.yul\":9628:9797   */\n      swap3\n      swap2\n      pop\n      pop\n      jump\t// out\n        /* \"#utility.yul\":9803:10180   */\n    tag_163:\n        /* \"#utility.yul\":9891:9894   */\n      0x00\n        /* \"#utility.yul\":9919:9958   */\n      tag_303\n        /* \"#utility.yul\":9952:9957   */\n      dup3\n        /* \"#utility.yul\":9919:9958   */\n      tag_161\n      jump\t// in\n    tag_303:\n        /* \"#utility.yul\":9974:10045   */\n      tag_304\n        /* \"#utility.yul\":10038:10044   */\n      dup2\n        /* \"#utility.yul\":10033:10036   */\n      dup6\n        /* \"#utility.yul\":9974:10045   */\n      tag_162\n      jump\t// in\n    tag_304:\n        /* \"#utility.yul\":9967:10045   */\n      swap4\n      pop\n        /* \"#utility.yul\":10054:10119   */\n      tag_305\n        /* \"#utility.yul\":10112:10118   */\n      dup2\n        /* \"#utility.yul\":10107:10110   */\n      dup6\n        /* \"#utility.yul\":10100:10104   */\n      0x20\n        /* \"#utility.yul\":10093:10098   */\n      dup7\n        /* \"#utility.yul\":10089:10105   */\n      add\n        /* \"#utility.yul\":10054:10119   */\n      tag_153\n      jump\t// in\n    tag_305:\n        /* \"#utility.yul\":10144:10173   */\n      tag_306\n        /* \"#utility.yul\":10166:10172   */\n      dup2\n        /* \"#utility.yul\":10144:10173   */\n      tag_138\n      jump\t// in\n    tag_306:\n        /* \"#utility.yul\":10139:10142   */\n      dup5\n        /* \"#utility.yul\":10135:10174   */\n      add\n        /* \"#utility.yul\":10128:10174   */\n      swap2\n      pop\n        /* \"#utility.yul\":9895:10180   */\n      pop\n        /* \"#utility.yul\":9803:10180   */\n      swap3\n      swap2\n      pop\n      pop\n      jump\t// out\n        /* \"#utility.yul\":10186:11028   */\n    tag_66:\n        /* \"#utility.yul\":10429:10433   */\n      0x00\n        /* \"#utility.yul\":10467:10470   */\n      0xa0\n        /* \"#utility.yul\":10456:10465   */\n      dup3\n        /* \"#utility.yul\":10452:10471   */\n      add\n        /* \"#utility.yul\":10444:10471   */\n      swap1\n      pop\n        /* \"#utility.yul\":10481:10552   */\n      tag_308\n        /* \"#utility.yul\":10549:10550   */\n      0x00\n        /* \"#utility.yul\":10538:10547   */\n      dup4\n        /* \"#utility.yul\":10534:10551   */\n      add\n        /* \"#utility.yul\":10525:10531   */\n      dup9\n        /* \"#utility.yul\":10481:10552   */\n      tag_160\n      jump\t// in\n    tag_308:\n        /* \"#utility.yul\":10562:10634   */\n      tag_309\n        /* \"#utility.yul\":10630:10632   */\n      0x20\n        /* \"#utility.yul\":10619:10628   */\n      dup4\n        /* \"#utility.yul\":10615:10633   */\n      add\n        /* \"#utility.yul\":10606:10612   */\n      dup8\n        /* \"#utility.yul\":10562:10634   */\n      tag_155\n      jump\t// in\n    tag_309:\n        /* \"#utility.yul\":10681:10690   */\n      dup2\n        /* \"#utility.yul\":10675:10679   */\n      dup2\n        /* \"#utility.yul\":10671:10691   */\n      sub\n        /* \"#utility.yul\":10666:10668   */\n      0x40\n        /* \"#utility.yul\":10655:10664   */\n      dup4\n        /* \"#utility.yul\":10651:10669   */\n      add\n        /* \"#utility.yul\":10644:10692   */\n      mstore\n        /* \"#utility.yul\":10709:10787   */\n      tag_310\n        /* \"#utility.yul\":10782:10786   */\n      dup2\n        /* \"#utility.yul\":10773:10779   */\n      dup7\n        /* \"#utility.yul\":10709:10787   */\n      tag_163\n      jump\t// in\n    tag_310:\n        /* \"#utility.yul\":10701:10787   */\n      swap1\n      pop\n        /* \"#utility.yul\":10834:10843   */\n      dup2\n        /* \"#utility.yul\":10828:10832   */\n      dup2\n        /* \"#utility.yul\":10824:10844   */\n      sub\n        /* \"#utility.yul\":10819:10821   */\n      0x60\n        /* \"#utility.yul\":10808:10817   */\n      dup4\n        /* \"#utility.yul\":10804:10822   */\n      add\n        /* \"#utility.yul\":10797:10845   */\n      mstore\n        /* \"#utility.yul\":10862:10938   */\n      tag_311\n        /* \"#utility.yul\":10933:10937   */\n      dup2\n        /* \"#utility.yul\":10924:10930   */\n      dup6\n        /* \"#utility.yul\":10862:10938   */\n      tag_154\n      jump\t// in\n    tag_311:\n        /* \"#utility.yul\":10854:10938   */\n      swap1\n      pop\n        /* \"#utility.yul\":10948:11021   */\n      tag_312\n        /* \"#utility.yul\":11016:11019   */\n      0x80\n        /* \"#utility.yul\":11005:11014   */\n      dup4\n        /* \"#utility.yul\":11001:11020   */\n      add\n        /* \"#utility.yul\":10992:10998   */\n      dup5\n        /* \"#utility.yul\":10948:11021   */\n      tag_155\n      jump\t// in\n    tag_312:\n        /* \"#utility.yul\":10186:11028   */\n      swap7\n      swap6\n      pop\n      pop\n      pop\n      pop\n      pop\n      pop\n      jump\t// out\n        /* \"#utility.yul\":11034:11210   */\n    tag_164:\n        /* \"#utility.yul\":11174:11202   */\n      0x54696d656c6f636b3a2043616c6c6572206e6f742061646d696e000000000000\n        /* \"#utility.yul\":11170:11171   */\n      0x00\n        /* \"#utility.yul\":11162:11168   */\n      dup3\n        /* \"#utility.yul\":11158:11172   */\n      add\n        /* \"#utility.yul\":11151:11203   */\n      mstore\n        /* \"#utility.yul\":11034:11210   */\n      pop\n      jump\t// out\n        /* \"#utility.yul\":11216:11582   */\n    tag_165:\n        /* \"#utility.yul\":11358:11361   */\n      0x00\n        /* \"#utility.yul\":11379:11446   */\n      tag_315\n        /* \"#utility.yul\":11443:11445   */\n      0x1a\n        /* \"#utility.yul\":11438:11441   */\n      dup4\n        /* \"#utility.yul\":11379:11446   */\n      tag_162\n      jump\t// in\n    tag_315:\n        /* \"#utility.yul\":11372:11446   */\n      swap2\n      pop\n        /* \"#utility.yul\":11455:11548   */\n      tag_316\n        /* \"#utility.yul\":11544:11547   */\n      dup3\n        /* \"#utility.yul\":11455:11548   */\n      tag_164\n      jump\t// in\n    tag_316:\n        /* \"#utility.yul\":11573:11575   */\n      0x20\n        /* \"#utility.yul\":11568:11571   */\n      dup3\n        /* \"#utility.yul\":11564:11576   */\n      add\n        /* \"#utility.yul\":11557:11576   */\n      swap1\n      pop\n        /* \"#utility.yul\":11216:11582   */\n      swap2\n      swap1\n      pop\n      jump\t// out\n        /* \"#utility.yul\":11588:12007   */\n    tag_70:\n        /* \"#utility.yul\":11754:11758   */\n      0x00\n        /* \"#utility.yul\":11792:11794   */\n      0x20\n        /* \"#utility.yul\":11781:11790   */\n      dup3\n        /* \"#utility.yul\":11777:11795   */\n      add\n        /* \"#utility.yul\":11769:11795   */\n      swap1\n      pop\n        /* \"#utility.yul\":11841:11850   */\n      dup2\n        /* \"#utility.yul\":11835:11839   */\n      dup2\n        /* \"#utility.yul\":11831:11851   */\n      sub\n        /* \"#utility.yul\":11827:11828   */\n      0x00\n        /* \"#utility.yul\":11816:11825   */\n      dup4\n        /* \"#utility.yul\":11812:11829   */\n      add\n        /* \"#utility.yul\":11805:11852   */\n      mstore\n        /* \"#utility.yul\":11869:12000   */\n      tag_318\n        /* \"#utility.yul\":11995:11999   */\n      dup2\n        /* \"#utility.yul\":11869:12000   */\n      tag_165\n      jump\t// in\n    tag_318:\n        /* \"#utility.yul\":11861:12000   */\n      swap1\n      pop\n        /* \"#utility.yul\":11588:12007   */\n      swap2\n      swap1\n      pop\n      jump\t// out\n        /* \"#utility.yul\":12013:12261   */\n    tag_166:\n        /* \"#utility.yul\":12153:12187   */\n      0x54696d656c6f636b3a3a657865637574655472616e73616374696f6e3a205472\n        /* \"#utility.yul\":12149:12150   */\n      0x00\n        /* \"#utility.yul\":12141:12147   */\n      dup3\n        /* \"#utility.yul\":12137:12151   */\n      add\n        /* \"#utility.yul\":12130:12188   */\n      mstore\n        /* \"#utility.yul\":12222:12253   */\n      0x616e73616374696f6e206861736e2774206265656e207175657565642e000000\n        /* \"#utility.yul\":12217:12219   */\n      0x20\n        /* \"#utility.yul\":12209:12215   */\n      dup3\n        /* \"#utility.yul\":12205:12220   */\n      add\n        /* \"#utility.yul\":12198:12254   */\n      mstore\n        /* \"#utility.yul\":12013:12261   */\n      pop\n      jump\t// out\n        /* \"#utility.yul\":12267:12633   */\n    tag_167:\n        /* \"#utility.yul\":12409:12412   */\n      0x00\n        /* \"#utility.yul\":12430:12497   */\n      tag_321\n        /* \"#utility.yul\":12494:12496   */\n      0x3d\n        /* \"#utility.yul\":12489:12492   */\n      dup4\n        /* \"#utility.yul\":12430:12497   */\n      tag_162\n      jump\t// in\n    tag_321:\n        /* \"#utility.yul\":12423:12497   */\n      swap2\n      pop\n        /* \"#utility.yul\":12506:12599   */\n      tag_322\n        /* \"#utility.yul\":12595:12598   */\n      dup3\n        /* \"#utility.yul\":12506:12599   */\n      tag_166\n      jump\t// in\n    tag_322:\n        /* \"#utility.yul\":12624:12626   */\n      0x40\n        /* \"#utility.yul\":12619:12622   */\n      dup3\n        /* \"#utility.yul\":12615:12627   */\n      add\n        /* \"#utility.yul\":12608:12627   */\n      swap1\n      pop\n        /* \"#utility.yul\":12267:12633   */\n      swap2\n      swap1\n      pop\n      jump\t// out\n        /* \"#utility.yul\":12639:13058   */\n    tag_75:\n        /* \"#utility.yul\":12805:12809   */\n      0x00\n        /* \"#utility.yul\":12843:12845   */\n      0x20\n        /* \"#utility.yul\":12832:12841   */\n      dup3\n        /* \"#utility.yul\":12828:12846   */\n      add\n        /* \"#utility.yul\":12820:12846   */\n      swap1\n      pop\n        /* \"#utility.yul\":12892:12901   */\n      dup2\n        /* \"#utility.yul\":12886:12890   */\n      dup2\n        /* \"#utility.yul\":12882:12902   */\n      sub\n        /* \"#utility.yul\":12878:12879   */\n      0x00\n        /* \"#utility.yul\":12867:12876   */\n      dup4\n        /* \"#utility.yul\":12863:12880   */\n      add\n        /* \"#utility.yul\":12856:12903   */\n      mstore\n        /* \"#utility.yul\":12920:13051   */\n      tag_324\n        /* \"#utility.yul\":13046:13050   */\n      dup2\n        /* \"#utility.yul\":12920:13051   */\n      tag_167\n      jump\t// in\n    tag_324:\n        /* \"#utility.yul\":12912:13051   */\n      swap1\n      pop\n        /* \"#utility.yul\":12639:13058   */\n      swap2\n      swap1\n      pop\n      jump\t// out\n        /* \"#utility.yul\":13064:13357   */\n    tag_168:\n        /* \"#utility.yul\":13204:13238   */\n      0x54696d656c6f636b3a3a657865637574655472616e73616374696f6e3a205472\n        /* \"#utility.yul\":13200:13201   */\n      0x00\n        /* \"#utility.yul\":13192:13198   */\n      dup3\n        /* \"#utility.yul\":13188:13202   */\n      add\n        /* \"#utility.yul\":13181:13239   */\n      mstore\n        /* \"#utility.yul\":13273:13307   */\n      0x616e73616374696f6e206861736e2774207375727061737365642074696d6520\n        /* \"#utility.yul\":13268:13270   */\n      0x20\n        /* \"#utility.yul\":13260:13266   */\n      dup3\n        /* \"#utility.yul\":13256:13271   */\n      add\n        /* \"#utility.yul\":13249:13308   */\n      mstore\n        /* \"#utility.yul\":13342:13349   */\n      0x6c6f636b2e000000000000000000000000000000000000000000000000000000\n        /* \"#utility.yul\":13337:13339   */\n      0x40\n        /* \"#utility.yul\":13329:13335   */\n      dup3\n        /* \"#utility.yul\":13325:13340   */\n      add\n        /* \"#utility.yul\":13318:13350   */\n      mstore\n        /* \"#utility.yul\":13064:13357   */\n      pop\n      jump\t// out\n        /* \"#utility.yul\":13363:13729   */\n    tag_169:\n        /* \"#utility.yul\":13505:13508   */\n      0x00\n        /* \"#utility.yul\":13526:13593   */\n      tag_327\n        /* \"#utility.yul\":13590:13592   */\n      0x45\n        /* \"#utility.yul\":13585:13588   */\n      dup4\n        /* \"#utility.yul\":13526:13593   */\n      tag_162\n      jump\t// in\n    tag_327:\n        /* \"#utility.yul\":13519:13593   */\n      swap2\n      pop\n        /* \"#utility.yul\":13602:13695   */\n      tag_328\n        /* \"#utility.yul\":13691:13694   */\n      dup3\n        /* \"#utility.yul\":13602:13695   */\n      tag_168\n      jump\t// in\n    tag_328:\n        /* \"#utility.yul\":13720:13722   */\n      0x60\n        /* \"#utility.yul\":13715:13718   */\n      dup3\n        /* \"#utility.yul\":13711:13723   */\n      add\n        /* \"#utility.yul\":13704:13723   */\n      swap1\n      pop\n        /* \"#utility.yul\":13363:13729   */\n      swap2\n      swap1\n      pop\n      jump\t// out\n        /* \"#utility.yul\":13735:14154   */\n    tag_79:\n        /* \"#utility.yul\":13901:13905   */\n      0x00\n        /* \"#utility.yul\":13939:13941   */\n      0x20\n        /* \"#utility.yul\":13928:13937   */\n      dup3\n        /* \"#utility.yul\":13924:13942   */\n      add\n        /* \"#utility.yul\":13916:13942   */\n      swap1\n      pop\n        /* \"#utility.yul\":13988:13997   */\n      dup2\n        /* \"#utility.yul\":13982:13986   */\n      dup2\n        /* \"#utility.yul\":13978:13998   */\n      sub\n        /* \"#utility.yul\":13974:13975   */\n      0x00\n        /* \"#utility.yul\":13963:13972   */\n      dup4\n        /* \"#utility.yul\":13959:13976   */\n      add\n        /* \"#utility.yul\":13952:13999   */\n      mstore\n        /* \"#utility.yul\":14016:14147   */\n      tag_330\n        /* \"#utility.yul\":14142:14146   */\n      dup2\n        /* \"#utility.yul\":14016:14147   */\n      tag_169\n      jump\t// in\n    tag_330:\n        /* \"#utility.yul\":14008:14147   */\n      swap1\n      pop\n        /* \"#utility.yul\":13735:14154   */\n      swap2\n      swap1\n      pop\n      jump\t// out\n        /* \"#utility.yul\":14160:14340   */\n    tag_170:\n        /* \"#utility.yul\":14208:14285   */\n      0x4e487b7100000000000000000000000000000000000000000000000000000000\n        /* \"#utility.yul\":14205:14206   */\n      0x00\n        /* \"#utility.yul\":14198:14286   */\n      mstore\n        /* \"#utility.yul\":14305:14309   */\n      0x11\n        /* \"#utility.yul\":14302:14303   */\n      0x04\n        /* \"#utility.yul\":14295:14310   */\n      mstore\n        /* \"#utility.yul\":14329:14333   */\n      0x24\n        /* \"#utility.yul\":14326:14327   */\n      0x00\n        /* \"#utility.yul\":14319:14334   */\n      revert\n        /* \"#utility.yul\":14346:14537   */\n    tag_81:\n        /* \"#utility.yul\":14386:14389   */\n      0x00\n        /* \"#utility.yul\":14405:14425   */\n      tag_333\n        /* \"#utility.yul\":14423:14424   */\n      dup3\n        /* \"#utility.yul\":14405:14425   */\n      tag_133\n      jump\t// in\n    tag_333:\n        /* \"#utility.yul\":14400:14425   */\n      swap2\n      pop\n        /* \"#utility.yul\":14439:14459   */\n      tag_334\n        /* \"#utility.yul\":14457:14458   */\n      dup4\n        /* \"#utility.yul\":14439:14459   */\n      tag_133\n      jump\t// in\n    tag_334:\n        /* \"#utility.yul\":14434:14459   */\n      swap3\n      pop\n        /* \"#utility.yul\":14482:14483   */\n      dup3\n        /* \"#utility.yul\":14479:14480   */\n      dup3\n        /* \"#utility.yul\":14475:14484   */\n      add\n        /* \"#utility.yul\":14468:14484   */\n      swap1\n      pop\n        /* \"#utility.yul\":14503:14506   */\n      dup1\n        /* \"#utility.yul\":14500:14501   */\n      dup3\n        /* \"#utility.yul\":14497:14507   */\n      gt\n        /* \"#utility.yul\":14494:14530   */\n      iszero\n      tag_335\n      jumpi\n        /* \"#utility.yul\":14510:14528   */\n      tag_336\n      tag_170\n      jump\t// in\n    tag_336:\n        /* \"#utility.yul\":14494:14530   */\n    tag_335:\n        /* \"#utility.yul\":14346:14537   */\n      swap3\n      swap2\n      pop\n      pop\n      jump\t// out\n        /* \"#utility.yul\":14543:14781   */\n    tag_171:\n        /* \"#utility.yul\":14683:14717   */\n      0x54696d656c6f636b3a3a657865637574655472616e73616374696f6e3a205472\n        /* \"#utility.yul\":14679:14680   */\n      0x00\n        /* \"#utility.yul\":14671:14677   */\n      dup3\n        /* \"#utility.yul\":14667:14681   */\n      add\n        /* \"#utility.yul\":14660:14718   */\n      mstore\n        /* \"#utility.yul\":14752:14773   */\n      0x616e73616374696f6e206973207374616c652e00000000000000000000000000\n        /* \"#utility.yul\":14747:14749   */\n      0x20\n        /* \"#utility.yul\":14739:14745   */\n      dup3\n        /* \"#utility.yul\":14735:14750   */\n      add\n        /* \"#utility.yul\":14728:14774   */\n      mstore\n        /* \"#utility.yul\":14543:14781   */\n      pop\n      jump\t// out\n        /* \"#utility.yul\":14787:15153   */\n    tag_172:\n        /* \"#utility.yul\":14929:14932   */\n      0x00\n        /* \"#utility.yul\":14950:15017   */\n      tag_339\n        /* \"#utility.yul\":15014:15016   */\n      0x33\n        /* \"#utility.yul\":15009:15012   */\n      dup4\n        /* \"#utility.yul\":14950:15017   */\n      tag_162\n      jump\t// in\n    tag_339:\n        /* \"#utility.yul\":14943:15017   */\n      swap2\n      pop\n        /* \"#utility.yul\":15026:15119   */\n      tag_340\n        /* \"#utility.yul\":15115:15118   */\n      dup3\n        /* \"#utility.yul\":15026:15119   */\n      tag_171\n      jump\t// in\n    tag_340:\n        /* \"#utility.yul\":15144:15146   */\n      0x40\n        /* \"#utility.yul\":15139:15142   */\n      dup3\n        /* \"#utility.yul\":15135:15147   */\n      add\n        /* \"#utility.yul\":15128:15147   */\n      swap1\n      pop\n        /* \"#utility.yul\":14787:15153   */\n      swap2\n      swap1\n      pop\n      jump\t// out\n        /* \"#utility.yul\":15159:15578   */\n    tag_85:\n        /* \"#utility.yul\":15325:15329   */\n      0x00\n        /* \"#utility.yul\":15363:15365   */\n      0x20\n        /* \"#utility.yul\":15352:15361   */\n      dup3\n        /* \"#utility.yul\":15348:15366   */\n      add\n        /* \"#utility.yul\":15340:15366   */\n      swap1\n      pop\n        /* \"#utility.yul\":15412:15421   */\n      dup2\n        /* \"#utility.yul\":15406:15410   */\n      dup2\n        /* \"#utility.yul\":15402:15422   */\n      sub\n        /* \"#utility.yul\":15398:15399   */\n      0x00\n        /* \"#utility.yul\":15387:15396   */\n      dup4\n        /* \"#utility.yul\":15383:15400   */\n      add\n        /* \"#utility.yul\":15376:15423   */\n      mstore\n        /* \"#utility.yul\":15440:15571   */\n      tag_342\n        /* \"#utility.yul\":15566:15570   */\n      dup2\n        /* \"#utility.yul\":15440:15571   */\n      tag_172\n      jump\t// in\n    tag_342:\n        /* \"#utility.yul\":15432:15571   */\n      swap1\n      pop\n        /* \"#utility.yul\":15159:15578   */\n      swap2\n      swap1\n      pop\n      jump\t// out\n        /* \"#utility.yul\":15584:15733   */\n    tag_173:\n        /* \"#utility.yul\":15620:15627   */\n      0x00\n        /* \"#utility.yul\":15660:15726   */\n      0xffffffff00000000000000000000000000000000000000000000000000000000\n        /* \"#utility.yul\":15653:15658   */\n      dup3\n        /* \"#utility.yul\":15649:15727   */\n      and\n        /* \"#utility.yul\":15638:15727   */\n      swap1\n      pop\n        /* \"#utility.yul\":15584:15733   */\n      swap2\n      swap1\n      pop\n      jump\t// out\n        /* \"#utility.yul\":15739:15817   */\n    tag_174:\n        /* \"#utility.yul\":15777:15784   */\n      0x00\n        /* \"#utility.yul\":15806:15811   */\n      dup2\n        /* \"#utility.yul\":15795:15811   */\n      swap1\n      pop\n        /* \"#utility.yul\":15739:15817   */\n      swap2\n      swap1\n      pop\n      jump\t// out\n        /* \"#utility.yul\":15823:15976   */\n    tag_175:\n        /* \"#utility.yul\":15926:15969   */\n      tag_346\n        /* \"#utility.yul\":15945:15968   */\n      tag_347\n        /* \"#utility.yul\":15962:15967   */\n      dup3\n        /* \"#utility.yul\":15945:15968   */\n      tag_173\n      jump\t// in\n    tag_347:\n        /* \"#utility.yul\":15926:15969   */\n      tag_174\n      jump\t// in\n    tag_346:\n        /* \"#utility.yul\":15921:15924   */\n      dup3\n        /* \"#utility.yul\":15914:15970   */\n      mstore\n        /* \"#utility.yul\":15823:15976   */\n      pop\n      pop\n      jump\t// out\n        /* \"#utility.yul\":15982:16129   */\n    tag_176:\n        /* \"#utility.yul\":16083:16094   */\n      0x00\n        /* \"#utility.yul\":16120:16123   */\n      dup2\n        /* \"#utility.yul\":16105:16123   */\n      swap1\n      pop\n        /* \"#utility.yul\":15982:16129   */\n      swap3\n      swap2\n      pop\n      pop\n      jump\t// out\n        /* \"#utility.yul\":16135:16521   */\n    tag_177:\n        /* \"#utility.yul\":16239:16242   */\n      0x00\n        /* \"#utility.yul\":16267:16305   */\n      tag_350\n        /* \"#utility.yul\":16299:16304   */\n      dup3\n        /* \"#utility.yul\":16267:16305   */\n      tag_151\n      jump\t// in\n    tag_350:\n        /* \"#utility.yul\":16321:16409   */\n      tag_351\n        /* \"#utility.yul\":16402:16408   */\n      dup2\n        /* \"#utility.yul\":16397:16400   */\n      dup6\n        /* \"#utility.yul\":16321:16409   */\n      tag_176\n      jump\t// in\n    tag_351:\n        /* \"#utility.yul\":16314:16409   */\n      swap4\n      pop\n        /* \"#utility.yul\":16418:16483   */\n      tag_352\n        /* \"#utility.yul\":16476:16482   */\n      dup2\n        /* \"#utility.yul\":16471:16474   */\n      dup6\n        /* \"#utility.yul\":16464:16468   */\n      0x20\n        /* \"#utility.yul\":16457:16462   */\n      dup7\n        /* \"#utility.yul\":16453:16469   */\n      add\n        /* \"#utility.yul\":16418:16483   */\n      tag_153\n      jump\t// in\n    tag_352:\n        /* \"#utility.yul\":16508:16514   */\n      dup1\n        /* \"#utility.yul\":16503:16506   */\n      dup5\n        /* \"#utility.yul\":16499:16515   */\n      add\n        /* \"#utility.yul\":16492:16515   */\n      swap2\n      pop\n        /* \"#utility.yul\":16243:16521   */\n      pop\n        /* \"#utility.yul\":16135:16521   */\n      swap3\n      swap2\n      pop\n      pop\n      jump\t// out\n        /* \"#utility.yul\":16527:16934   */\n    tag_89:\n        /* \"#utility.yul\":16683:16686   */\n      0x00\n        /* \"#utility.yul\":16698:16771   */\n      tag_354\n        /* \"#utility.yul\":16767:16770   */\n      dup3\n        /* \"#utility.yul\":16758:16764   */\n      dup6\n        /* \"#utility.yul\":16698:16771   */\n      tag_175\n      jump\t// in\n    tag_354:\n        /* \"#utility.yul\":16796:16797   */\n      0x04\n        /* \"#utility.yul\":16791:16794   */\n      dup3\n        /* \"#utility.yul\":16787:16798   */\n      add\n        /* \"#utility.yul\":16780:16798   */\n      swap2\n      pop\n        /* \"#utility.yul\":16815:16908   */\n      tag_355\n        /* \"#utility.yul\":16904:16907   */\n      dup3\n        /* \"#utility.yul\":16895:16901   */\n      dup5\n        /* \"#utility.yul\":16815:16908   */\n      tag_177\n      jump\t// in\n    tag_355:\n        /* \"#utility.yul\":16808:16908   */\n      swap2\n      pop\n        /* \"#utility.yul\":16925:16928   */\n      dup2\n        /* \"#utility.yul\":16918:16928   */\n      swap1\n      pop\n        /* \"#utility.yul\":16527:16934   */\n      swap4\n      swap3\n      pop\n      pop\n      pop\n      jump\t// out\n        /* \"#utility.yul\":16940:17211   */\n    tag_91:\n        /* \"#utility.yul\":17070:17073   */\n      0x00\n        /* \"#utility.yul\":17092:17185   */\n      tag_357\n        /* \"#utility.yul\":17181:17184   */\n      dup3\n        /* \"#utility.yul\":17172:17178   */\n      dup5\n        /* \"#utility.yul\":17092:17185   */\n      tag_177\n      jump\t// in\n    tag_357:\n        /* \"#utility.yul\":17085:17185   */\n      swap2\n      pop\n        /* \"#utility.yul\":17202:17205   */\n      dup2\n        /* \"#utility.yul\":17195:17205   */\n      swap1\n      pop\n        /* \"#utility.yul\":16940:17211   */\n      swap3\n      swap2\n      pop\n      pop\n      jump\t// out\n        /* \"#utility.yul\":17217:17465   */\n    tag_178:\n        /* \"#utility.yul\":17357:17391   */\n      0x54696d656c6f636b3a3a657865637574655472616e73616374696f6e3a205472\n        /* \"#utility.yul\":17353:17354   */\n      0x00\n        /* \"#utility.yul\":17345:17351   */\n      dup3\n        /* \"#utility.yul\":17341:17355   */\n      add\n        /* \"#utility.yul\":17334:17392   */\n      mstore\n        /* \"#utility.yul\":17426:17457   */\n      0x616e73616374696f6e20657865637574696f6e2072657665727465642e000000\n        /* \"#utility.yul\":17421:17423   */\n      0x20\n        /* \"#utility.yul\":17413:17419   */\n      dup3\n        /* \"#utility.yul\":17409:17424   */\n      add\n        /* \"#utility.yul\":17402:17458   */\n      mstore\n        /* \"#utility.yul\":17217:17465   */\n      pop\n      jump\t// out\n        /* \"#utility.yul\":17471:17837   */\n    tag_179:\n        /* \"#utility.yul\":17613:17616   */\n      0x00\n        /* \"#utility.yul\":17634:17701   */\n      tag_360\n        /* \"#utility.yul\":17698:17700   */\n      0x3d\n        /* \"#utility.yul\":17693:17696   */\n      dup4\n        /* \"#utility.yul\":17634:17701   */\n      tag_162\n      jump\t// in\n    tag_360:\n        /* \"#utility.yul\":17627:17701   */\n      swap2\n      pop\n        /* \"#utility.yul\":17710:17803   */\n      tag_361\n        /* \"#utility.yul\":17799:17802   */\n      dup3\n        /* \"#utility.yul\":17710:17803   */\n      tag_178\n      jump\t// in\n    tag_361:\n        /* \"#utility.yul\":17828:17830   */\n      0x40\n        /* \"#utility.yul\":17823:17826   */\n      dup3\n        /* \"#utility.yul\":17819:17831   */\n      add\n        /* \"#utility.yul\":17812:17831   */\n      swap1\n      pop\n        /* \"#utility.yul\":17471:17837   */\n      swap2\n      swap1\n      pop\n      jump\t// out\n        /* \"#utility.yul\":17843:18262   */\n    tag_97:\n        /* \"#utility.yul\":18009:18013   */\n      0x00\n        /* \"#utility.yul\":18047:18049   */\n      0x20\n        /* \"#utility.yul\":18036:18045   */\n      dup3\n        /* \"#utility.yul\":18032:18050   */\n      add\n        /* \"#utility.yul\":18024:18050   */\n      swap1\n      pop\n        /* \"#utility.yul\":18096:18105   */\n      dup2\n        /* \"#utility.yul\":18090:18094   */\n      dup2\n        /* \"#utility.yul\":18086:18106   */\n      sub\n        /* \"#utility.yul\":18082:18083   */\n      0x00\n        /* \"#utility.yul\":18071:18080   */\n      dup4\n        /* \"#utility.yul\":18067:18084   */\n      add\n        /* \"#utility.yul\":18060:18107   */\n      mstore\n        /* \"#utility.yul\":18124:18255   */\n      tag_363\n        /* \"#utility.yul\":18250:18254   */\n      dup2\n        /* \"#utility.yul\":18124:18255   */\n      tag_179\n      jump\t// in\n    tag_363:\n        /* \"#utility.yul\":18116:18255   */\n      swap1\n      pop\n        /* \"#utility.yul\":17843:18262   */\n      swap2\n      swap1\n      pop\n      jump\t// out\n        /* \"#utility.yul\":18268:18999   */\n    tag_99:\n        /* \"#utility.yul\":18483:18487   */\n      0x00\n        /* \"#utility.yul\":18521:18524   */\n      0x80\n        /* \"#utility.yul\":18510:18519   */\n      dup3\n        /* \"#utility.yul\":18506:18525   */\n      add\n        /* \"#utility.yul\":18498:18525   */\n      swap1\n      pop\n        /* \"#utility.yul\":18535:18606   */\n      tag_365\n        /* \"#utility.yul\":18603:18604   */\n      0x00\n        /* \"#utility.yul\":18592:18601   */\n      dup4\n        /* \"#utility.yul\":18588:18605   */\n      add\n        /* \"#utility.yul\":18579:18585   */\n      dup8\n        /* \"#utility.yul\":18535:18606   */\n      tag_155\n      jump\t// in\n    tag_365:\n        /* \"#utility.yul\":18653:18662   */\n      dup2\n        /* \"#utility.yul\":18647:18651   */\n      dup2\n        /* \"#utility.yul\":18643:18663   */\n      sub\n        /* \"#utility.yul\":18638:18640   */\n      0x20\n        /* \"#utility.yul\":18627:18636   */\n      dup4\n        /* \"#utility.yul\":18623:18641   */\n      add\n        /* \"#utility.yul\":18616:18664   */\n      mstore\n        /* \"#utility.yul\":18681:18759   */\n      tag_366\n        /* \"#utility.yul\":18754:18758   */\n      dup2\n        /* \"#utility.yul\":18745:18751   */\n      dup7\n        /* \"#utility.yul\":18681:18759   */\n      tag_163\n      jump\t// in\n    tag_366:\n        /* \"#utility.yul\":18673:18759   */\n      swap1\n      pop\n        /* \"#utility.yul\":18806:18815   */\n      dup2\n        /* \"#utility.yul\":18800:18804   */\n      dup2\n        /* \"#utility.yul\":18796:18816   */\n      sub\n        /* \"#utility.yul\":18791:18793   */\n      0x40\n        /* \"#utility.yul\":18780:18789   */\n      dup4\n        /* \"#utility.yul\":18776:18794   */\n      add\n        /* \"#utility.yul\":18769:18817   */\n      mstore\n        /* \"#utility.yul\":18834:18910   */\n      tag_367\n        /* \"#utility.yul\":18905:18909   */\n      dup2\n        /* \"#utility.yul\":18896:18902   */\n      dup6\n        /* \"#utility.yul\":18834:18910   */\n      tag_154\n      jump\t// in\n    tag_367:\n        /* \"#utility.yul\":18826:18910   */\n      swap1\n      pop\n        /* \"#utility.yul\":18920:18992   */\n      tag_368\n        /* \"#utility.yul\":18988:18990   */\n      0x60\n        /* \"#utility.yul\":18977:18986   */\n      dup4\n        /* \"#utility.yul\":18973:18991   */\n      add\n        /* \"#utility.yul\":18964:18970   */\n      dup5\n        /* \"#utility.yul\":18920:18992   */\n      tag_155\n      jump\t// in\n    tag_368:\n        /* \"#utility.yul\":18268:18999   */\n      swap6\n      swap5\n      pop\n      pop\n      pop\n      pop\n      pop\n      jump\t// out\n        /* \"#utility.yul\":19005:19302   */\n    tag_180:\n        /* \"#utility.yul\":19145:19179   */\n      0x54696d656c6f636b3a3a71756575655472616e73616374696f6e3a2045737469\n        /* \"#utility.yul\":19141:19142   */\n      0x00\n        /* \"#utility.yul\":19133:19139   */\n      dup3\n        /* \"#utility.yul\":19129:19143   */\n      add\n        /* \"#utility.yul\":19122:19180   */\n      mstore\n        /* \"#utility.yul\":19214:19248   */\n      0x6d6174656420657865637574696f6e20626c6f636b206d757374207361746973\n        /* \"#utility.yul\":19209:19211   */\n      0x20\n        /* \"#utility.yul\":19201:19207   */\n      dup3\n        /* \"#utility.yul\":19197:19212   */\n      add\n        /* \"#utility.yul\":19190:19249   */\n      mstore\n        /* \"#utility.yul\":19283:19294   */\n      0x66792064656c61792e0000000000000000000000000000000000000000000000\n        /* \"#utility.yul\":19278:19280   */\n      0x40\n        /* \"#utility.yul\":19270:19276   */\n      dup3\n        /* \"#utility.yul\":19266:19281   */\n      add\n        /* \"#utility.yul\":19259:19295   */\n      mstore\n        /* \"#utility.yul\":19005:19302   */\n      pop\n      jump\t// out\n        /* \"#utility.yul\":19308:19674   */\n    tag_181:\n        /* \"#utility.yul\":19450:19453   */\n      0x00\n        /* \"#utility.yul\":19471:19538   */\n      tag_371\n        /* \"#utility.yul\":19535:19537   */\n      0x49\n        /* \"#utility.yul\":19530:19533   */\n      dup4\n        /* \"#utility.yul\":19471:19538   */\n      tag_162\n      jump\t// in\n    tag_371:\n        /* \"#utility.yul\":19464:19538   */\n      swap2\n      pop\n        /* \"#utility.yul\":19547:19640   */\n      tag_372\n        /* \"#utility.yul\":19636:19639   */\n      dup3\n        /* \"#utility.yul\":19547:19640   */\n      tag_180\n      jump\t// in\n    tag_372:\n        /* \"#utility.yul\":19665:19667   */\n      0x60\n        /* \"#utility.yul\":19660:19663   */\n      dup3\n        /* \"#utility.yul\":19656:19668   */\n      add\n        /* \"#utility.yul\":19649:19668   */\n      swap1\n      pop\n        /* \"#utility.yul\":19308:19674   */\n      swap2\n      swap1\n      pop\n      jump\t// out\n        /* \"#utility.yul\":19680:20099   */\n    tag_108:\n        /* \"#utility.yul\":19846:19850   */\n      0x00\n        /* \"#utility.yul\":19884:19886   */\n      0x20\n        /* \"#utility.yul\":19873:19882   */\n      dup3\n        /* \"#utility.yul\":19869:19887   */\n      add\n        /* \"#utility.yul\":19861:19887   */\n      swap1\n      pop\n        /* \"#utility.yul\":19933:19942   */\n      dup2\n        /* \"#utility.yul\":19927:19931   */\n      dup2\n        /* \"#utility.yul\":19923:19943   */\n      sub\n        /* \"#utility.yul\":19919:19920   */\n      0x00\n        /* \"#utility.yul\":19908:19917   */\n      dup4\n        /* \"#utility.yul\":19904:19921   */\n      add\n        /* \"#utility.yul\":19897:19944   */\n      mstore\n        /* \"#utility.yul\":19961:20092   */\n      tag_374\n        /* \"#utility.yul\":20087:20091   */\n      dup2\n        /* \"#utility.yul\":19961:20092   */\n      tag_181\n      jump\t// in\n    tag_374:\n        /* \"#utility.yul\":19953:20092   */\n      swap1\n      pop\n        /* \"#utility.yul\":19680:20099   */\n      swap2\n      swap1\n      pop\n      jump\t// out\n        /* \"#utility.yul\":20105:20352   */\n    tag_182:\n        /* \"#utility.yul\":20245:20279   */\n      0x54696d656c6f636b3a3a63616e63656c5472616e73616374696f6e3a20547261\n        /* \"#utility.yul\":20241:20242   */\n      0x00\n        /* \"#utility.yul\":20233:20239   */\n      dup3\n        /* \"#utility.yul\":20229:20243   */\n      add\n        /* \"#utility.yul\":20222:20280   */\n      mstore\n        /* \"#utility.yul\":20314:20344   */\n      0x6e73616374696f6e206861736e2774206265656e207175657565642e00000000\n        /* \"#utility.yul\":20309:20311   */\n      0x20\n        /* \"#utility.yul\":20301:20307   */\n      dup3\n        /* \"#utility.yul\":20297:20312   */\n      add\n        /* \"#utility.yul\":20290:20345   */\n      mstore\n        /* \"#utility.yul\":20105:20352   */\n      pop\n      jump\t// out\n        /* \"#utility.yul\":20358:20724   */\n    tag_183:\n        /* \"#utility.yul\":20500:20503   */\n      0x00\n        /* \"#utility.yul\":20521:20588   */\n      tag_377\n        /* \"#utility.yul\":20585:20587   */\n      0x3c\n        /* \"#utility.yul\":20580:20583   */\n      dup4\n        /* \"#utility.yul\":20521:20588   */\n      tag_162\n      jump\t// in\n    tag_377:\n        /* \"#utility.yul\":20514:20588   */\n      swap2\n      pop\n        /* \"#utility.yul\":20597:20690   */\n      tag_378\n        /* \"#utility.yul\":20686:20689   */\n      dup3\n        /* \"#utility.yul\":20597:20690   */\n      tag_182\n      jump\t// in\n    tag_378:\n        /* \"#utility.yul\":20715:20717   */\n      0x40\n        /* \"#utility.yul\":20710:20713   */\n      dup3\n        /* \"#utility.yul\":20706:20718   */\n      add\n        /* \"#utility.yul\":20699:20718   */\n      swap1\n      pop\n        /* \"#utility.yul\":20358:20724   */\n      swap2\n      swap1\n      pop\n      jump\t// out\n        /* \"#utility.yul\":20730:21149   */\n    tag_118:\n        /* \"#utility.yul\":20896:20900   */\n      0x00\n        /* \"#utility.yul\":20934:20936   */\n      0x20\n        /* \"#utility.yul\":20923:20932   */\n      dup3\n        /* \"#utility.yul\":20919:20937   */\n      add\n        /* \"#utility.yul\":20911:20937   */\n      swap1\n      pop\n        /* \"#utility.yul\":20983:20992   */\n      dup2\n        /* \"#utility.yul\":20977:20981   */\n      dup2\n        /* \"#utility.yul\":20973:20993   */\n      sub\n        /* \"#utility.yul\":20969:20970   */\n      0x00\n        /* \"#utility.yul\":20958:20967   */\n      dup4\n        /* \"#utility.yul\":20954:20971   */\n      add\n        /* \"#utility.yul\":20947:20994   */\n      mstore\n        /* \"#utility.yul\":21011:21142   */\n      tag_380\n        /* \"#utility.yul\":21137:21141   */\n      dup2\n        /* \"#utility.yul\":21011:21142   */\n      tag_183\n      jump\t// in\n    tag_380:\n        /* \"#utility.yul\":21003:21142   */\n      swap1\n      pop\n        /* \"#utility.yul\":20730:21149   */\n      swap2\n      swap1\n      pop\n      jump\t// out\n        /* \"#utility.yul\":21155:21334   */\n    tag_184:\n        /* \"#utility.yul\":21295:21326   */\n      0x54696d656c6f636b3a2043616c6c6572206e6f742054696d656c6f636b000000\n        /* \"#utility.yul\":21291:21292   */\n      0x00\n        /* \"#utility.yul\":21283:21289   */\n      dup3\n        /* \"#utility.yul\":21279:21293   */\n      add\n        /* \"#utility.yul\":21272:21327   */\n      mstore\n        /* \"#utility.yul\":21155:21334   */\n      pop\n      jump\t// out\n        /* \"#utility.yul\":21340:21706   */\n    tag_185:\n        /* \"#utility.yul\":21482:21485   */\n      0x00\n        /* \"#utility.yul\":21503:21570   */\n      tag_383\n        /* \"#utility.yul\":21567:21569   */\n      0x1d\n        /* \"#utility.yul\":21562:21565   */\n      dup4\n        /* \"#utility.yul\":21503:21570   */\n      tag_162\n      jump\t// in\n    tag_383:\n        /* \"#utility.yul\":21496:21570   */\n      swap2\n      pop\n        /* \"#utility.yul\":21579:21672   */\n      tag_384\n        /* \"#utility.yul\":21668:21671   */\n      dup3\n        /* \"#utility.yul\":21579:21672   */\n      tag_184\n      jump\t// in\n    tag_384:\n        /* \"#utility.yul\":21697:21699   */\n      0x20\n        /* \"#utility.yul\":21692:21695   */\n      dup3\n        /* \"#utility.yul\":21688:21700   */\n      add\n        /* \"#utility.yul\":21681:21700   */\n      swap1\n      pop\n        /* \"#utility.yul\":21340:21706   */\n      swap2\n      swap1\n      pop\n      jump\t// out\n        /* \"#utility.yul\":21712:22131   */\n    tag_124:\n        /* \"#utility.yul\":21878:21882   */\n      0x00\n        /* \"#utility.yul\":21916:21918   */\n      0x20\n        /* \"#utility.yul\":21905:21914   */\n      dup3\n        /* \"#utility.yul\":21901:21919   */\n      add\n        /* \"#utility.yul\":21893:21919   */\n      swap1\n      pop\n        /* \"#utility.yul\":21965:21974   */\n      dup2\n        /* \"#utility.yul\":21959:21963   */\n      dup2\n        /* \"#utility.yul\":21955:21975   */\n      sub\n        /* \"#utility.yul\":21951:21952   */\n      0x00\n        /* \"#utility.yul\":21940:21949   */\n      dup4\n        /* \"#utility.yul\":21936:21953   */\n      add\n        /* \"#utility.yul\":21929:21976   */\n      mstore\n        /* \"#utility.yul\":21993:22124   */\n      tag_386\n        /* \"#utility.yul\":22119:22123   */\n      dup2\n        /* \"#utility.yul\":21993:22124   */\n      tag_185\n      jump\t// in\n    tag_386:\n        /* \"#utility.yul\":21985:22124   */\n      swap1\n      pop\n        /* \"#utility.yul\":21712:22131   */\n      swap2\n      swap1\n      pop\n      jump\t// out\n\n    auxdata: 0xa26469706673582212200774dbd82d5dadab9745302c711764c9b25f46eae9e1d0450c0fd5f679a9badc64736f6c63430008150033\n}\n",
				"bytecode": {
					"linkReferences": {},
					"object": "608060405234801562000010575f80fd5b50604051620016c3380380620016c38339818101604052810190620000369190620000bf565b80600181905550335f806101000a81548173ffffffffffffffffffffffffffffffffffffffff021916908373ffffffffffffffffffffffffffffffffffffffff16021790555050620000ef565b5f80fd5b5f819050919050565b6200009b8162000087565b8114620000a6575f80fd5b50565b5f81519050620000b98162000090565b92915050565b5f60208284031215620000d757620000d662000083565b5b5f620000e684828501620000a9565b91505092915050565b6115c680620000fd5f395ff3fe608060405260043610610090575f3560e01c8063796b89b911610058578063796b89b91461018e5780638f283970146101b8578063c1a287e2146101e0578063f2b065371461020a578063f851a4401461024657610090565b806304a71576146100945780630825f38f146100d05780633a66f90114610100578063591fcdfe1461013c5780636a42b8f814610164575b5f80fd5b34801561009f575f80fd5b506100ba60048036038101906100b59190610c7f565b610270565b6040516100c79190610d46565b60405180910390f35b6100ea60048036038101906100e59190610c7f565b6102ab565b6040516100f79190610dd9565b60405180910390f35b34801561010b575f80fd5b5061012660048036038101906101219190610c7f565b6105c0565b6040516101339190610d46565b60405180910390f35b348015610147575f80fd5b50610162600480360381019061015d9190610c7f565b610741565b005b34801561016f575f80fd5b506101786108c0565b6040516101859190610e08565b60405180910390f35b348015610199575f80fd5b506101a26108c6565b6040516101af9190610e08565b60405180910390f35b3480156101c3575f80fd5b506101de60048036038101906101d99190610e21565b6108cd565b005b3480156101eb575f80fd5b506101f46109c0565b6040516102019190610e08565b60405180910390f35b348015610215575f80fd5b50610230600480360381019061022b9190610e76565b6109c7565b60405161023d9190610ebb565b60405180910390f35b348015610251575f80fd5b5061025a6109e4565b6040516102679190610ee3565b60405180910390f35b5f858585858560405160200161028a959493929190610f4e565b60405160208183030381529060405280519060200120905095945050505050565b60605f8054906101000a900473ffffffffffffffffffffffffffffffffffffffff1673ffffffffffffffffffffffffffffffffffffffff163373ffffffffffffffffffffffffffffffffffffffff161461033a576040517f08c379a000000000000000000000000000000000000000000000000000000000815260040161033190610ff7565b60405180910390fd5b5f6103488787878787610270565b905060025f8281526020019081526020015f205f9054906101000a900460ff166103a7576040517f08c379a000000000000000000000000000000000000000000000000000000000815260040161039e90611085565b60405180910390fd5b826103b06108c6565b10156103f1576040517f08c379a00000000000000000000000000000000000000000000000000000000081526004016103e890611139565b60405180910390fd5b62093a80836104009190611184565b6104086108c6565b1115610449576040517f08c379a000000000000000000000000000000000000000000000000000000000815260040161044090611227565b60405180910390fd5b5f60025f8381526020019081526020015f205f6101000a81548160ff02191690831515021790555060605f865103610483578490506104af565b85805190602001208560405160200161049d9291906112ca565b60405160208183030381529060405290505b5f808973ffffffffffffffffffffffffffffffffffffffff1689846040516104d791906112f1565b5f6040518083038185875af1925050503d805f8114610511576040519150601f19603f3d011682016040523d82523d5f602084013e610516565b606091505b50915091508161055b576040517f08c379a000000000000000000000000000000000000000000000000000000000815260040161055290611377565b60405180910390fd5b8973ffffffffffffffffffffffffffffffffffffffff16847fa560e3198060a2f10670c1ec5b403077ea6ae93ca8de1c32b451dc1a943cd6e78b8b8b8b6040516105a89493929190611395565b60405180910390a38094505050505095945050505050565b5f805f9054906101000a900473ffffffffffffffffffffffffffffffffffffffff1673ffffffffffffffffffffffffffffffffffffffff163373ffffffffffffffffffffffffffffffffffffffff161461064f576040517f08c379a000000000000000000000000000000000000000000000000000000000815260040161064690610ff7565b60405180910390fd5b60015461065a6108c6565b6106649190611184565b8210156106a6576040517f08c379a000000000000000000000000000000000000000000000000000000000815260040161069d9061147c565b60405180910390fd5b5f6106b48787878787610270565b9050600160025f8381526020019081526020015f205f6101000a81548160ff0219169083151502179055508673ffffffffffffffffffffffffffffffffffffffff16817f76e2796dc3a81d57b0e8504b647febcbeeb5f4af818e164f11eef8131a6a763f8888888860405161072c9493929190611395565b60405180910390a38091505095945050505050565b5f8054906101000a900473ffffffffffffffffffffffffffffffffffffffff1673ffffffffffffffffffffffffffffffffffffffff163373ffffffffffffffffffffffffffffffffffffffff16146107ce576040517f08c379a00000000000000000000000000000000000000000000000000000000081526004016107c590610ff7565b60405180910390fd5b5f6107dc8686868686610270565b905060025f8281526020019081526020015f205f9054906101000a900460ff1661083b576040517f08c379a00000000000000000000000000000000000000000000000000000000081526004016108329061150a565b60405180910390fd5b5f60025f8381526020019081526020015f205f6101000a81548160ff0219169083151502179055508573ffffffffffffffffffffffffffffffffffffffff16817f2fffc091a501fd91bfbff27141450d3acb40fb8e6d8382b243ec7a812a3aaf87878787876040516108b09493929190611395565b60405180910390a3505050505050565b60015481565b5f42905090565b3073ffffffffffffffffffffffffffffffffffffffff163373ffffffffffffffffffffffffffffffffffffffff161461093b576040517f08c379a000000000000000000000000000000000000000000000000000000000815260040161093290611572565b60405180910390fd5b805f806101000a81548173ffffffffffffffffffffffffffffffffffffffff021916908373ffffffffffffffffffffffffffffffffffffffff1602179055508073ffffffffffffffffffffffffffffffffffffffff167f71614071b88dee5e0b2ae578a9dd7b2ebbe9ae832ba419dc0242cd065a290b6c60405160405180910390a250565b62093a8081565b6002602052805f5260405f205f915054906101000a900460ff1681565b5f8054906101000a900473ffffffffffffffffffffffffffffffffffffffff1681565b5f604051905090565b5f80fd5b5f80fd5b5f73ffffffffffffffffffffffffffffffffffffffff82169050919050565b5f610a4182610a18565b9050919050565b610a5181610a37565b8114610a5b575f80fd5b50565b5f81359050610a6c81610a48565b92915050565b5f819050919050565b610a8481610a72565b8114610a8e575f80fd5b50565b5f81359050610a9f81610a7b565b92915050565b5f80fd5b5f80fd5b5f601f19601f8301169050919050565b7f4e487b71000000000000000000000000000000000000000000000000000000005f52604160045260245ffd5b610af382610aad565b810181811067ffffffffffffffff82111715610b1257610b11610abd565b5b80604052505050565b5f610b24610a07565b9050610b308282610aea565b919050565b5f67ffffffffffffffff821115610b4f57610b4e610abd565b5b610b5882610aad565b9050602081019050919050565b828183375f83830152505050565b5f610b85610b8084610b35565b610b1b565b905082815260208101848484011115610ba157610ba0610aa9565b5b610bac848285610b65565b509392505050565b5f82601f830112610bc857610bc7610aa5565b5b8135610bd8848260208601610b73565b91505092915050565b5f67ffffffffffffffff821115610bfb57610bfa610abd565b5b610c0482610aad565b9050602081019050919050565b5f610c23610c1e84610be1565b610b1b565b905082815260208101848484011115610c3f57610c3e610aa9565b5b610c4a848285610b65565b509392505050565b5f82601f830112610c6657610c65610aa5565b5b8135610c76848260208601610c11565b91505092915050565b5f805f805f60a08688031215610c9857610c97610a10565b5b5f610ca588828901610a5e565b9550506020610cb688828901610a91565b945050604086013567ffffffffffffffff811115610cd757610cd6610a14565b5b610ce388828901610bb4565b935050606086013567ffffffffffffffff811115610d0457610d03610a14565b5b610d1088828901610c52565b9250506080610d2188828901610a91565b9150509295509295909350565b5f819050919050565b610d4081610d2e565b82525050565b5f602082019050610d595f830184610d37565b92915050565b5f81519050919050565b5f82825260208201905092915050565b5f5b83811015610d96578082015181840152602081019050610d7b565b5f8484015250505050565b5f610dab82610d5f565b610db58185610d69565b9350610dc5818560208601610d79565b610dce81610aad565b840191505092915050565b5f6020820190508181035f830152610df18184610da1565b905092915050565b610e0281610a72565b82525050565b5f602082019050610e1b5f830184610df9565b92915050565b5f60208284031215610e3657610e35610a10565b5b5f610e4384828501610a5e565b91505092915050565b610e5581610d2e565b8114610e5f575f80fd5b50565b5f81359050610e7081610e4c565b92915050565b5f60208284031215610e8b57610e8a610a10565b5b5f610e9884828501610e62565b91505092915050565b5f8115159050919050565b610eb581610ea1565b82525050565b5f602082019050610ece5f830184610eac565b92915050565b610edd81610a37565b82525050565b5f602082019050610ef65f830184610ed4565b92915050565b5f81519050919050565b5f82825260208201905092915050565b5f610f2082610efc565b610f2a8185610f06565b9350610f3a818560208601610d79565b610f4381610aad565b840191505092915050565b5f60a082019050610f615f830188610ed4565b610f6e6020830187610df9565b8181036040830152610f808186610f16565b90508181036060830152610f948185610da1565b9050610fa36080830184610df9565b9695505050505050565b7f54696d656c6f636b3a2043616c6c6572206e6f742061646d696e0000000000005f82015250565b5f610fe1601a83610f06565b9150610fec82610fad565b602082019050919050565b5f6020820190508181035f83015261100e81610fd5565b9050919050565b7f54696d656c6f636b3a3a657865637574655472616e73616374696f6e3a2054725f8201527f616e73616374696f6e206861736e2774206265656e207175657565642e000000602082015250565b5f61106f603d83610f06565b915061107a82611015565b604082019050919050565b5f6020820190508181035f83015261109c81611063565b9050919050565b7f54696d656c6f636b3a3a657865637574655472616e73616374696f6e3a2054725f8201527f616e73616374696f6e206861736e2774207375727061737365642074696d652060208201527f6c6f636b2e000000000000000000000000000000000000000000000000000000604082015250565b5f611123604583610f06565b915061112e826110a3565b606082019050919050565b5f6020820190508181035f83015261115081611117565b9050919050565b7f4e487b71000000000000000000000000000000000000000000000000000000005f52601160045260245ffd5b5f61118e82610a72565b915061119983610a72565b92508282019050808211156111b1576111b0611157565b5b92915050565b7f54696d656c6f636b3a3a657865637574655472616e73616374696f6e3a2054725f8201527f616e73616374696f6e206973207374616c652e00000000000000000000000000602082015250565b5f611211603383610f06565b915061121c826111b7565b604082019050919050565b5f6020820190508181035f83015261123e81611205565b9050919050565b5f7fffffffff0000000000000000000000000000000000000000000000000000000082169050919050565b5f819050919050565b61128a61128582611245565b611270565b82525050565b5f81905092915050565b5f6112a482610d5f565b6112ae8185611290565b93506112be818560208601610d79565b80840191505092915050565b5f6112d58285611279565b6004820191506112e5828461129a565b91508190509392505050565b5f6112fc828461129a565b915081905092915050565b7f54696d656c6f636b3a3a657865637574655472616e73616374696f6e3a2054725f8201527f616e73616374696f6e20657865637574696f6e2072657665727465642e000000602082015250565b5f611361603d83610f06565b915061136c82611307565b604082019050919050565b5f6020820190508181035f83015261138e81611355565b9050919050565b5f6080820190506113a85f830187610df9565b81810360208301526113ba8186610f16565b905081810360408301526113ce8185610da1565b90506113dd6060830184610df9565b95945050505050565b7f54696d656c6f636b3a3a71756575655472616e73616374696f6e3a20457374695f8201527f6d6174656420657865637574696f6e20626c6f636b206d75737420736174697360208201527f66792064656c61792e0000000000000000000000000000000000000000000000604082015250565b5f611466604983610f06565b9150611471826113e6565b606082019050919050565b5f6020820190508181035f8301526114938161145a565b9050919050565b7f54696d656c6f636b3a3a63616e63656c5472616e73616374696f6e3a205472615f8201527f6e73616374696f6e206861736e2774206265656e207175657565642e00000000602082015250565b5f6114f4603c83610f06565b91506114ff8261149a565b604082019050919050565b5f6020820190508181035f830152611521816114e8565b9050919050565b7f54696d656c6f636b3a2043616c6c6572206e6f742054696d656c6f636b0000005f82015250565b5f61155c601d83610f06565b915061156782611528565b602082019050919050565b5f6020820190508181035f83015261158981611550565b905091905056fea26469706673582212200774dbd82d5dadab9745302c711764c9b25f46eae9e1d0450c0fd5f679a9badc64736f6c63430008150033",
					"opcodes": "PUSH1 0x80 PUSH1 0x40 MSTORE CALLVALUE DUP1 ISZERO PUSH3 0x10 JUMPI PUSH0 DUP1 REVERT JUMPDEST POP PUSH1 0x40 MLOAD PUSH3 0x16C3 CODESIZE SUB DUP1 PUSH3 0x16C3 DUP4 CODECOPY DUP2 DUP2 ADD PUSH1 0x40 MSTORE DUP2 ADD SWAP1 PUSH3 0x36 SWAP2 SWAP1 PUSH3 0xBF JUMP JUMPDEST DUP1 PUSH1 0x1 DUP2 SWAP1 SSTORE POP CALLER PUSH0 DUP1 PUSH2 0x100 EXP DUP2 SLOAD DUP2 PUSH20 0xFFFFFFFFFFFFFFFFFFFFFFFFFFFFFFFFFFFFFFFF MUL NOT AND SWAP1 DUP4 PUSH20 0xFFFFFFFFFFFFFFFFFFFFFFFFFFFFFFFFFFFFFFFF AND MUL OR SWAP1 SSTORE POP POP PUSH3 0xEF JUMP JUMPDEST PUSH0 DUP1 REVERT JUMPDEST PUSH0 DUP2 SWAP1 POP SWAP2 SWAP1 POP JUMP JUMPDEST PUSH3 0x9B DUP2 PUSH3 0x87 JUMP JUMPDEST DUP2 EQ PUSH3 0xA6 JUMPI PUSH0 DUP1 REVERT JUMPDEST POP JUMP JUMPDEST PUSH0 DUP2 MLOAD SWAP1 POP PUSH3 0xB9 DUP2 PUSH3 0x90 JUMP JUMPDEST SWAP3 SWAP2 POP POP JUMP JUMPDEST PUSH0 PUSH1 0x20 DUP3 DUP5 SUB SLT ISZERO PUSH3 0xD7 JUMPI PUSH3 0xD6 PUSH3 0x83 JUMP JUMPDEST JUMPDEST PUSH0 PUSH3 0xE6 DUP5 DUP3 DUP6 ADD PUSH3 0xA9 JUMP JUMPDEST SWAP2 POP POP SWAP3 SWAP2 POP POP JUMP JUMPDEST PUSH2 0x15C6 DUP1 PUSH3 0xFD PUSH0 CODECOPY PUSH0 RETURN INVALID PUSH1 0x80 PUSH1 0x40 MSTORE PUSH1 0x4 CALLDATASIZE LT PUSH2 0x90 JUMPI PUSH0 CALLDATALOAD PUSH1 0xE0 SHR DUP1 PUSH4 0x796B89B9 GT PUSH2 0x58 JUMPI DUP1 PUSH4 0x796B89B9 EQ PUSH2 0x18E JUMPI DUP1 PUSH4 0x8F283970 EQ PUSH2 0x1B8 JUMPI DUP1 PUSH4 0xC1A287E2 EQ PUSH2 0x1E0 JUMPI DUP1 PUSH4 0xF2B06537 EQ PUSH2 0x20A JUMPI DUP1 PUSH4 0xF851A440 EQ PUSH2 0x246 JUMPI PUSH2 0x90 JUMP JUMPDEST DUP1 PUSH4 0x4A71576 EQ PUSH2 0x94 JUMPI DUP1 PUSH4 0x825F38F EQ PUSH2 0xD0 JUMPI DUP1 PUSH4 0x3A66F901 EQ PUSH2 0x100 JUMPI DUP1 PUSH4 0x591FCDFE EQ PUSH2 0x13C JUMPI DUP1 PUSH4 0x6A42B8F8 EQ PUSH2 0x164 JUMPI JUMPDEST PUSH0 DUP1 REVERT JUMPDEST CALLVALUE DUP1 ISZERO PUSH2 0x9F JUMPI PUSH0 DUP1 REVERT JUMPDEST POP PUSH2 0xBA PUSH1 0x4 DUP1 CALLDATASIZE SUB DUP2 ADD SWAP1 PUSH2 0xB5 SWAP2 SWAP1 PUSH2 0xC7F JUMP JUMPDEST PUSH2 0x270 JUMP JUMPDEST PUSH1 0x40 MLOAD PUSH2 0xC7 SWAP2 SWAP1 PUSH2 0xD46 JUMP JUMPDEST PUSH1 0x40 MLOAD DUP1 SWAP2 SUB SWAP1 RETURN JUMPDEST PUSH2 0xEA PUSH1 0x4 DUP1 CALLDATASIZE SUB DUP2 ADD SWAP1 PUSH2 0xE5 SWAP2 SWAP1 PUSH2 0xC7F JUMP JUMPDEST PUSH2 0x2AB JUMP JUMPDEST PUSH1 0x40 MLOAD PUSH2 0xF7 SWAP2 SWAP1 PUSH2 0xDD9 JUMP JUMPDEST PUSH1 0x40 MLOAD DUP1 SWAP2 SUB SWAP1 RETURN JUMPDEST CALLVALUE DUP1 ISZERO PUSH2 0x10B JUMPI PUSH0 DUP1 REVERT JUMPDEST POP PUSH2 0x126 PUSH1 0x4 DUP1 CALLDATASIZE SUB DUP2 ADD SWAP1 PUSH2 0x121 SWAP2 SWAP1 PUSH2 0xC7F JUMP JUMPDEST PUSH2 0x5C0 JUMP JUMPDEST PUSH1 0x40 MLOAD PUSH2 0x133 SWAP2 SWAP1 PUSH2 0xD46 JUMP JUMPDEST PUSH1 0x40 MLOAD DUP1 SWAP2 SUB SWAP1 RETURN JUMPDEST CALLVALUE DUP1 ISZERO PUSH2 0x147 JUMPI PUSH0 DUP1 REVERT JUMPDEST POP PUSH2 0x162 PUSH1 0x4 DUP1 CALLDATASIZE SUB DUP2 ADD SWAP1 PUSH2 0x15D SWAP2 SWAP1 PUSH2 0xC7F JUMP JUMPDEST PUSH2 0x741 JUMP JUMPDEST STOP JUMPDEST CALLVALUE DUP1 ISZERO PUSH2 0x16F JUMPI PUSH0 DUP1 REVERT JUMPDEST POP PUSH2 0x178 PUSH2 0x8C0 JUMP JUMPDEST PUSH1 0x40 MLOAD PUSH2 0x185 SWAP2 SWAP1 PUSH2 0xE08 JUMP JUMPDEST PUSH1 0x40 MLOAD DUP1 SWAP2 SUB SWAP1 RETURN JUMPDEST CALLVALUE DUP1 ISZERO PUSH2 0x199 JUMPI PUSH0 DUP1 REVERT JUMPDEST POP PUSH2 0x1A2 PUSH2 0x8C6 JUMP JUMPDEST PUSH1 0x40 MLOAD PUSH2 0x1AF SWAP2 SWAP1 PUSH2 0xE08 JUMP JUMPDEST PUSH1 0x40 MLOAD DUP1 SWAP2 SUB SWAP1 RETURN JUMPDEST CALLVALUE DUP1 ISZERO PUSH2 0x1C3 JUMPI PUSH0 DUP1 REVERT JUMPDEST POP PUSH2 0x1DE PUSH1 0x4 DUP1 CALLDATASIZE SUB DUP2 ADD SWAP1 PUSH2 0x1D9 SWAP2 SWAP1 PUSH2 0xE21 JUMP JUMPDEST PUSH2 0x8CD JUMP JUMPDEST STOP JUMPDEST CALLVALUE DUP1 ISZERO PUSH2 0x1EB JUMPI PUSH0 DUP1 REVERT JUMPDEST POP PUSH2 0x1F4 PUSH2 0x9C0 JUMP JUMPDEST PUSH1 0x40 MLOAD PUSH2 0x201 SWAP2 SWAP1 PUSH2 0xE08 JUMP JUMPDEST PUSH1 0x40 MLOAD DUP1 SWAP2 SUB SWAP1 RETURN JUMPDEST CALLVALUE DUP1 ISZERO PUSH2 0x215 JUMPI PUSH0 DUP1 REVERT JUMPDEST POP PUSH2 0x230 PUSH1 0x4 DUP1 CALLDATASIZE SUB DUP2 ADD SWAP1 PUSH2 0x22B SWAP2 SWAP1 PUSH2 0xE76 JUMP JUMPDEST PUSH2 0x9C7 JUMP JUMPDEST PUSH1 0x40 MLOAD PUSH2 0x23D SWAP2 SWAP1 PUSH2 0xEBB JUMP JUMPDEST PUSH1 0x40 MLOAD DUP1 SWAP2 SUB SWAP1 RETURN JUMPDEST CALLVALUE DUP1 ISZERO PUSH2 0x251 JUMPI PUSH0 DUP1 REVERT JUMPDEST POP PUSH2 0x25A PUSH2 0x9E4 JUMP JUMPDEST PUSH1 0x40 MLOAD PUSH2 0x267 SWAP2 SWAP1 PUSH2 0xEE3 JUMP JUMPDEST PUSH1 0x40 MLOAD DUP1 SWAP2 SUB SWAP1 RETURN JUMPDEST PUSH0 DUP6 DUP6 DUP6 DUP6 DUP6 PUSH1 0x40 MLOAD PUSH1 0x20 ADD PUSH2 0x28A SWAP6 SWAP5 SWAP4 SWAP3 SWAP2 SWAP1 PUSH2 0xF4E JUMP JUMPDEST PUSH1 0x40 MLOAD PUSH1 0x20 DUP2 DUP4 SUB SUB DUP2 MSTORE SWAP1 PUSH1 0x40 MSTORE DUP1 MLOAD SWAP1 PUSH1 0x20 ADD KECCAK256 SWAP1 POP SWAP6 SWAP5 POP POP POP POP POP JUMP JUMPDEST PUSH1 0x60 PUSH0 DUP1 SLOAD SWAP1 PUSH2 0x100 EXP SWAP1 DIV PUSH20 0xFFFFFFFFFFFFFFFFFFFFFFFFFFFFFFFFFFFFFFFF AND PUSH20 0xFFFFFFFFFFFFFFFFFFFFFFFFFFFFFFFFFFFFFFFF AND CALLER PUSH20 0xFFFFFFFFFFFFFFFFFFFFFFFFFFFFFFFFFFFFFFFF AND EQ PUSH2 0x33A JUMPI PUSH1 0x40 MLOAD PUSH32 0x8C379A000000000000000000000000000000000000000000000000000000000 DUP2 MSTORE PUSH1 0x4 ADD PUSH2 0x331 SWAP1 PUSH2 0xFF7 JUMP JUMPDEST PUSH1 0x40 MLOAD DUP1 SWAP2 SUB SWAP1 REVERT JUMPDEST PUSH0 PUSH2 0x348 DUP8 DUP8 DUP8 DUP8 DUP8 PUSH2 0x270 JUMP JUMPDEST SWAP1 POP PUSH1 0x2 PUSH0 DUP3 DUP2 MSTORE PUSH1 0x20 ADD SWAP1 DUP2 MSTORE PUSH1 0x20 ADD PUSH0 KECCAK256 PUSH0 SWAP1 SLOAD SWAP1 PUSH2 0x100 EXP SWAP1 DIV PUSH1 0xFF AND PUSH2 0x3A7 JUMPI PUSH1 0x40 MLOAD PUSH32 0x8C379A000000000000000000000000000000000000000000000000000000000 DUP2 MSTORE PUSH1 0x4 ADD PUSH2 0x39E SWAP1 PUSH2 0x1085 JUMP JUMPDEST PUSH1 0x40 MLOAD DUP1 SWAP2 SUB SWAP1 REVERT JUMPDEST DUP3 PUSH2 0x3B0 PUSH2 0x8C6 JUMP JUMPDEST LT ISZERO PUSH2 0x3F1 JUMPI PUSH1 0x40 MLOAD PUSH32 0x8C379A000000000000000000000000000000000000000000000000000000000 DUP2 MSTORE PUSH1 0x4 ADD PUSH2 0x3E8 SWAP1 PUSH2 0x1139 JUMP JUMPDEST PUSH1 0x40 MLOAD DUP1 SWAP2 SUB SWAP1 REVERT JUMPDEST PUSH3 0x93A80 DUP4 PUSH2 0x400 SWAP2 SWAP1 PUSH2 0x1184 JUMP JUMPDEST PUSH2 0x408 PUSH2 0x8C6 JUMP JUMPDEST GT ISZERO PUSH2 0x449 JUMPI PUSH1 0x40 MLOAD PUSH32 0x8C379A000000000000000000000000000000000000000000000000000000000 DUP2 MSTORE PUSH1 0x4 ADD PUSH2 0x440 SWAP1 PUSH2 0x1227 JUMP JUMPDEST PUSH1 0x40 MLOAD DUP1 SWAP2 SUB SWAP1 REVERT JUMPDEST PUSH0 PUSH1 0x2 PUSH0 DUP4 DUP2 MSTORE PUSH1 0x20 ADD SWAP1 DUP2 MSTORE PUSH1 0x20 ADD PUSH0 KECCAK256 PUSH0 PUSH2 0x100 EXP DUP2 SLOAD DUP2 PUSH1 0xFF MUL NOT AND SWAP1 DUP4 ISZERO ISZERO MUL OR SWAP1 SSTORE POP PUSH1 0x60 PUSH0 DUP7 MLOAD SUB PUSH2 0x483 JUMPI DUP5 SWAP1 POP PUSH2 0x4AF JUMP JUMPDEST DUP6 DUP1 MLOAD SWAP1 PUSH1 0x20 ADD KECCAK256 DUP6 PUSH1 0x40 MLOAD PUSH1 0x20 ADD PUSH2 0x49D SWAP3 SWAP2 SWAP1 PUSH2 0x12CA JUMP JUMPDEST PUSH1 0x40 MLOAD PUSH1 0x20 DUP2 DUP4 SUB SUB DUP2 MSTORE SWAP1 PUSH1 0x40 MSTORE SWAP1 POP JUMPDEST PUSH0 DUP1 DUP10 PUSH20 0xFFFFFFFFFFFFFFFFFFFFFFFFFFFFFFFFFFFFFFFF AND DUP10 DUP5 PUSH1 0x40 MLOAD PUSH2 0x4D7 SWAP2 SWAP1 PUSH2 0x12F1 JUMP JUMPDEST PUSH0 PUSH1 0x40 MLOAD DUP1 DUP4 SUB DUP2 DUP6 DUP8 GAS CALL SWAP3 POP POP POP RETURNDATASIZE DUP1 PUSH0 DUP2 EQ PUSH2 0x511 JUMPI PUSH1 0x40 MLOAD SWAP2 POP PUSH1 0x1F NOT PUSH1 0x3F RETURNDATASIZE ADD AND DUP3 ADD PUSH1 0x40 MSTORE RETURNDATASIZE DUP3 MSTORE RETURNDATASIZE PUSH0 PUSH1 0x20 DUP5 ADD RETURNDATACOPY PUSH2 0x516 JUMP JUMPDEST PUSH1 0x60 SWAP2 POP JUMPDEST POP SWAP2 POP SWAP2 POP DUP2 PUSH2 0x55B JUMPI PUSH1 0x40 MLOAD PUSH32 0x8C379A000000000000000000000000000000000000000000000000000000000 DUP2 MSTORE PUSH1 0x4 ADD PUSH2 0x552 SWAP1 PUSH2 0x1377 JUMP JUMPDEST PUSH1 0x40 MLOAD DUP1 SWAP2 SUB SWAP1 REVERT JUMPDEST DUP10 PUSH20 0xFFFFFFFFFFFFFFFFFFFFFFFFFFFFFFFFFFFFFFFF AND DUP5 PUSH32 0xA560E3198060A2F10670C1EC5B403077EA6AE93CA8DE1C32B451DC1A943CD6E7 DUP12 DUP12 DUP12 DUP12 PUSH1 0x40 MLOAD PUSH2 0x5A8 SWAP5 SWAP4 SWAP3 SWAP2 SWAP1 PUSH2 0x1395 JUMP JUMPDEST PUSH1 0x40 MLOAD DUP1 SWAP2 SUB SWAP1 LOG3 DUP1 SWAP5 POP POP POP POP POP SWAP6 SWAP5 POP POP POP POP POP JUMP JUMPDEST PUSH0 DUP1 PUSH0 SWAP1 SLOAD SWAP1 PUSH2 0x100 EXP SWAP1 DIV PUSH20 0xFFFFFFFFFFFFFFFFFFFFFFFFFFFFFFFFFFFFFFFF AND PUSH20 0xFFFFFFFFFFFFFFFFFFFFFFFFFFFFFFFFFFFFFFFF AND CALLER PUSH20 0xFFFFFFFFFFFFFFFFFFFFFFFFFFFFFFFFFFFFFFFF AND EQ PUSH2 0x64F JUMPI PUSH1 0x40 MLOAD PUSH32 0x8C379A000000000000000000000000000000000000000000000000000000000 DUP2 MSTORE PUSH1 0x4 ADD PUSH2 0x646 SWAP1 PUSH2 0xFF7 JUMP JUMPDEST PUSH1 0x40 MLOAD DUP1 SWAP2 SUB SWAP1 REVERT JUMPDEST PUSH1 0x1 SLOAD PUSH2 0x65A PUSH2 0x8C6 JUMP JUMPDEST PUSH2 0x664 SWAP2 SWAP1 PUSH2 0x1184 JUMP JUMPDEST DUP3 LT ISZERO PUSH2 0x6A6 JUMPI PUSH1 0x40 MLOAD PUSH32 0x8C379A000000000000000000000000000000000000000000000000000000000 DUP2 MSTORE PUSH1 0x4 ADD PUSH2 0x69D SWAP1 PUSH2 0x147C JUMP JUMPDEST PUSH1 0x40 MLOAD DUP1 SWAP2 SUB SWAP1 REVERT JUMPDEST PUSH0 PUSH2 0x6B4 DUP8 DUP8 DUP8 DUP8 DUP8 PUSH2 0x270 JUMP JUMPDEST SWAP1 POP PUSH1 0x1 PUSH1 0x2 PUSH0 DUP4 DUP2 MSTORE PUSH1 0x20 ADD SWAP1 DUP2 MSTORE PUSH1 0x20 ADD PUSH0 KECCAK256 PUSH0 PUSH2 0x100 EXP DUP2 SLOAD DUP2 PUSH1 0xFF MUL NOT AND SWAP1 DUP4 ISZERO ISZERO MUL OR SWAP1 SSTORE POP DUP7 PUSH20 0xFFFFFFFFFFFFFFFFFFFFFFFFFFFFFFFFFFFFFFFF AND DUP2 PUSH32 0x76E2796DC3A81D57B0E8504B647FEBCBEEB5F4AF818E164F11EEF8131A6A763F DUP9 DUP9 DUP9 DUP9 PUSH1 0x40 MLOAD PUSH2 0x72C SWAP5 SWAP4 SWAP3 SWAP2 SWAP1 PUSH2 0x1395 JUMP JUMPDEST PUSH1 0x40 MLOAD DUP1 SWAP2 SUB SWAP1 LOG3 DUP1 SWAP2 POP POP SWAP6 SWAP5 POP POP POP POP POP JUMP JUMPDEST PUSH0 DUP1 SLOAD SWAP1 PUSH2 0x100 EXP SWAP1 DIV PUSH20 0xFFFFFFFFFFFFFFFFFFFFFFFFFFFFFFFFFFFFFFFF AND PUSH20 0xFFFFFFFFFFFFFFFFFFFFFFFFFFFFFFFFFFFFFFFF AND CALLER PUSH20 0xFFFFFFFFFFFFFFFFFFFFFFFFFFFFFFFFFFFFFFFF AND EQ PUSH2 0x7CE JUMPI PUSH1 0x40 MLOAD PUSH32 0x8C379A000000000000000000000000000000000000000000000000000000000 DUP2 MSTORE PUSH1 0x4 ADD PUSH2 0x7C5 SWAP1 PUSH2 0xFF7 JUMP JUMPDEST PUSH1 0x40 MLOAD DUP1 SWAP2 SUB SWAP1 REVERT JUMPDEST PUSH0 PUSH2 0x7DC DUP7 DUP7 DUP7 DUP7 DUP7 PUSH2 0x270 JUMP JUMPDEST SWAP1 POP PUSH1 0x2 PUSH0 DUP3 DUP2 MSTORE PUSH1 0x20 ADD SWAP1 DUP2 MSTORE PUSH1 0x20 ADD PUSH0 KECCAK256 PUSH0 SWAP1 SLOAD SWAP1 PUSH2 0x100 EXP SWAP1 DIV PUSH1 0xFF AND PUSH2 0x83B JUMPI PUSH1 0x40 MLOAD PUSH32 0x8C379A000000000000000000000000000000000000000000000000000000000 DUP2 MSTORE PUSH1 0x4 ADD PUSH2 0x832 SWAP1 PUSH2 0x150A JUMP JUMPDEST PUSH1 0x40 MLOAD DUP1 SWAP2 SUB SWAP1 REVERT JUMPDEST PUSH0 PUSH1 0x2 PUSH0 DUP4 DUP2 MSTORE PUSH1 0x20 ADD SWAP1 DUP2 MSTORE PUSH1 0x20 ADD PUSH0 KECCAK256 PUSH0 PUSH2 0x100 EXP DUP2 SLOAD DUP2 PUSH1 0xFF MUL NOT AND SWAP1 DUP4 ISZERO ISZERO MUL OR SWAP1 SSTORE POP DUP6 PUSH20 0xFFFFFFFFFFFFFFFFFFFFFFFFFFFFFFFFFFFFFFFF AND DUP2 PUSH32 0x2FFFC091A501FD91BFBFF27141450D3ACB40FB8E6D8382B243EC7A812A3AAF87 DUP8 DUP8 DUP8 DUP8 PUSH1 0x40 MLOAD PUSH2 0x8B0 SWAP5 SWAP4 SWAP3 SWAP2 SWAP1 PUSH2 0x1395 JUMP JUMPDEST PUSH1 0x40 MLOAD DUP1 SWAP2 SUB SWAP1 LOG3 POP POP POP POP POP POP JUMP JUMPDEST PUSH1 0x1 SLOAD DUP2 JUMP JUMPDEST PUSH0 TIMESTAMP SWAP1 POP SWAP1 JUMP JUMPDEST ADDRESS PUSH20 0xFFFFFFFFFFFFFFFFFFFFFFFFFFFFFFFFFFFFFFFF AND CALLER PUSH20 0xFFFFFFFFFFFFFFFFFFFFFFFFFFFFFFFFFFFFFFFF AND EQ PUSH2 0x93B JUMPI PUSH1 0x40 MLOAD PUSH32 0x8C379A000000000000000000000000000000000000000000000000000000000 DUP2 MSTORE PUSH1 0x4 ADD PUSH2 0x932 SWAP1 PUSH2 0x1572 JUMP JUMPDEST PUSH1 0x40 MLOAD DUP1 SWAP2 SUB SWAP1 REVERT JUMPDEST DUP1 PUSH0 DUP1 PUSH2 0x100 EXP DUP2 SLOAD DUP2 PUSH20 0xFFFFFFFFFFFFFFFFFFFFFFFFFFFFFFFFFFFFFFFF MUL NOT AND SWAP1 DUP4 PUSH20 0xFFFFFFFFFFFFFFFFFFFFFFFFFFFFFFFFFFFFFFFF AND MUL OR SWAP1 SSTORE POP DUP1 PUSH20 0xFFFFFFFFFFFFFFFFFFFFFFFFFFFFFFFFFFFFFFFF AND PUSH32 0x71614071B88DEE5E0B2AE578A9DD7B2EBBE9AE832BA419DC0242CD065A290B6C PUSH1 0x40 MLOAD PUSH1 0x40 MLOAD DUP1 SWAP2 SUB SWAP1 LOG2 POP JUMP JUMPDEST PUSH3 0x93A80 DUP2 JUMP JUMPDEST PUSH1 0x2 PUSH1 0x20 MSTORE DUP1 PUSH0 MSTORE PUSH1 0x40 PUSH0 KECCAK256 PUSH0 SWAP2 POP SLOAD SWAP1 PUSH2 0x100 EXP SWAP1 DIV PUSH1 0xFF AND DUP2 JUMP JUMPDEST PUSH0 DUP1 SLOAD SWAP1 PUSH2 0x100 EXP SWAP1 DIV PUSH20 0xFFFFFFFFFFFFFFFFFFFFFFFFFFFFFFFFFFFFFFFF AND DUP2 JUMP JUMPDEST PUSH0 PUSH1 0x40 MLOAD SWAP1 POP SWAP1 JUMP JUMPDEST PUSH0 DUP1 REVERT JUMPDEST PUSH0 DUP1 REVERT JUMPDEST PUSH0 PUSH20 0xFFFFFFFFFFFFFFFFFFFFFFFFFFFFFFFFFFFFFFFF DUP3 AND SWAP1 POP SWAP2 SWAP1 POP JUMP JUMPDEST PUSH0 PUSH2 0xA41 DUP3 PUSH2 0xA18 JUMP JUMPDEST SWAP1 POP SWAP2 SWAP1 POP JUMP JUMPDEST PUSH2 0xA51 DUP2 PUSH2 0xA37 JUMP JUMPDEST DUP2 EQ PUSH2 0xA5B JUMPI PUSH0 DUP1 REVERT JUMPDEST POP JUMP JUMPDEST PUSH0 DUP2 CALLDATALOAD SWAP1 POP PUSH2 0xA6C DUP2 PUSH2 0xA48 JUMP JUMPDEST SWAP3 SWAP2 POP POP JUMP JUMPDEST PUSH0 DUP2 SWAP1 POP SWAP2 SWAP1 POP JUMP JUMPDEST PUSH2 0xA84 DUP2 PUSH2 0xA72 JUMP JUMPDEST DUP2 EQ PUSH2 0xA8E JUMPI PUSH0 DUP1 REVERT JUMPDEST POP JUMP JUMPDEST PUSH0 DUP2 CALLDATALOAD SWAP1 POP PUSH2 0xA9F DUP2 PUSH2 0xA7B JUMP JUMPDEST SWAP3 SWAP2 POP POP JUMP JUMPDEST PUSH0 DUP1 REVERT JUMPDEST PUSH0 DUP1 REVERT JUMPDEST PUSH0 PUSH1 0x1F NOT PUSH1 0x1F DUP4 ADD AND SWAP1 POP SWAP2 SWAP1 POP JUMP JUMPDEST PUSH32 0x4E487B7100000000000000000000000000000000000000000000000000000000 PUSH0 MSTORE PUSH1 0x41 PUSH1 0x4 MSTORE PUSH1 0x24 PUSH0 REVERT JUMPDEST PUSH2 0xAF3 DUP3 PUSH2 0xAAD JUMP JUMPDEST DUP2 ADD DUP2 DUP2 LT PUSH8 0xFFFFFFFFFFFFFFFF DUP3 GT OR ISZERO PUSH2 0xB12 JUMPI PUSH2 0xB11 PUSH2 0xABD JUMP JUMPDEST JUMPDEST DUP1 PUSH1 0x40 MSTORE POP POP POP JUMP JUMPDEST PUSH0 PUSH2 0xB24 PUSH2 0xA07 JUMP JUMPDEST SWAP1 POP PUSH2 0xB30 DUP3 DUP3 PUSH2 0xAEA JUMP JUMPDEST SWAP2 SWAP1 POP JUMP JUMPDEST PUSH0 PUSH8 0xFFFFFFFFFFFFFFFF DUP3 GT ISZERO PUSH2 0xB4F JUMPI PUSH2 0xB4E PUSH2 0xABD JUMP JUMPDEST JUMPDEST PUSH2 0xB58 DUP3 PUSH2 0xAAD JUMP JUMPDEST SWAP1 POP PUSH1 0x20 DUP2 ADD SWAP1 POP SWAP2 SWAP1 POP JUMP JUMPDEST DUP3 DUP2 DUP4 CALLDATACOPY PUSH0 DUP4 DUP4 ADD MSTORE POP POP POP JUMP JUMPDEST PUSH0 PUSH2 0xB85 PUSH2 0xB80 DUP5 PUSH2 0xB35 JUMP JUMPDEST PUSH2 0xB1B JUMP JUMPDEST SWAP1 POP DUP3 DUP2 MSTORE PUSH1 0x20 DUP2 ADD DUP5 DUP5 DUP5 ADD GT ISZERO PUSH2 0xBA1 JUMPI PUSH2 0xBA0 PUSH2 0xAA9 JUMP JUMPDEST JUMPDEST PUSH2 0xBAC DUP5 DUP3 DUP6 PUSH2 0xB65 JUMP JUMPDEST POP SWAP4 SWAP3 POP POP POP JUMP JUMPDEST PUSH0 DUP3 PUSH1 0x1F DUP4 ADD SLT PUSH2 0xBC8 JUMPI PUSH2 0xBC7 PUSH2 0xAA5 JUMP JUMPDEST JUMPDEST DUP2 CALLDATALOAD PUSH2 0xBD8 DUP5 DUP3 PUSH1 0x20 DUP7 ADD PUSH2 0xB73 JUMP JUMPDEST SWAP2 POP POP SWAP3 SWAP2 POP POP JUMP JUMPDEST PUSH0 PUSH8 0xFFFFFFFFFFFFFFFF DUP3 GT ISZERO PUSH2 0xBFB JUMPI PUSH2 0xBFA PUSH2 0xABD JUMP JUMPDEST JUMPDEST PUSH2 0xC04 DUP3 PUSH2 0xAAD JUMP JUMPDEST SWAP1 POP PUSH1 0x20 DUP2 ADD SWAP1 POP SWAP2 SWAP1 POP JUMP JUMPDEST PUSH0 PUSH2 0xC23 PUSH2 0xC1E DUP5 PUSH2 0xBE1 JUMP JUMPDEST PUSH2 0xB1B JUMP JUMPDEST SWAP1 POP DUP3 DUP2 MSTORE PUSH1 0x20 DUP2 ADD DUP5 DUP5 DUP5 ADD GT ISZERO PUSH2 0xC3F JUMPI PUSH2 0xC3E PUSH2 0xAA9 JUMP JUMPDEST JUMPDEST PUSH2 0xC4A DUP5 DUP3 DUP6 PUSH2 0xB65 JUMP JUMPDEST POP SWAP4 SWAP3 POP POP POP JUMP JUMPDEST PUSH0 DUP3 PUSH1 0x1F DUP4 ADD SLT PUSH2 0xC66 JUMPI PUSH2 0xC65 PUSH2 0xAA5 JUMP JUMPDEST JUMPDEST DUP2 CALLDATALOAD PUSH2 0xC76 DUP5 DUP3 PUSH1 0x20 DUP7 ADD PUSH2 0xC11 JUMP JUMPDEST SWAP2 POP POP SWAP3 SWAP2 POP POP JUMP JUMPDEST PUSH0 DUP1 PUSH0 DUP1 PUSH0 PUSH1 0xA0 DUP7 DUP9 SUB SLT ISZERO PUSH2 0xC98 JUMPI PUSH2 0xC97 PUSH2 0xA10 JUMP JUMPDEST JUMPDEST PUSH0 PUSH2 0xCA5 DUP9 DUP3 DUP10 ADD PUSH2 0xA5E JUMP JUMPDEST SWAP6 POP POP PUSH1 0x20 PUSH2 0xCB6 DUP9 DUP3 DUP10 ADD PUSH2 0xA91 JUMP JUMPDEST SWAP5 POP POP PUSH1 0x40 DUP7 ADD CALLDATALOAD PUSH8 0xFFFFFFFFFFFFFFFF DUP2 GT ISZERO PUSH2 0xCD7 JUMPI PUSH2 0xCD6 PUSH2 0xA14 JUMP JUMPDEST JUMPDEST PUSH2 0xCE3 DUP9 DUP3 DUP10 ADD PUSH2 0xBB4 JUMP JUMPDEST SWAP4 POP POP PUSH1 0x60 DUP7 ADD CALLDATALOAD PUSH8 0xFFFFFFFFFFFFFFFF DUP2 GT ISZERO PUSH2 0xD04 JUMPI PUSH2 0xD03 PUSH2 0xA14 JUMP JUMPDEST JUMPDEST PUSH2 0xD10 DUP9 DUP3 DUP10 ADD PUSH2 0xC52 JUMP JUMPDEST SWAP3 POP POP PUSH1 0x80 PUSH2 0xD21 DUP9 DUP3 DUP10 ADD PUSH2 0xA91 JUMP JUMPDEST SWAP2 POP POP SWAP3 SWAP6 POP SWAP3 SWAP6 SWAP1 SWAP4 POP JUMP JUMPDEST PUSH0 DUP2 SWAP1 POP SWAP2 SWAP1 POP JUMP JUMPDEST PUSH2 0xD40 DUP2 PUSH2 0xD2E JUMP JUMPDEST DUP3 MSTORE POP POP JUMP JUMPDEST PUSH0 PUSH1 0x20 DUP3 ADD SWAP1 POP PUSH2 0xD59 PUSH0 DUP4 ADD DUP5 PUSH2 0xD37 JUMP JUMPDEST SWAP3 SWAP2 POP POP JUMP JUMPDEST PUSH0 DUP2 MLOAD SWAP1 POP SWAP2 SWAP1 POP JUMP JUMPDEST PUSH0 DUP3 DUP3 MSTORE PUSH1 0x20 DUP3 ADD SWAP1 POP SWAP3 SWAP2 POP POP JUMP JUMPDEST PUSH0 JUMPDEST DUP4 DUP2 LT ISZERO PUSH2 0xD96 JUMPI DUP1 DUP3 ADD MLOAD DUP2 DUP5 ADD MSTORE PUSH1 0x20 DUP2 ADD SWAP1 POP PUSH2 0xD7B JUMP JUMPDEST PUSH0 DUP5 DUP5 ADD MSTORE POP POP POP POP JUMP JUMPDEST PUSH0 PUSH2 0xDAB DUP3 PUSH2 0xD5F JUMP JUMPDEST PUSH2 0xDB5 DUP2 DUP6 PUSH2 0xD69 JUMP JUMPDEST SWAP4 POP PUSH2 0xDC5 DUP2 DUP6 PUSH1 0x20 DUP7 ADD PUSH2 0xD79 JUMP JUMPDEST PUSH2 0xDCE DUP2 PUSH2 0xAAD JUMP JUMPDEST DUP5 ADD SWAP2 POP POP SWAP3 SWAP2 POP POP JUMP JUMPDEST PUSH0 PUSH1 0x20 DUP3 ADD SWAP1 POP DUP2 DUP2 SUB PUSH0 DUP4 ADD MSTORE PUSH2 0xDF1 DUP2 DUP5 PUSH2 0xDA1 JUMP JUMPDEST SWAP1 POP SWAP3 SWAP2 POP POP JUMP JUMPDEST PUSH2 0xE02 DUP2 PUSH2 0xA72 JUMP JUMPDEST DUP3 MSTORE POP POP JUMP JUMPDEST PUSH0 PUSH1 0x20 DUP3 ADD SWAP1 POP PUSH2 0xE1B PUSH0 DUP4 ADD DUP5 PUSH2 0xDF9 JUMP JUMPDEST SWAP3 SWAP2 POP POP JUMP JUMPDEST PUSH0 PUSH1 0x20 DUP3 DUP5 SUB SLT ISZERO PUSH2 0xE36 JUMPI PUSH2 0xE35 PUSH2 0xA10 JUMP JUMPDEST JUMPDEST PUSH0 PUSH2 0xE43 DUP5 DUP3 DUP6 ADD PUSH2 0xA5E JUMP JUMPDEST SWAP2 POP POP SWAP3 SWAP2 POP POP JUMP JUMPDEST PUSH2 0xE55 DUP2 PUSH2 0xD2E JUMP JUMPDEST DUP2 EQ PUSH2 0xE5F JUMPI PUSH0 DUP1 REVERT JUMPDEST POP JUMP JUMPDEST PUSH0 DUP2 CALLDATALOAD SWAP1 POP PUSH2 0xE70 DUP2 PUSH2 0xE4C JUMP JUMPDEST SWAP3 SWAP2 POP POP JUMP JUMPDEST PUSH0 PUSH1 0x20 DUP3 DUP5 SUB SLT ISZERO PUSH2 0xE8B JUMPI PUSH2 0xE8A PUSH2 0xA10 JUMP JUMPDEST JUMPDEST PUSH0 PUSH2 0xE98 DUP5 DUP3 DUP6 ADD PUSH2 0xE62 JUMP JUMPDEST SWAP2 POP POP SWAP3 SWAP2 POP POP JUMP JUMPDEST PUSH0 DUP2 ISZERO ISZERO SWAP1 POP SWAP2 SWAP1 POP JUMP JUMPDEST PUSH2 0xEB5 DUP2 PUSH2 0xEA1 JUMP JUMPDEST DUP3 MSTORE POP POP JUMP JUMPDEST PUSH0 PUSH1 0x20 DUP3 ADD SWAP1 POP PUSH2 0xECE PUSH0 DUP4 ADD DUP5 PUSH2 0xEAC JUMP JUMPDEST SWAP3 SWAP2 POP POP JUMP JUMPDEST PUSH2 0xEDD DUP2 PUSH2 0xA37 JUMP JUMPDEST DUP3 MSTORE POP POP JUMP JUMPDEST PUSH0 PUSH1 0x20 DUP3 ADD SWAP1 POP PUSH2 0xEF6 PUSH0 DUP4 ADD DUP5 PUSH2 0xED4 JUMP JUMPDEST SWAP3 SWAP2 POP POP JUMP JUMPDEST PUSH0 DUP2 MLOAD SWAP1 POP SWAP2 SWAP1 POP JUMP JUMPDEST PUSH0 DUP3 DUP3 MSTORE PUSH1 0x20 DUP3 ADD SWAP1 POP SWAP3 SWAP2 POP POP JUMP JUMPDEST PUSH0 PUSH2 0xF20 DUP3 PUSH2 0xEFC JUMP JUMPDEST PUSH2 0xF2A DUP2 DUP6 PUSH2 0xF06 JUMP JUMPDEST SWAP4 POP PUSH2 0xF3A DUP2 DUP6 PUSH1 0x20 DUP7 ADD PUSH2 0xD79 JUMP JUMPDEST PUSH2 0xF43 DUP2 PUSH2 0xAAD JUMP JUMPDEST DUP5 ADD SWAP2 POP POP SWAP3 SWAP2 POP POP JUMP JUMPDEST PUSH0 PUSH1 0xA0 DUP3 ADD SWAP1 POP PUSH2 0xF61 PUSH0 DUP4 ADD DUP9 PUSH2 0xED4 JUMP JUMPDEST PUSH2 0xF6E PUSH1 0x20 DUP4 ADD DUP8 PUSH2 0xDF9 JUMP JUMPDEST DUP2 DUP2 SUB PUSH1 0x40 DUP4 ADD MSTORE PUSH2 0xF80 DUP2 DUP7 PUSH2 0xF16 JUMP JUMPDEST SWAP1 POP DUP2 DUP2 SUB PUSH1 0x60 DUP4 ADD MSTORE PUSH2 0xF94 DUP2 DUP6 PUSH2 0xDA1 JUMP JUMPDEST SWAP1 POP PUSH2 0xFA3 PUSH1 0x80 DUP4 ADD DUP5 PUSH2 0xDF9 JUMP JUMPDEST SWAP7 SWAP6 POP POP POP POP POP POP JUMP JUMPDEST PUSH32 0x54696D656C6F636B3A2043616C6C6572206E6F742061646D696E000000000000 PUSH0 DUP3 ADD MSTORE POP JUMP JUMPDEST PUSH0 PUSH2 0xFE1 PUSH1 0x1A DUP4 PUSH2 0xF06 JUMP JUMPDEST SWAP2 POP PUSH2 0xFEC DUP3 PUSH2 0xFAD JUMP JUMPDEST PUSH1 0x20 DUP3 ADD SWAP1 POP SWAP2 SWAP1 POP JUMP JUMPDEST PUSH0 PUSH1 0x20 DUP3 ADD SWAP1 POP DUP2 DUP2 SUB PUSH0 DUP4 ADD MSTORE PUSH2 0x100E DUP2 PUSH2 0xFD5 JUMP JUMPDEST SWAP1 POP SWAP2 SWAP1 POP JUMP JUMPDEST PUSH32 0x54696D656C6F636B3A3A657865637574655472616E73616374696F6E3A205472 PUSH0 DUP3 ADD MSTORE PUSH32 0x616E73616374696F6E206861736E2774206265656E207175657565642E000000 PUSH1 0x20 DUP3 ADD MSTORE POP JUMP JUMPDEST PUSH0 PUSH2 0x106F PUSH1 0x3D DUP4 PUSH2 0xF06 JUMP JUMPDEST SWAP2 POP PUSH2 0x107A DUP3 PUSH2 0x1015 JUMP JUMPDEST PUSH1 0x40 DUP3 ADD SWAP1 POP SWAP2 SWAP1 POP JUMP JUMPDEST PUSH0 PUSH1 0x20 DUP3 ADD SWAP1 POP DUP2 DUP2 SUB PUSH0 DUP4 ADD MSTORE PUSH2 0x109C DUP2 PUSH2 0x1063 JUMP JUMPDEST SWAP1 POP SWAP2 SWAP1 POP JUMP JUMPDEST PUSH32 0x54696D656C6F636B3A3A657865637574655472616E73616374696F6E3A205472 PUSH0 DUP3 ADD MSTORE PUSH32 0x616E73616374696F6E206861736E2774207375727061737365642074696D6520 PUSH1 0x20 DUP3 ADD MSTORE PUSH32 0x6C6F636B2E000000000000000000000000000000000000000000000000000000 PUSH1 0x40 DUP3 ADD MSTORE POP JUMP JUMPDEST PUSH0 PUSH2 0x1123 PUSH1 0x45 DUP4 PUSH2 0xF06 JUMP JUMPDEST SWAP2 POP PUSH2 0x112E DUP3 PUSH2 0x10A3 JUMP JUMPDEST PUSH1 0x60 DUP3 ADD SWAP1 POP SWAP2 SWAP1 POP JUMP JUMPDEST PUSH0 PUSH1 0x20 DUP3 ADD SWAP1 POP DUP2 DUP2 SUB PUSH0 DUP4 ADD MSTORE PUSH2 0x1150 DUP2 PUSH2 0x1117 JUMP JUMPDEST SWAP1 POP SWAP2 SWAP1 POP JUMP JUMPDEST PUSH32 0x4E487B7100000000000000000000000000000000000000000000000000000000 PUSH0 MSTORE PUSH1 0x11 PUSH1 0x4 MSTORE PUSH1 0x24 PUSH0 REVERT JUMPDEST PUSH0 PUSH2 0x118E DUP3 PUSH2 0xA72 JUMP JUMPDEST SWAP2 POP PUSH2 0x1199 DUP4 PUSH2 0xA72 JUMP JUMPDEST SWAP3 POP DUP3 DUP3 ADD SWAP1 POP DUP1 DUP3 GT ISZERO PUSH2 0x11B1 JUMPI PUSH2 0x11B0 PUSH2 0x1157 JUMP JUMPDEST JUMPDEST SWAP3 SWAP2 POP POP JUMP JUMPDEST PUSH32 0x54696D656C6F636B3A3A657865637574655472616E73616374696F6E3A205472 PUSH0 DUP3 ADD MSTORE PUSH32 0x616E73616374696F6E206973207374616C652E00000000000000000000000000 PUSH1 0x20 DUP3 ADD MSTORE POP JUMP JUMPDEST PUSH0 PUSH2 0x1211 PUSH1 0x33 DUP4 PUSH2 0xF06 JUMP JUMPDEST SWAP2 POP PUSH2 0x121C DUP3 PUSH2 0x11B7 JUMP JUMPDEST PUSH1 0x40 DUP3 ADD SWAP1 POP SWAP2 SWAP1 POP JUMP JUMPDEST PUSH0 PUSH1 0x20 DUP3 ADD SWAP1 POP DUP2 DUP2 SUB PUSH0 DUP4 ADD MSTORE PUSH2 0x123E DUP2 PUSH2 0x1205 JUMP JUMPDEST SWAP1 POP SWAP2 SWAP1 POP JUMP JUMPDEST PUSH0 PUSH32 0xFFFFFFFF00000000000000000000000000000000000000000000000000000000 DUP3 AND SWAP1 POP SWAP2 SWAP1 POP JUMP JUMPDEST PUSH0 DUP2 SWAP1 POP SWAP2 SWAP1 POP JUMP JUMPDEST PUSH2 0x128A PUSH2 0x1285 DUP3 PUSH2 0x1245 JUMP JUMPDEST PUSH2 0x1270 JUMP JUMPDEST DUP3 MSTORE POP POP JUMP JUMPDEST PUSH0 DUP2 SWAP1 POP SWAP3 SWAP2 POP POP JUMP JUMPDEST PUSH0 PUSH2 0x12A4 DUP3 PUSH2 0xD5F JUMP JUMPDEST PUSH2 0x12AE DUP2 DUP6 PUSH2 0x1290 JUMP JUMPDEST SWAP4 POP PUSH2 0x12BE DUP2 DUP6 PUSH1 0x20 DUP7 ADD PUSH2 0xD79 JUMP JUMPDEST DUP1 DUP5 ADD SWAP2 POP POP SWAP3 SWAP2 POP POP JUMP JUMPDEST PUSH0 PUSH2 0x12D5 DUP3 DUP6 PUSH2 0x1279 JUMP JUMPDEST PUSH1 0x4 DUP3 ADD SWAP2 POP PUSH2 0x12E5 DUP3 DUP5 PUSH2 0x129A JUMP JUMPDEST SWAP2 POP DUP2 SWAP1 POP SWAP4 SWAP3 POP POP POP JUMP JUMPDEST PUSH0 PUSH2 0x12FC DUP3 DUP5 PUSH2 0x129A JUMP JUMPDEST SWAP2 POP DUP2 SWAP1 POP SWAP3 SWAP2 POP POP JUMP JUMPDEST PUSH32 0x54696D656C6F636B3A3A657865637574655472616E73616374696F6E3A205472 PUSH0 DUP3 ADD MSTORE PUSH32 0x616E73616374696F6E20657865637574696F6E2072657665727465642E000000 PUSH1 0x20 DUP3 ADD MSTORE POP JUMP JUMPDEST PUSH0 PUSH2 0x1361 PUSH1 0x3D DUP4 PUSH2 0xF06 JUMP JUMPDEST SWAP2 POP PUSH2 0x136C DUP3 PUSH2 0x1307 JUMP JUMPDEST PUSH1 0x40 DUP3 ADD SWAP1 POP SWAP2 SWAP1 POP JUMP JUMPDEST PUSH0 PUSH1 0x20 DUP3 ADD SWAP1 POP DUP2 DUP2 SUB PUSH0 DUP4 ADD MSTORE PUSH2 0x138E DUP2 PUSH2 0x1355 JUMP JUMPDEST SWAP1 POP SWAP2 SWAP1 POP JUMP JUMPDEST PUSH0 PUSH1 0x80 DUP3 ADD SWAP1 POP PUSH2 0x13A8 PUSH0 DUP4 ADD DUP8 PUSH2 0xDF9 JUMP JUMPDEST DUP2 DUP2 SUB PUSH1 0x20 DUP4 ADD MSTORE PUSH2 0x13BA DUP2 DUP7 PUSH2 0xF16 JUMP JUMPDEST SWAP1 POP DUP2 DUP2 SUB PUSH1 0x40 DUP4 ADD MSTORE PUSH2 0x13CE DUP2 DUP6 PUSH2 0xDA1 JUMP JUMPDEST SWAP1 POP PUSH2 0x13DD PUSH1 0x60 DUP4 ADD DUP5 PUSH2 0xDF9 JUMP JUMPDEST SWAP6 SWAP5 POP POP POP POP POP JUMP JUMPDEST PUSH32 0x54696D656C6F636B3A3A71756575655472616E73616374696F6E3A2045737469 PUSH0 DUP3 ADD MSTORE PUSH32 0x6D6174656420657865637574696F6E20626C6F636B206D757374207361746973 PUSH1 0x20 DUP3 ADD MSTORE PUSH32 0x66792064656C61792E0000000000000000000000000000000000000000000000 PUSH1 0x40 DUP3 ADD MSTORE POP JUMP JUMPDEST PUSH0 PUSH2 0x1466 PUSH1 0x49 DUP4 PUSH2 0xF06 JUMP JUMPDEST SWAP2 POP PUSH2 0x1471 DUP3 PUSH2 0x13E6 JUMP JUMPDEST PUSH1 0x60 DUP3 ADD SWAP1 POP SWAP2 SWAP1 POP JUMP JUMPDEST PUSH0 PUSH1 0x20 DUP3 ADD SWAP1 POP DUP2 DUP2 SUB PUSH0 DUP4 ADD MSTORE PUSH2 0x1493 DUP2 PUSH2 0x145A JUMP JUMPDEST SWAP1 POP SWAP2 SWAP1 POP JUMP JUMPDEST PUSH32 0x54696D656C6F636B3A3A63616E63656C5472616E73616374696F6E3A20547261 PUSH0 DUP3 ADD MSTORE PUSH32 0x6E73616374696F6E206861736E2774206265656E207175657565642E00000000 PUSH1 0x20 DUP3 ADD MSTORE POP JUMP JUMPDEST PUSH0 PUSH2 0x14F4 PUSH1 0x3C DUP4 PUSH2 0xF06 JUMP JUMPDEST SWAP2 POP PUSH2 0x14FF DUP3 PUSH2 0x149A JUMP JUMPDEST PUSH1 0x40 DUP3 ADD SWAP1 POP SWAP2 SWAP1 POP JUMP JUMPDEST PUSH0 PUSH1 0x20 DUP3 ADD SWAP1 POP DUP2 DUP2 SUB PUSH0 DUP4 ADD MSTORE PUSH2 0x1521 DUP2 PUSH2 0x14E8 JUMP JUMPDEST SWAP1 POP SWAP2 SWAP1 POP JUMP JUMPDEST PUSH32 0x54696D656C6F636B3A2043616C6C6572206E6F742054696D656C6F636B000000 PUSH0 DUP3 ADD MSTORE POP JUMP JUMPDEST PUSH0 PUSH2 0x155C PUSH1 0x1D DUP4 PUSH2 0xF06 JUMP JUMPDEST SWAP2 POP PUSH2 0x1567 DUP3 PUSH2 0x1528 JUMP JUMPDEST PUSH1 0x20 DUP3 ADD SWAP1 POP SWAP2 SWAP1 POP JUMP JUMPDEST PUSH0 PUSH1 0x20 DUP3 ADD SWAP1 POP DUP2 DUP2 SUB PUSH0 DUP4 ADD MSTORE PUSH2 0x1589 DUP2 PUSH2 0x1550 JUMP JUMPDEST SWAP1 POP SWAP2 SWAP1 POP JUMP INVALID LOG2 PUSH5 0x6970667358 0x22 SLT KECCAK256 SMOD PUSH21 0xDBD82D5DADAB9745302C711764C9B25F46EAE9E1D0 GASLIMIT 0xC 0xF 0xD5 0xF6 PUSH26 0xA9BADC64736F6C63430008150033000000000000000000000000 "
				},
				"gasEstimates": {
					"creation": {
						"codeDepositCost": "1114800",
						"executionCost": "infinite",
						"totalCost": "infinite"
					},
					"external": {
						"GRACE_PERIOD()": "369",
						"admin()": "2593",
						"cancelTransaction(address,uint256,string,bytes,uint256)": "infinite",
						"changeAdmin(address)": "25931",
						"delay()": "2514",
						"executeTransaction(address,uint256,string,bytes,uint256)": "infinite",
						"getBlockTimestamp()": "331",
						"getTxHash(address,uint256,string,bytes,uint256)": "infinite",
						"queueTransaction(address,uint256,string,bytes,uint256)": "infinite",
						"queuedTransactions(bytes32)": "2851"
					}
				},
				"methodIdentifiers": {
					"GRACE_PERIOD()": "c1a287e2",
					"admin()": "f851a440",
					"cancelTransaction(address,uint256,string,bytes,uint256)": "591fcdfe",
					"changeAdmin(address)": "8f283970",
					"delay()": "6a42b8f8",
					"executeTransaction(address,uint256,string,bytes,uint256)": "0825f38f",
					"getBlockTimestamp()": "796b89b9",
					"getTxHash(address,uint256,string,bytes,uint256)": "04a71576",
					"queueTransaction(address,uint256,string,bytes,uint256)": "3a66f901",
					"queuedTransactions(bytes32)": "f2b06537"
				}
			},
			"storageLayout": {
				"storage": [
					{
						"astId": 49,
						"contract": ".deps/remix-tests/Timelock.sol:Timelock",
						"label": "admin",
						"offset": 0,
						"slot": "0",
						"type": "t_address"
					},
					{
						"astId": 54,
						"contract": ".deps/remix-tests/Timelock.sol:Timelock",
						"label": "delay",
						"offset": 0,
						"slot": "1",
						"type": "t_uint256"
					},
					{
						"astId": 58,
						"contract": ".deps/remix-tests/Timelock.sol:Timelock",
						"label": "queuedTransactions",
						"offset": 0,
						"slot": "2",
						"type": "t_mapping(t_bytes32,t_bool)"
					}
				],
				"types": {
					"t_address": {
						"encoding": "inplace",
						"label": "address",
						"numberOfBytes": "20"
					},
					"t_bool": {
						"encoding": "inplace",
						"label": "bool",
						"numberOfBytes": "1"
					},
					"t_bytes32": {
						"encoding": "inplace",
						"label": "bytes32",
						"numberOfBytes": "32"
					},
					"t_mapping(t_bytes32,t_bool)": {
						"encoding": "mapping",
						"key": "t_bytes32",
						"label": "mapping(bytes32 => bool)",
						"numberOfBytes": "32",
						"value": "t_bool"
					},
					"t_uint256": {
						"encoding": "inplace",
						"label": "uint256",
						"numberOfBytes": "32"
					}
				}
			},
			"userdoc": {
				"kind": "user",
				"methods": {},
				"version": 1
			}
		}
	}
}