{
	"data": {
		"bytecode": {
			"linkReferences": {},
			"object": "608060405234801561000f575f80fd5b506108528061001d5f395ff3fe608060405234801561000f575f80fd5b5060043610610034575f3560e01c806341ed24a214610038578063ccb8c1e014610054575b5f80fd5b610052600480360381019061004d91906103ea565b610084565b005b61006e6004803603810190610069919061047b565b610280565b60405161007b91906104de565b60405180910390f35b8181905084849050146100cc576040517f08c379a00000000000000000000000000000000000000000000000000000000081526004016100c390610577565b60405180910390fd5b5f8590505f6100db8484610280565b9050808273ffffffffffffffffffffffffffffffffffffffff1663dd62ed3e33306040518363ffffffff1660e01b81526004016101199291906105a4565b602060405180830381865afa158015610134573d5f803e3d5ffd5b505050506040513d601f19601f8201168201806040525081019061015891906105f5565b11610198576040517f08c379a000000000000000000000000000000000000000000000000000000000815260040161018f9061066a565b60405180910390fd5b5f5b86869050811015610276578273ffffffffffffffffffffffffffffffffffffffff166323b872dd338989858181106101d5576101d4610688565b5b90506020020160208101906101ea91906106b5565b8888868181106101fd576101fc610688565b5b905060200201356040518463ffffffff1660e01b8152600401610222939291906106e0565b6020604051808303815f875af115801561023e573d5f803e3d5ffd5b505050506040513d601f19601f82011682018060405250810190610262919061074a565b50808061026e906107a2565b91505061019a565b5050505050505050565b5f805f90505b838390508110156102cb578383828181106102a4576102a3610688565b5b90506020020135826102b691906107e9565b915080806102c3906107a2565b915050610286565b5092915050565b5f80fd5b5f80fd5b5f73ffffffffffffffffffffffffffffffffffffffff82169050919050565b5f610303826102da565b9050919050565b610313816102f9565b811461031d575f80fd5b50565b5f8135905061032e8161030a565b92915050565b5f80fd5b5f80fd5b5f80fd5b5f8083601f84011261035557610354610334565b5b8235905067ffffffffffffffff81111561037257610371610338565b5b60208301915083602082028301111561038e5761038d61033c565b5b9250929050565b5f8083601f8401126103aa576103a9610334565b5b8235905067ffffffffffffffff8111156103c7576103c6610338565b5b6020830191508360208202830111156103e3576103e261033c565b5b9250929050565b5f805f805f60608688031215610403576104026102d2565b5b5f61041088828901610320565b955050602086013567ffffffffffffffff811115610431576104306102d6565b5b61043d88828901610340565b9450945050604086013567ffffffffffffffff8111156104605761045f6102d6565b5b61046c88828901610395565b92509250509295509295909350565b5f8060208385031215610491576104906102d2565b5b5f83013567ffffffffffffffff8111156104ae576104ad6102d6565b5b6104ba85828601610395565b92509250509250929050565b5f819050919050565b6104d8816104c6565b82525050565b5f6020820190506104f15f8301846104cf565b92915050565b5f82825260208201905092915050565b7f4c656e67746873206f662041646472657373657320616e6420416d6f756e74735f8201527f204e4f5420455155414c00000000000000000000000000000000000000000000602082015250565b5f610561602a836104f7565b915061056c82610507565b604082019050919050565b5f6020820190508181035f83015261058e81610555565b9050919050565b61059e816102f9565b82525050565b5f6040820190506105b75f830185610595565b6105c46020830184610595565b9392505050565b6105d4816104c6565b81146105de575f80fd5b50565b5f815190506105ef816105cb565b92915050565b5f6020828403121561060a576106096102d2565b5b5f610617848285016105e1565b91505092915050565b7f4e65656420417070726f766520455243323020746f6b656e00000000000000005f82015250565b5f6106546018836104f7565b915061065f82610620565b602082019050919050565b5f6020820190508181035f83015261068181610648565b9050919050565b7f4e487b71000000000000000000000000000000000000000000000000000000005f52603260045260245ffd5b5f602082840312156106ca576106c96102d2565b5b5f6106d784828501610320565b91505092915050565b5f6060820190506106f35f830186610595565b6107006020830185610595565b61070d60408301846104cf565b949350505050565b5f8115159050919050565b61072981610715565b8114610733575f80fd5b50565b5f8151905061074481610720565b92915050565b5f6020828403121561075f5761075e6102d2565b5b5f61076c84828501610736565b91505092915050565b7f4e487b71000000000000000000000000000000000000000000000000000000005f52601160045260245ffd5b5f6107ac826104c6565b91507fffffffffffffffffffffffffffffffffffffffffffffffffffffffffffffffff82036107de576107dd610775565b5b600182019050919050565b5f6107f3826104c6565b91506107fe836104c6565b925082820190508082111561081657610815610775565b5b9291505056fea264697066735822122070a39ea6597ed7621a5036fded7e8c2186f0bf3d506c035365077b0276b7cb1064736f6c63430008150033",
			"opcodes": "PUSH1 0x80 PUSH1 0x40 MSTORE CALLVALUE DUP1 ISZERO PUSH2 0xF JUMPI PUSH0 DUP1 REVERT JUMPDEST POP PUSH2 0x852 DUP1 PUSH2 0x1D PUSH0 CODECOPY PUSH0 RETURN INVALID PUSH1 0x80 PUSH1 0x40 MSTORE CALLVALUE DUP1 ISZERO PUSH2 0xF JUMPI PUSH0 DUP1 REVERT JUMPDEST POP PUSH1 0x4 CALLDATASIZE LT PUSH2 0x34 JUMPI PUSH0 CALLDATALOAD PUSH1 0xE0 SHR DUP1 PUSH4 0x41ED24A2 EQ PUSH2 0x38 JUMPI DUP1 PUSH4 0xCCB8C1E0 EQ PUSH2 0x54 JUMPI JUMPDEST PUSH0 DUP1 REVERT JUMPDEST PUSH2 0x52 PUSH1 0x4 DUP1 CALLDATASIZE SUB DUP2 ADD SWAP1 PUSH2 0x4D SWAP2 SWAP1 PUSH2 0x3EA JUMP JUMPDEST PUSH2 0x84 JUMP JUMPDEST STOP JUMPDEST PUSH2 0x6E PUSH1 0x4 DUP1 CALLDATASIZE SUB DUP2 ADD SWAP1 PUSH2 0x69 SWAP2 SWAP1 PUSH2 0x47B JUMP JUMPDEST PUSH2 0x280 JUMP JUMPDEST PUSH1 0x40 MLOAD PUSH2 0x7B SWAP2 SWAP1 PUSH2 0x4DE JUMP JUMPDEST PUSH1 0x40 MLOAD DUP1 SWAP2 SUB SWAP1 RETURN JUMPDEST DUP2 DUP2 SWAP1 POP DUP5 DUP5 SWAP1 POP EQ PUSH2 0xCC JUMPI PUSH1 0x40 MLOAD PUSH32 0x8C379A000000000000000000000000000000000000000000000000000000000 DUP2 MSTORE PUSH1 0x4 ADD PUSH2 0xC3 SWAP1 PUSH2 0x577 JUMP JUMPDEST PUSH1 0x40 MLOAD DUP1 SWAP2 SUB SWAP1 REVERT JUMPDEST PUSH0 DUP6 SWAP1 POP PUSH0 PUSH2 0xDB DUP5 DUP5 PUSH2 0x280 JUMP JUMPDEST SWAP1 POP DUP1 DUP3 PUSH20 0xFFFFFFFFFFFFFFFFFFFFFFFFFFFFFFFFFFFFFFFF AND PUSH4 0xDD62ED3E CALLER ADDRESS PUSH1 0x40 MLOAD DUP4 PUSH4 0xFFFFFFFF AND PUSH1 0xE0 SHL DUP2 MSTORE PUSH1 0x4 ADD PUSH2 0x119 SWAP3 SWAP2 SWAP1 PUSH2 0x5A4 JUMP JUMPDEST PUSH1 0x20 PUSH1 0x40 MLOAD DUP1 DUP4 SUB DUP2 DUP7 GAS STATICCALL ISZERO DUP1 ISZERO PUSH2 0x134 JUMPI RETURNDATASIZE PUSH0 DUP1 RETURNDATACOPY RETURNDATASIZE PUSH0 REVERT JUMPDEST POP POP POP POP PUSH1 0x40 MLOAD RETURNDATASIZE PUSH1 0x1F NOT PUSH1 0x1F DUP3 ADD AND DUP3 ADD DUP1 PUSH1 0x40 MSTORE POP DUP2 ADD SWAP1 PUSH2 0x158 SWAP2 SWAP1 PUSH2 0x5F5 JUMP JUMPDEST GT PUSH2 0x198 JUMPI PUSH1 0x40 MLOAD PUSH32 0x8C379A000000000000000000000000000000000000000000000000000000000 DUP2 MSTORE PUSH1 0x4 ADD PUSH2 0x18F SWAP1 PUSH2 0x66A JUMP JUMPDEST PUSH1 0x40 MLOAD DUP1 SWAP2 SUB SWAP1 REVERT JUMPDEST PUSH0 JUMPDEST DUP7 DUP7 SWAP1 POP DUP2 LT ISZERO PUSH2 0x276 JUMPI DUP3 PUSH20 0xFFFFFFFFFFFFFFFFFFFFFFFFFFFFFFFFFFFFFFFF AND PUSH4 0x23B872DD CALLER DUP10 DUP10 DUP6 DUP2 DUP2 LT PUSH2 0x1D5 JUMPI PUSH2 0x1D4 PUSH2 0x688 JUMP JUMPDEST JUMPDEST SWAP1 POP PUSH1 0x20 MUL ADD PUSH1 0x20 DUP2 ADD SWAP1 PUSH2 0x1EA SWAP2 SWAP1 PUSH2 0x6B5 JUMP JUMPDEST DUP9 DUP9 DUP7 DUP2 DUP2 LT PUSH2 0x1FD JUMPI PUSH2 0x1FC PUSH2 0x688 JUMP JUMPDEST JUMPDEST SWAP1 POP PUSH1 0x20 MUL ADD CALLDATALOAD PUSH1 0x40 MLOAD DUP5 PUSH4 0xFFFFFFFF AND PUSH1 0xE0 SHL DUP2 MSTORE PUSH1 0x4 ADD PUSH2 0x222 SWAP4 SWAP3 SWAP2 SWAP1 PUSH2 0x6E0 JUMP JUMPDEST PUSH1 0x20 PUSH1 0x40 MLOAD DUP1 DUP4 SUB DUP2 PUSH0 DUP8 GAS CALL ISZERO DUP1 ISZERO PUSH2 0x23E JUMPI RETURNDATASIZE PUSH0 DUP1 RETURNDATACOPY RETURNDATASIZE PUSH0 REVERT JUMPDEST POP POP POP POP PUSH1 0x40 MLOAD RETURNDATASIZE PUSH1 0x1F NOT PUSH1 0x1F DUP3 ADD AND DUP3 ADD DUP1 PUSH1 0x40 MSTORE POP DUP2 ADD SWAP1 PUSH2 0x262 SWAP2 SWAP1 PUSH2 0x74A JUMP JUMPDEST POP DUP1 DUP1 PUSH2 0x26E SWAP1 PUSH2 0x7A2 JUMP JUMPDEST SWAP2 POP POP PUSH2 0x19A JUMP JUMPDEST POP POP POP POP POP POP POP POP JUMP JUMPDEST PUSH0 DUP1 PUSH0 SWAP1 POP JUMPDEST DUP4 DUP4 SWAP1 POP DUP2 LT ISZERO PUSH2 0x2CB JUMPI DUP4 DUP4 DUP3 DUP2 DUP2 LT PUSH2 0x2A4 JUMPI PUSH2 0x2A3 PUSH2 0x688 JUMP JUMPDEST JUMPDEST SWAP1 POP PUSH1 0x20 MUL ADD CALLDATALOAD DUP3 PUSH2 0x2B6 SWAP2 SWAP1 PUSH2 0x7E9 JUMP JUMPDEST SWAP2 POP DUP1 DUP1 PUSH2 0x2C3 SWAP1 PUSH2 0x7A2 JUMP JUMPDEST SWAP2 POP POP PUSH2 0x286 JUMP JUMPDEST POP SWAP3 SWAP2 POP POP JUMP JUMPDEST PUSH0 DUP1 REVERT JUMPDEST PUSH0 DUP1 REVERT JUMPDEST PUSH0 PUSH20 0xFFFFFFFFFFFFFFFFFFFFFFFFFFFFFFFFFFFFFFFF DUP3 AND SWAP1 POP SWAP2 SWAP1 POP JUMP JUMPDEST PUSH0 PUSH2 0x303 DUP3 PUSH2 0x2DA JUMP JUMPDEST SWAP1 POP SWAP2 SWAP1 POP JUMP JUMPDEST PUSH2 0x313 DUP2 PUSH2 0x2F9 JUMP JUMPDEST DUP2 EQ PUSH2 0x31D JUMPI PUSH0 DUP1 REVERT JUMPDEST POP JUMP JUMPDEST PUSH0 DUP2 CALLDATALOAD SWAP1 POP PUSH2 0x32E DUP2 PUSH2 0x30A JUMP JUMPDEST SWAP3 SWAP2 POP POP JUMP JUMPDEST PUSH0 DUP1 REVERT JUMPDEST PUSH0 DUP1 REVERT JUMPDEST PUSH0 DUP1 REVERT JUMPDEST PUSH0 DUP1 DUP4 PUSH1 0x1F DUP5 ADD SLT PUSH2 0x355 JUMPI PUSH2 0x354 PUSH2 0x334 JUMP JUMPDEST JUMPDEST DUP3 CALLDATALOAD SWAP1 POP PUSH8 0xFFFFFFFFFFFFFFFF DUP2 GT ISZERO PUSH2 0x372 JUMPI PUSH2 0x371 PUSH2 0x338 JUMP JUMPDEST JUMPDEST PUSH1 0x20 DUP4 ADD SWAP2 POP DUP4 PUSH1 0x20 DUP3 MUL DUP4 ADD GT ISZERO PUSH2 0x38E JUMPI PUSH2 0x38D PUSH2 0x33C JUMP JUMPDEST JUMPDEST SWAP3 POP SWAP3 SWAP1 POP JUMP JUMPDEST PUSH0 DUP1 DUP4 PUSH1 0x1F DUP5 ADD SLT PUSH2 0x3AA JUMPI PUSH2 0x3A9 PUSH2 0x334 JUMP JUMPDEST JUMPDEST DUP3 CALLDATALOAD SWAP1 POP PUSH8 0xFFFFFFFFFFFFFFFF DUP2 GT ISZERO PUSH2 0x3C7 JUMPI PUSH2 0x3C6 PUSH2 0x338 JUMP JUMPDEST JUMPDEST PUSH1 0x20 DUP4 ADD SWAP2 POP DUP4 PUSH1 0x20 DUP3 MUL DUP4 ADD GT ISZERO PUSH2 0x3E3 JUMPI PUSH2 0x3E2 PUSH2 0x33C JUMP JUMPDEST JUMPDEST SWAP3 POP SWAP3 SWAP1 POP JUMP JUMPDEST PUSH0 DUP1 PUSH0 DUP1 PUSH0 PUSH1 0x60 DUP7 DUP9 SUB SLT ISZERO PUSH2 0x403 JUMPI PUSH2 0x402 PUSH2 0x2D2 JUMP JUMPDEST JUMPDEST PUSH0 PUSH2 0x410 DUP9 DUP3 DUP10 ADD PUSH2 0x320 JUMP JUMPDEST SWAP6 POP POP PUSH1 0x20 DUP7 ADD CALLDATALOAD PUSH8 0xFFFFFFFFFFFFFFFF DUP2 GT ISZERO PUSH2 0x431 JUMPI PUSH2 0x430 PUSH2 0x2D6 JUMP JUMPDEST JUMPDEST PUSH2 0x43D DUP9 DUP3 DUP10 ADD PUSH2 0x340 JUMP JUMPDEST SWAP5 POP SWAP5 POP POP PUSH1 0x40 DUP7 ADD CALLDATALOAD PUSH8 0xFFFFFFFFFFFFFFFF DUP2 GT ISZERO PUSH2 0x460 JUMPI PUSH2 0x45F PUSH2 0x2D6 JUMP JUMPDEST JUMPDEST PUSH2 0x46C DUP9 DUP3 DUP10 ADD PUSH2 0x395 JUMP JUMPDEST SWAP3 POP SWAP3 POP POP SWAP3 SWAP6 POP SWAP3 SWAP6 SWAP1 SWAP4 POP JUMP JUMPDEST PUSH0 DUP1 PUSH1 0x20 DUP4 DUP6 SUB SLT ISZERO PUSH2 0x491 JUMPI PUSH2 0x490 PUSH2 0x2D2 JUMP JUMPDEST JUMPDEST PUSH0 DUP4 ADD CALLDATALOAD PUSH8 0xFFFFFFFFFFFFFFFF DUP2 GT ISZERO PUSH2 0x4AE JUMPI PUSH2 0x4AD PUSH2 0x2D6 JUMP JUMPDEST JUMPDEST PUSH2 0x4BA DUP6 DUP3 DUP7 ADD PUSH2 0x395 JUMP JUMPDEST SWAP3 POP SWAP3 POP POP SWAP3 POP SWAP3 SWAP1 POP JUMP JUMPDEST PUSH0 DUP2 SWAP1 POP SWAP2 SWAP1 POP JUMP JUMPDEST PUSH2 0x4D8 DUP2 PUSH2 0x4C6 JUMP JUMPDEST DUP3 MSTORE POP POP JUMP JUMPDEST PUSH0 PUSH1 0x20 DUP3 ADD SWAP1 POP PUSH2 0x4F1 PUSH0 DUP4 ADD DUP5 PUSH2 0x4CF JUMP JUMPDEST SWAP3 SWAP2 POP POP JUMP JUMPDEST PUSH0 DUP3 DUP3 MSTORE PUSH1 0x20 DUP3 ADD SWAP1 POP SWAP3 SWAP2 POP POP JUMP JUMPDEST PUSH32 0x4C656E67746873206F662041646472657373657320616E6420416D6F756E7473 PUSH0 DUP3 ADD MSTORE PUSH32 0x204E4F5420455155414C00000000000000000000000000000000000000000000 PUSH1 0x20 DUP3 ADD MSTORE POP JUMP JUMPDEST PUSH0 PUSH2 0x561 PUSH1 0x2A DUP4 PUSH2 0x4F7 JUMP JUMPDEST SWAP2 POP PUSH2 0x56C DUP3 PUSH2 0x507 JUMP JUMPDEST PUSH1 0x40 DUP3 ADD SWAP1 POP SWAP2 SWAP1 POP JUMP JUMPDEST PUSH0 PUSH1 0x20 DUP3 ADD SWAP1 POP DUP2 DUP2 SUB PUSH0 DUP4 ADD MSTORE PUSH2 0x58E DUP2 PUSH2 0x555 JUMP JUMPDEST SWAP1 POP SWAP2 SWAP1 POP JUMP JUMPDEST PUSH2 0x59E DUP2 PUSH2 0x2F9 JUMP JUMPDEST DUP3 MSTORE POP POP JUMP JUMPDEST PUSH0 PUSH1 0x40 DUP3 ADD SWAP1 POP PUSH2 0x5B7 PUSH0 DUP4 ADD DUP6 PUSH2 0x595 JUMP JUMPDEST PUSH2 0x5C4 PUSH1 0x20 DUP4 ADD DUP5 PUSH2 0x595 JUMP JUMPDEST SWAP4 SWAP3 POP POP POP JUMP JUMPDEST PUSH2 0x5D4 DUP2 PUSH2 0x4C6 JUMP JUMPDEST DUP2 EQ PUSH2 0x5DE JUMPI PUSH0 DUP1 REVERT JUMPDEST POP JUMP JUMPDEST PUSH0 DUP2 MLOAD SWAP1 POP PUSH2 0x5EF DUP2 PUSH2 0x5CB JUMP JUMPDEST SWAP3 SWAP2 POP POP JUMP JUMPDEST PUSH0 PUSH1 0x20 DUP3 DUP5 SUB SLT ISZERO PUSH2 0x60A JUMPI PUSH2 0x609 PUSH2 0x2D2 JUMP JUMPDEST JUMPDEST PUSH0 PUSH2 0x617 DUP5 DUP3 DUP6 ADD PUSH2 0x5E1 JUMP JUMPDEST SWAP2 POP POP SWAP3 SWAP2 POP POP JUMP JUMPDEST PUSH32 0x4E65656420417070726F766520455243323020746F6B656E0000000000000000 PUSH0 DUP3 ADD MSTORE POP JUMP JUMPDEST PUSH0 PUSH2 0x654 PUSH1 0x18 DUP4 PUSH2 0x4F7 JUMP JUMPDEST SWAP2 POP PUSH2 0x65F DUP3 PUSH2 0x620 JUMP JUMPDEST PUSH1 0x20 DUP3 ADD SWAP1 POP SWAP2 SWAP1 POP JUMP JUMPDEST PUSH0 PUSH1 0x20 DUP3 ADD SWAP1 POP DUP2 DUP2 SUB PUSH0 DUP4 ADD MSTORE PUSH2 0x681 DUP2 PUSH2 0x648 JUMP JUMPDEST SWAP1 POP SWAP2 SWAP1 POP JUMP JUMPDEST PUSH32 0x4E487B7100000000000000000000000000000000000000000000000000000000 PUSH0 MSTORE PUSH1 0x32 PUSH1 0x4 MSTORE PUSH1 0x24 PUSH0 REVERT JUMPDEST PUSH0 PUSH1 0x20 DUP3 DUP5 SUB SLT ISZERO PUSH2 0x6CA JUMPI PUSH2 0x6C9 PUSH2 0x2D2 JUMP JUMPDEST JUMPDEST PUSH0 PUSH2 0x6D7 DUP5 DUP3 DUP6 ADD PUSH2 0x320 JUMP JUMPDEST SWAP2 POP POP SWAP3 SWAP2 POP POP JUMP JUMPDEST PUSH0 PUSH1 0x60 DUP3 ADD SWAP1 POP PUSH2 0x6F3 PUSH0 DUP4 ADD DUP7 PUSH2 0x595 JUMP JUMPDEST PUSH2 0x700 PUSH1 0x20 DUP4 ADD DUP6 PUSH2 0x595 JUMP JUMPDEST PUSH2 0x70D PUSH1 0x40 DUP4 ADD DUP5 PUSH2 0x4CF JUMP JUMPDEST SWAP5 SWAP4 POP POP POP POP JUMP JUMPDEST PUSH0 DUP2 ISZERO ISZERO SWAP1 POP SWAP2 SWAP1 POP JUMP JUMPDEST PUSH2 0x729 DUP2 PUSH2 0x715 JUMP JUMPDEST DUP2 EQ PUSH2 0x733 JUMPI PUSH0 DUP1 REVERT JUMPDEST POP JUMP JUMPDEST PUSH0 DUP2 MLOAD SWAP1 POP PUSH2 0x744 DUP2 PUSH2 0x720 JUMP JUMPDEST SWAP3 SWAP2 POP POP JUMP JUMPDEST PUSH0 PUSH1 0x20 DUP3 DUP5 SUB SLT ISZERO PUSH2 0x75F JUMPI PUSH2 0x75E PUSH2 0x2D2 JUMP JUMPDEST JUMPDEST PUSH0 PUSH2 0x76C DUP5 DUP3 DUP6 ADD PUSH2 0x736 JUMP JUMPDEST SWAP2 POP POP SWAP3 SWAP2 POP POP JUMP JUMPDEST PUSH32 0x4E487B7100000000000000000000000000000000000000000000000000000000 PUSH0 MSTORE PUSH1 0x11 PUSH1 0x4 MSTORE PUSH1 0x24 PUSH0 REVERT JUMPDEST PUSH0 PUSH2 0x7AC DUP3 PUSH2 0x4C6 JUMP JUMPDEST SWAP2 POP PUSH32 0xFFFFFFFFFFFFFFFFFFFFFFFFFFFFFFFFFFFFFFFFFFFFFFFFFFFFFFFFFFFFFFFF DUP3 SUB PUSH2 0x7DE JUMPI PUSH2 0x7DD PUSH2 0x775 JUMP JUMPDEST JUMPDEST PUSH1 0x1 DUP3 ADD SWAP1 POP SWAP2 SWAP1 POP JUMP JUMPDEST PUSH0 PUSH2 0x7F3 DUP3 PUSH2 0x4C6 JUMP JUMPDEST SWAP2 POP PUSH2 0x7FE DUP4 PUSH2 0x4C6 JUMP JUMPDEST SWAP3 POP DUP3 DUP3 ADD SWAP1 POP DUP1 DUP3 GT ISZERO PUSH2 0x816 JUMPI PUSH2 0x815 PUSH2 0x775 JUMP JUMPDEST JUMPDEST SWAP3 SWAP2 POP POP JUMP INVALID LOG2 PUSH5 0x6970667358 0x22 SLT KECCAK256 PUSH17 0xA39EA6597ED7621A5036FDED7E8C2186F0 0xBF RETURNDATASIZE POP PUSH13 0x35365077B0276B7CB1064736F PUSH13 0x63430008150033000000000000 "
		},
		"gasEstimates": {
			"creation": {
				"codeDepositCost": "426000",
				"executionCost": "459",
				"totalCost": "426459"
			},
			"external": {
				"getSum(uint256[])": "infinite",
				"multiTransferToken(address,address[],uint256[])": "infinite"
			}
		},
		"methodIdentifiers": {
			"getSum(uint256[])": "ccb8c1e0",
			"multiTransferToken(address,address[],uint256[])": "41ed24a2"
		}
	},
	"abi": [
		{
			"inputs": [
				{
					"internalType": "uint256[]",
					"name": "_arr",
					"type": "uint256[]"
				}
			],
			"name": "getSum",
			"outputs": [
				{
					"internalType": "uint256",
					"name": "sum",
					"type": "uint256"
				}
			],
			"stateMutability": "pure",
			"type": "function"
		},
		{
			"inputs": [
				{
					"internalType": "address",
					"name": "_token",
					"type": "address"
				},
				{
					"internalType": "address[]",
					"name": "_addresses",
					"type": "address[]"
				},
				{
					"internalType": "uint256[]",
					"name": "_amounts",
					"type": "uint256[]"
				}
			],
			"name": "multiTransferToken",
			"outputs": [],
			"stateMutability": "nonpayable",
			"type": "function"
		}
	]
}