{
	"data": {
		"bytecode": {
			"linkReferences": {},
			"object": "61090e61004e600b8282823980515f1a607314610042577f4e487b71000000000000000000000000000000000000000000000000000000005f525f60045260245ffd5b305f52607381538281f3fe730000000000000000000000000000000000000000301460806040526004361061004a575f3560e01c806363e1cbea1461004e5780636900a3ae1461007e5780638fba8d5c146100ae575b5f80fd5b61006860048036038101906100639190610524565b6100de565b60405161007591906105ec565b60405180910390f35b6100986004803603810190610093919061060c565b610313565b6040516100a591906105ec565b60405180910390f35b6100c860048036038101906100c3919061060c565b61046c565b6040516100d591906105ec565b60405180910390f35b60605f60028360026100f09190610664565b6100fa91906106a5565b67ffffffffffffffff811115610113576101126106d8565b5b6040519080825280601f01601f1916602001820160405280156101455781602001600182028036833780820191505090505b5090507f3000000000000000000000000000000000000000000000000000000000000000815f8151811061017c5761017b610705565b5b60200101907effffffffffffffffffffffffffffffffffffffffffffffffffffffffffffff191690815f1a9053507f7800000000000000000000000000000000000000000000000000000000000000816001815181106101df576101de610705565b5b60200101907effffffffffffffffffffffffffffffffffffffffffffffffffffffffffffff191690815f1a9053505f600184600261021d9190610664565b61022791906106a5565b90505b60018111156102c6577f3031323334353637383961626364656600000000000000000000000000000000600f86166010811061026957610268610705565b5b1a60f81b8282815181106102805761027f610705565b5b60200101907effffffffffffffffffffffffffffffffffffffffffffffffffffffffffffff191690815f1a905350600485901c9450806102bf90610732565b905061022a565b505f8414610309576040517f08c379a0000000000000000000000000000000000000000000000000000000008152600401610300906107b3565b60405180910390fd5b8091505092915050565b60605f8203610359576040518060400160405280600181526020017f30000000000000000000000000000000000000000000000000000000000000008152509050610467565b5f8290505f5b5f8214610388578080610371906107d1565b915050600a826103819190610845565b915061035f565b5f8167ffffffffffffffff8111156103a3576103a26106d8565b5b6040519080825280601f01601f1916602001820160405280156103d55781602001600182028036833780820191505090505b5090505b5f8514610460576001826103ed9190610875565b9150600a856103fc91906108a8565b603061040891906106a5565b60f81b81838151811061041e5761041d610705565b5b60200101907effffffffffffffffffffffffffffffffffffffffffffffffffffffffffffff191690815f1a905350600a856104599190610845565b94506103d9565b8093505050505b919050565b60605f82036104b2576040518060400160405280600481526020017f307830300000000000000000000000000000000000000000000000000000000081525090506104e8565b5f8290505f5b5f82146104d95780806104ca906107d1565b915050600882901c91506104b8565b6104e384826100de565b925050505b919050565b5f80fd5b5f819050919050565b610503816104f1565b811461050d575f80fd5b50565b5f8135905061051e816104fa565b92915050565b5f806040838503121561053a576105396104ed565b5b5f61054785828601610510565b925050602061055885828601610510565b9150509250929050565b5f81519050919050565b5f82825260208201905092915050565b5f5b8381101561059957808201518184015260208101905061057e565b5f8484015250505050565b5f601f19601f8301169050919050565b5f6105be82610562565b6105c8818561056c565b93506105d881856020860161057c565b6105e1816105a4565b840191505092915050565b5f6020820190508181035f83015261060481846105b4565b905092915050565b5f60208284031215610621576106206104ed565b5b5f61062e84828501610510565b91505092915050565b7f4e487b71000000000000000000000000000000000000000000000000000000005f52601160045260245ffd5b5f61066e826104f1565b9150610679836104f1565b9250828202610687816104f1565b9150828204841483151761069e5761069d610637565b5b5092915050565b5f6106af826104f1565b91506106ba836104f1565b92508282019050808211156106d2576106d1610637565b5b92915050565b7f4e487b71000000000000000000000000000000000000000000000000000000005f52604160045260245ffd5b7f4e487b71000000000000000000000000000000000000000000000000000000005f52603260045260245ffd5b5f61073c826104f1565b91505f820361074e5761074d610637565b5b600182039050919050565b5f82825260208201905092915050565b7f537472696e67733a20686578206c656e67746820696e73756666696369656e745f82015250565b5f61079d602083610759565b91506107a882610769565b602082019050919050565b5f6020820190508181035f8301526107ca81610791565b9050919050565b5f6107db826104f1565b91507fffffffffffffffffffffffffffffffffffffffffffffffffffffffffffffffff820361080d5761080c610637565b5b600182019050919050565b7f4e487b71000000000000000000000000000000000000000000000000000000005f52601260045260245ffd5b5f61084f826104f1565b915061085a836104f1565b92508261086a57610869610818565b5b828204905092915050565b5f61087f826104f1565b915061088a836104f1565b92508282039050818111156108a2576108a1610637565b5b92915050565b5f6108b2826104f1565b91506108bd836104f1565b9250826108cd576108cc610818565b5b82820690509291505056fea2646970667358221220e952f21e5f0f84016afbee33cbe86a2b4bb5e23e6db38d02413194fe5de7a67264736f6c63430008150033",
			"opcodes": "PUSH2 0x90E PUSH2 0x4E PUSH1 0xB DUP3 DUP3 DUP3 CODECOPY DUP1 MLOAD PUSH0 BYTE PUSH1 0x73 EQ PUSH2 0x42 JUMPI PUSH32 0x4E487B7100000000000000000000000000000000000000000000000000000000 PUSH0 MSTORE PUSH0 PUSH1 0x4 MSTORE PUSH1 0x24 PUSH0 REVERT JUMPDEST ADDRESS PUSH0 MSTORE PUSH1 0x73 DUP2 MSTORE8 DUP3 DUP2 RETURN INVALID PUSH20 0x0 ADDRESS EQ PUSH1 0x80 PUSH1 0x40 MSTORE PUSH1 0x4 CALLDATASIZE LT PUSH2 0x4A JUMPI PUSH0 CALLDATALOAD PUSH1 0xE0 SHR DUP1 PUSH4 0x63E1CBEA EQ PUSH2 0x4E JUMPI DUP1 PUSH4 0x6900A3AE EQ PUSH2 0x7E JUMPI DUP1 PUSH4 0x8FBA8D5C EQ PUSH2 0xAE JUMPI JUMPDEST PUSH0 DUP1 REVERT JUMPDEST PUSH2 0x68 PUSH1 0x4 DUP1 CALLDATASIZE SUB DUP2 ADD SWAP1 PUSH2 0x63 SWAP2 SWAP1 PUSH2 0x524 JUMP JUMPDEST PUSH2 0xDE JUMP JUMPDEST PUSH1 0x40 MLOAD PUSH2 0x75 SWAP2 SWAP1 PUSH2 0x5EC JUMP JUMPDEST PUSH1 0x40 MLOAD DUP1 SWAP2 SUB SWAP1 RETURN JUMPDEST PUSH2 0x98 PUSH1 0x4 DUP1 CALLDATASIZE SUB DUP2 ADD SWAP1 PUSH2 0x93 SWAP2 SWAP1 PUSH2 0x60C JUMP JUMPDEST PUSH2 0x313 JUMP JUMPDEST PUSH1 0x40 MLOAD PUSH2 0xA5 SWAP2 SWAP1 PUSH2 0x5EC JUMP JUMPDEST PUSH1 0x40 MLOAD DUP1 SWAP2 SUB SWAP1 RETURN JUMPDEST PUSH2 0xC8 PUSH1 0x4 DUP1 CALLDATASIZE SUB DUP2 ADD SWAP1 PUSH2 0xC3 SWAP2 SWAP1 PUSH2 0x60C JUMP JUMPDEST PUSH2 0x46C JUMP JUMPDEST PUSH1 0x40 MLOAD PUSH2 0xD5 SWAP2 SWAP1 PUSH2 0x5EC JUMP JUMPDEST PUSH1 0x40 MLOAD DUP1 SWAP2 SUB SWAP1 RETURN JUMPDEST PUSH1 0x60 PUSH0 PUSH1 0x2 DUP4 PUSH1 0x2 PUSH2 0xF0 SWAP2 SWAP1 PUSH2 0x664 JUMP JUMPDEST PUSH2 0xFA SWAP2 SWAP1 PUSH2 0x6A5 JUMP JUMPDEST PUSH8 0xFFFFFFFFFFFFFFFF DUP2 GT ISZERO PUSH2 0x113 JUMPI PUSH2 0x112 PUSH2 0x6D8 JUMP JUMPDEST JUMPDEST PUSH1 0x40 MLOAD SWAP1 DUP1 DUP3 MSTORE DUP1 PUSH1 0x1F ADD PUSH1 0x1F NOT AND PUSH1 0x20 ADD DUP3 ADD PUSH1 0x40 MSTORE DUP1 ISZERO PUSH2 0x145 JUMPI DUP2 PUSH1 0x20 ADD PUSH1 0x1 DUP3 MUL DUP1 CALLDATASIZE DUP4 CALLDATACOPY DUP1 DUP3 ADD SWAP2 POP POP SWAP1 POP JUMPDEST POP SWAP1 POP PUSH32 0x3000000000000000000000000000000000000000000000000000000000000000 DUP2 PUSH0 DUP2 MLOAD DUP2 LT PUSH2 0x17C JUMPI PUSH2 0x17B PUSH2 0x705 JUMP JUMPDEST JUMPDEST PUSH1 0x20 ADD ADD SWAP1 PUSH31 0xFFFFFFFFFFFFFFFFFFFFFFFFFFFFFFFFFFFFFFFFFFFFFFFFFFFFFFFFFFFFFF NOT AND SWAP1 DUP2 PUSH0 BYTE SWAP1 MSTORE8 POP PUSH32 0x7800000000000000000000000000000000000000000000000000000000000000 DUP2 PUSH1 0x1 DUP2 MLOAD DUP2 LT PUSH2 0x1DF JUMPI PUSH2 0x1DE PUSH2 0x705 JUMP JUMPDEST JUMPDEST PUSH1 0x20 ADD ADD SWAP1 PUSH31 0xFFFFFFFFFFFFFFFFFFFFFFFFFFFFFFFFFFFFFFFFFFFFFFFFFFFFFFFFFFFFFF NOT AND SWAP1 DUP2 PUSH0 BYTE SWAP1 MSTORE8 POP PUSH0 PUSH1 0x1 DUP5 PUSH1 0x2 PUSH2 0x21D SWAP2 SWAP1 PUSH2 0x664 JUMP JUMPDEST PUSH2 0x227 SWAP2 SWAP1 PUSH2 0x6A5 JUMP JUMPDEST SWAP1 POP JUMPDEST PUSH1 0x1 DUP2 GT ISZERO PUSH2 0x2C6 JUMPI PUSH32 0x3031323334353637383961626364656600000000000000000000000000000000 PUSH1 0xF DUP7 AND PUSH1 0x10 DUP2 LT PUSH2 0x269 JUMPI PUSH2 0x268 PUSH2 0x705 JUMP JUMPDEST JUMPDEST BYTE PUSH1 0xF8 SHL DUP3 DUP3 DUP2 MLOAD DUP2 LT PUSH2 0x280 JUMPI PUSH2 0x27F PUSH2 0x705 JUMP JUMPDEST JUMPDEST PUSH1 0x20 ADD ADD SWAP1 PUSH31 0xFFFFFFFFFFFFFFFFFFFFFFFFFFFFFFFFFFFFFFFFFFFFFFFFFFFFFFFFFFFFFF NOT AND SWAP1 DUP2 PUSH0 BYTE SWAP1 MSTORE8 POP PUSH1 0x4 DUP6 SWAP1 SHR SWAP5 POP DUP1 PUSH2 0x2BF SWAP1 PUSH2 0x732 JUMP JUMPDEST SWAP1 POP PUSH2 0x22A JUMP JUMPDEST POP PUSH0 DUP5 EQ PUSH2 0x309 JUMPI PUSH1 0x40 MLOAD PUSH32 0x8C379A000000000000000000000000000000000000000000000000000000000 DUP2 MSTORE PUSH1 0x4 ADD PUSH2 0x300 SWAP1 PUSH2 0x7B3 JUMP JUMPDEST PUSH1 0x40 MLOAD DUP1 SWAP2 SUB SWAP1 REVERT JUMPDEST DUP1 SWAP2 POP POP SWAP3 SWAP2 POP POP JUMP JUMPDEST PUSH1 0x60 PUSH0 DUP3 SUB PUSH2 0x359 JUMPI PUSH1 0x40 MLOAD DUP1 PUSH1 0x40 ADD PUSH1 0x40 MSTORE DUP1 PUSH1 0x1 DUP2 MSTORE PUSH1 0x20 ADD PUSH32 0x3000000000000000000000000000000000000000000000000000000000000000 DUP2 MSTORE POP SWAP1 POP PUSH2 0x467 JUMP JUMPDEST PUSH0 DUP3 SWAP1 POP PUSH0 JUMPDEST PUSH0 DUP3 EQ PUSH2 0x388 JUMPI DUP1 DUP1 PUSH2 0x371 SWAP1 PUSH2 0x7D1 JUMP JUMPDEST SWAP2 POP POP PUSH1 0xA DUP3 PUSH2 0x381 SWAP2 SWAP1 PUSH2 0x845 JUMP JUMPDEST SWAP2 POP PUSH2 0x35F JUMP JUMPDEST PUSH0 DUP2 PUSH8 0xFFFFFFFFFFFFFFFF DUP2 GT ISZERO PUSH2 0x3A3 JUMPI PUSH2 0x3A2 PUSH2 0x6D8 JUMP JUMPDEST JUMPDEST PUSH1 0x40 MLOAD SWAP1 DUP1 DUP3 MSTORE DUP1 PUSH1 0x1F ADD PUSH1 0x1F NOT AND PUSH1 0x20 ADD DUP3 ADD PUSH1 0x40 MSTORE DUP1 ISZERO PUSH2 0x3D5 JUMPI DUP2 PUSH1 0x20 ADD PUSH1 0x1 DUP3 MUL DUP1 CALLDATASIZE DUP4 CALLDATACOPY DUP1 DUP3 ADD SWAP2 POP POP SWAP1 POP JUMPDEST POP SWAP1 POP JUMPDEST PUSH0 DUP6 EQ PUSH2 0x460 JUMPI PUSH1 0x1 DUP3 PUSH2 0x3ED SWAP2 SWAP1 PUSH2 0x875 JUMP JUMPDEST SWAP2 POP PUSH1 0xA DUP6 PUSH2 0x3FC SWAP2 SWAP1 PUSH2 0x8A8 JUMP JUMPDEST PUSH1 0x30 PUSH2 0x408 SWAP2 SWAP1 PUSH2 0x6A5 JUMP JUMPDEST PUSH1 0xF8 SHL DUP2 DUP4 DUP2 MLOAD DUP2 LT PUSH2 0x41E JUMPI PUSH2 0x41D PUSH2 0x705 JUMP JUMPDEST JUMPDEST PUSH1 0x20 ADD ADD SWAP1 PUSH31 0xFFFFFFFFFFFFFFFFFFFFFFFFFFFFFFFFFFFFFFFFFFFFFFFFFFFFFFFFFFFFFF NOT AND SWAP1 DUP2 PUSH0 BYTE SWAP1 MSTORE8 POP PUSH1 0xA DUP6 PUSH2 0x459 SWAP2 SWAP1 PUSH2 0x845 JUMP JUMPDEST SWAP5 POP PUSH2 0x3D9 JUMP JUMPDEST DUP1 SWAP4 POP POP POP POP JUMPDEST SWAP2 SWAP1 POP JUMP JUMPDEST PUSH1 0x60 PUSH0 DUP3 SUB PUSH2 0x4B2 JUMPI PUSH1 0x40 MLOAD DUP1 PUSH1 0x40 ADD PUSH1 0x40 MSTORE DUP1 PUSH1 0x4 DUP2 MSTORE PUSH1 0x20 ADD PUSH32 0x3078303000000000000000000000000000000000000000000000000000000000 DUP2 MSTORE POP SWAP1 POP PUSH2 0x4E8 JUMP JUMPDEST PUSH0 DUP3 SWAP1 POP PUSH0 JUMPDEST PUSH0 DUP3 EQ PUSH2 0x4D9 JUMPI DUP1 DUP1 PUSH2 0x4CA SWAP1 PUSH2 0x7D1 JUMP JUMPDEST SWAP2 POP POP PUSH1 0x8 DUP3 SWAP1 SHR SWAP2 POP PUSH2 0x4B8 JUMP JUMPDEST PUSH2 0x4E3 DUP5 DUP3 PUSH2 0xDE JUMP JUMPDEST SWAP3 POP POP POP JUMPDEST SWAP2 SWAP1 POP JUMP JUMPDEST PUSH0 DUP1 REVERT JUMPDEST PUSH0 DUP2 SWAP1 POP SWAP2 SWAP1 POP JUMP JUMPDEST PUSH2 0x503 DUP2 PUSH2 0x4F1 JUMP JUMPDEST DUP2 EQ PUSH2 0x50D JUMPI PUSH0 DUP1 REVERT JUMPDEST POP JUMP JUMPDEST PUSH0 DUP2 CALLDATALOAD SWAP1 POP PUSH2 0x51E DUP2 PUSH2 0x4FA JUMP JUMPDEST SWAP3 SWAP2 POP POP JUMP JUMPDEST PUSH0 DUP1 PUSH1 0x40 DUP4 DUP6 SUB SLT ISZERO PUSH2 0x53A JUMPI PUSH2 0x539 PUSH2 0x4ED JUMP JUMPDEST JUMPDEST PUSH0 PUSH2 0x547 DUP6 DUP3 DUP7 ADD PUSH2 0x510 JUMP JUMPDEST SWAP3 POP POP PUSH1 0x20 PUSH2 0x558 DUP6 DUP3 DUP7 ADD PUSH2 0x510 JUMP JUMPDEST SWAP2 POP POP SWAP3 POP SWAP3 SWAP1 POP JUMP JUMPDEST PUSH0 DUP2 MLOAD SWAP1 POP SWAP2 SWAP1 POP JUMP JUMPDEST PUSH0 DUP3 DUP3 MSTORE PUSH1 0x20 DUP3 ADD SWAP1 POP SWAP3 SWAP2 POP POP JUMP JUMPDEST PUSH0 JUMPDEST DUP4 DUP2 LT ISZERO PUSH2 0x599 JUMPI DUP1 DUP3 ADD MLOAD DUP2 DUP5 ADD MSTORE PUSH1 0x20 DUP2 ADD SWAP1 POP PUSH2 0x57E JUMP JUMPDEST PUSH0 DUP5 DUP5 ADD MSTORE POP POP POP POP JUMP JUMPDEST PUSH0 PUSH1 0x1F NOT PUSH1 0x1F DUP4 ADD AND SWAP1 POP SWAP2 SWAP1 POP JUMP JUMPDEST PUSH0 PUSH2 0x5BE DUP3 PUSH2 0x562 JUMP JUMPDEST PUSH2 0x5C8 DUP2 DUP6 PUSH2 0x56C JUMP JUMPDEST SWAP4 POP PUSH2 0x5D8 DUP2 DUP6 PUSH1 0x20 DUP7 ADD PUSH2 0x57C JUMP JUMPDEST PUSH2 0x5E1 DUP2 PUSH2 0x5A4 JUMP JUMPDEST DUP5 ADD SWAP2 POP POP SWAP3 SWAP2 POP POP JUMP JUMPDEST PUSH0 PUSH1 0x20 DUP3 ADD SWAP1 POP DUP2 DUP2 SUB PUSH0 DUP4 ADD MSTORE PUSH2 0x604 DUP2 DUP5 PUSH2 0x5B4 JUMP JUMPDEST SWAP1 POP SWAP3 SWAP2 POP POP JUMP JUMPDEST PUSH0 PUSH1 0x20 DUP3 DUP5 SUB SLT ISZERO PUSH2 0x621 JUMPI PUSH2 0x620 PUSH2 0x4ED JUMP JUMPDEST JUMPDEST PUSH0 PUSH2 0x62E DUP5 DUP3 DUP6 ADD PUSH2 0x510 JUMP JUMPDEST SWAP2 POP POP SWAP3 SWAP2 POP POP JUMP JUMPDEST PUSH32 0x4E487B7100000000000000000000000000000000000000000000000000000000 PUSH0 MSTORE PUSH1 0x11 PUSH1 0x4 MSTORE PUSH1 0x24 PUSH0 REVERT JUMPDEST PUSH0 PUSH2 0x66E DUP3 PUSH2 0x4F1 JUMP JUMPDEST SWAP2 POP PUSH2 0x679 DUP4 PUSH2 0x4F1 JUMP JUMPDEST SWAP3 POP DUP3 DUP3 MUL PUSH2 0x687 DUP2 PUSH2 0x4F1 JUMP JUMPDEST SWAP2 POP DUP3 DUP3 DIV DUP5 EQ DUP4 ISZERO OR PUSH2 0x69E JUMPI PUSH2 0x69D PUSH2 0x637 JUMP JUMPDEST JUMPDEST POP SWAP3 SWAP2 POP POP JUMP JUMPDEST PUSH0 PUSH2 0x6AF DUP3 PUSH2 0x4F1 JUMP JUMPDEST SWAP2 POP PUSH2 0x6BA DUP4 PUSH2 0x4F1 JUMP JUMPDEST SWAP3 POP DUP3 DUP3 ADD SWAP1 POP DUP1 DUP3 GT ISZERO PUSH2 0x6D2 JUMPI PUSH2 0x6D1 PUSH2 0x637 JUMP JUMPDEST JUMPDEST SWAP3 SWAP2 POP POP JUMP JUMPDEST PUSH32 0x4E487B7100000000000000000000000000000000000000000000000000000000 PUSH0 MSTORE PUSH1 0x41 PUSH1 0x4 MSTORE PUSH1 0x24 PUSH0 REVERT JUMPDEST PUSH32 0x4E487B7100000000000000000000000000000000000000000000000000000000 PUSH0 MSTORE PUSH1 0x32 PUSH1 0x4 MSTORE PUSH1 0x24 PUSH0 REVERT JUMPDEST PUSH0 PUSH2 0x73C DUP3 PUSH2 0x4F1 JUMP JUMPDEST SWAP2 POP PUSH0 DUP3 SUB PUSH2 0x74E JUMPI PUSH2 0x74D PUSH2 0x637 JUMP JUMPDEST JUMPDEST PUSH1 0x1 DUP3 SUB SWAP1 POP SWAP2 SWAP1 POP JUMP JUMPDEST PUSH0 DUP3 DUP3 MSTORE PUSH1 0x20 DUP3 ADD SWAP1 POP SWAP3 SWAP2 POP POP JUMP JUMPDEST PUSH32 0x537472696E67733A20686578206C656E67746820696E73756666696369656E74 PUSH0 DUP3 ADD MSTORE POP JUMP JUMPDEST PUSH0 PUSH2 0x79D PUSH1 0x20 DUP4 PUSH2 0x759 JUMP JUMPDEST SWAP2 POP PUSH2 0x7A8 DUP3 PUSH2 0x769 JUMP JUMPDEST PUSH1 0x20 DUP3 ADD SWAP1 POP SWAP2 SWAP1 POP JUMP JUMPDEST PUSH0 PUSH1 0x20 DUP3 ADD SWAP1 POP DUP2 DUP2 SUB PUSH0 DUP4 ADD MSTORE PUSH2 0x7CA DUP2 PUSH2 0x791 JUMP JUMPDEST SWAP1 POP SWAP2 SWAP1 POP JUMP JUMPDEST PUSH0 PUSH2 0x7DB DUP3 PUSH2 0x4F1 JUMP JUMPDEST SWAP2 POP PUSH32 0xFFFFFFFFFFFFFFFFFFFFFFFFFFFFFFFFFFFFFFFFFFFFFFFFFFFFFFFFFFFFFFFF DUP3 SUB PUSH2 0x80D JUMPI PUSH2 0x80C PUSH2 0x637 JUMP JUMPDEST JUMPDEST PUSH1 0x1 DUP3 ADD SWAP1 POP SWAP2 SWAP1 POP JUMP JUMPDEST PUSH32 0x4E487B7100000000000000000000000000000000000000000000000000000000 PUSH0 MSTORE PUSH1 0x12 PUSH1 0x4 MSTORE PUSH1 0x24 PUSH0 REVERT JUMPDEST PUSH0 PUSH2 0x84F DUP3 PUSH2 0x4F1 JUMP JUMPDEST SWAP2 POP PUSH2 0x85A DUP4 PUSH2 0x4F1 JUMP JUMPDEST SWAP3 POP DUP3 PUSH2 0x86A JUMPI PUSH2 0x869 PUSH2 0x818 JUMP JUMPDEST JUMPDEST DUP3 DUP3 DIV SWAP1 POP SWAP3 SWAP2 POP POP JUMP JUMPDEST PUSH0 PUSH2 0x87F DUP3 PUSH2 0x4F1 JUMP JUMPDEST SWAP2 POP PUSH2 0x88A DUP4 PUSH2 0x4F1 JUMP JUMPDEST SWAP3 POP DUP3 DUP3 SUB SWAP1 POP DUP2 DUP2 GT ISZERO PUSH2 0x8A2 JUMPI PUSH2 0x8A1 PUSH2 0x637 JUMP JUMPDEST JUMPDEST SWAP3 SWAP2 POP POP JUMP JUMPDEST PUSH0 PUSH2 0x8B2 DUP3 PUSH2 0x4F1 JUMP JUMPDEST SWAP2 POP PUSH2 0x8BD DUP4 PUSH2 0x4F1 JUMP JUMPDEST SWAP3 POP DUP3 PUSH2 0x8CD JUMPI PUSH2 0x8CC PUSH2 0x818 JUMP JUMPDEST JUMPDEST DUP3 DUP3 MOD SWAP1 POP SWAP3 SWAP2 POP POP JUMP INVALID LOG2 PUSH5 0x6970667358 0x22 SLT KECCAK256 0xE9 MSTORE CALLCODE 0x1E PUSH0 0xF DUP5 ADD PUSH11 0xFBEE33CBE86A2B4BB5E23E PUSH14 0xB38D02413194FE5DE7A67264736F PUSH13 0x63430008150033000000000000 "
		},
		"gasEstimates": {
			"creation": {
				"codeDepositCost": "463600",
				"executionCost": "522",
				"totalCost": "464122"
			},
			"external": {
				"toHexString(uint256)": "infinite",
				"toHexString(uint256,uint256)": "infinite",
				"toString(uint256)": "infinite"
			}
		},
		"methodIdentifiers": {
			"toHexString(uint256)": "8fba8d5c",
			"toHexString(uint256,uint256)": "63e1cbea",
			"toString(uint256)": "6900a3ae"
		}
	},
	"abi": [
		{
			"inputs": [
				{
					"internalType": "uint256",
					"name": "value",
					"type": "uint256"
				},
				{
					"internalType": "uint256",
					"name": "length",
					"type": "uint256"
				}
			],
			"name": "toHexString",
			"outputs": [
				{
					"internalType": "string",
					"name": "",
					"type": "string"
				}
			],
			"stateMutability": "pure",
			"type": "function"
		},
		{
			"inputs": [
				{
					"internalType": "uint256",
					"name": "value",
					"type": "uint256"
				}
			],
			"name": "toHexString",
			"outputs": [
				{
					"internalType": "string",
					"name": "",
					"type": "string"
				}
			],
			"stateMutability": "pure",
			"type": "function"
		},
		{
			"inputs": [
				{
					"internalType": "uint256",
					"name": "value",
					"type": "uint256"
				}
			],
			"name": "toString",
			"outputs": [
				{
					"internalType": "string",
					"name": "",
					"type": "string"
				}
			],
			"stateMutability": "pure",
			"type": "function"
		}
	]
}